:100000000C944A000C9469000C9469000C946900EB
:100010000C9469000C9469000C9469000C946900BC
:100020000C9469000C9469000C9469000C946900AC
:100030000C94CA150C9469000C9469000C94690026
:100040000C9469000C9469000C9432070C946900BC
:100050000C9469000C9490180C9469000C9400188E
:100060000C9469000C9469000C9469000C9469006C
:100070000C9469000C9469000C9469000C9469005C
:100080000C94E5190C9469000C94A3190C94690064
:100090000C94690011241FBECFEFD0E1DEBFCDBFAD
:1000A00011E0A0E0B1E0EEE6F0E400E00BBF02C03A
:1000B00007900D92A433B107D9F722E0A4E3B1E091
:1000C00001C01D92AA38B207E1F70E949A1C0C9455
:1000D00035200C940000CF93DF93CDB7DEB769973E
:1000E0000FB6F894DEBF0FBECDBF988F8F8B698F90
:1000F0008F89988DFC018081882321F48F89988DC8
:100100000E94480183E58F878F89988DFC0180814B
:10011000888B83E4898B898D8A8B72C080E090E024
:10012000A8E4B2E489839A83AB83BC8320E030E403
:100130004CE155E469817A818B819C810E946F1E1C
:10014000DC01CB018D839E83AF83B88720E030E054
:1001500040E85FE36D817E818F8198850E94121D4A
:1001600088232CF481E090E09A8789873FC020E0C3
:100170003FEF4FE757E46D817E818F8198850E9424
:100180006A1E18164CF520E030E040E251E4698127
:100190007A818B819C810E946F1EDC01CB01BC01A6
:1001A000CD010E94891DDC01CB019A8789870FC090
:1001B0008AEF90E09C878B878B859C850197F1F770
:1001C0009C878B8789859A8501979A8789878985F6
:1001D0009A85892B69F714C06D817E818F819885FE
:1001E0000E94891DDC01CB019A87898789859A85C0
:1001F0009E878D878D859E850197F1F79E878D87D8
:10020000CE010F9664ED0E94E009882309F086CFA5
:100210008F89988D298DFC01218369960FB6F894FA
:10022000DEBF0FBECDBFDF91CF910895CF93DF9397
:1002300000D000D000D0CDB7DEB79A8389836B831E
:100240004C833E832D8389819A812B81FC012083FD
:1002500089819A812C81FC0121838D819E81892B4A
:1002600051F089819A810E94480189819A816C812B
:100270000E946B0004C089819A810E94E801269641
:100280000FB6F894DEBF0FBECDBFDF91CF910895BA
:10029000CF93DF93CDB7DEB768970FB6F894DEBF84
:1002A0000FBECDBF988F8F8B83E58F878F89988DF9
:1002B000FC018081888B83E5898B81E48A8B72C005
:1002C00080E090E0A8E4B2E489839A83AB83BC83A6
:1002D00020E030E44CE155E469817A818B819C8196
:1002E0000E946F1EDC01CB018D839E83AF83B88794
:1002F00020E030E040E85FE36D817E818F8198856A
:100300000E94121D88232CF481E090E09A8789874F
:100310003FC020E03FEF4FE757E46D817E818F8142
:1003200098850E946A1E18164CF520E030E040E2E5
:1003300051E469817A818B819C810E946F1EDC016E
:10034000CB01BC01CD010E94891DDC01CB019A8744
:1003500089870FC08AEF90E09C878B878B859C856F
:100360000197F1F79C878B8789859A8501979A87F2
:10037000898789859A85892B69F714C06D817E816B
:100380008F8198850E94891DDC01CB019A8789871E
:1003900089859A859E878D878D859E850197F1F742
:1003A0009E878D87CE010F9664ED0E94E009882319
:1003B00009F086CF8F89988D21E0FC012283689611
:1003C0000FB6F894DEBF0FBECDBFDF91CF91089579
:1003D000CF93DF93CDB7DEB768970FB6F894DEBF43
:1003E0000FBECDBF988F8F8B83E58F878F89988DB8
:1003F000FC018081888B83E5898B84E48A8B72C0C1
:1004000080E090E0A8E4B2E489839A83AB83BC8364
:1004100020E030E44CE155E469817A818B819C8154
:100420000E946F1EDC01CB018D839E83AF83B88752
:1004300020E030E040E85FE36D817E818F81988528
:100440000E94121D88232CF481E090E09A8789870E
:100450003FC020E03FEF4FE757E46D817E818F8101
:1004600098850E946A1E18164CF520E030E040E2A4
:1004700051E469817A818B819C810E946F1EDC012D
:10048000CB01BC01CD010E94891DDC01CB019A8703
:1004900089870FC08AEF90E09C878B878B859C852E
:1004A0000197F1F79C878B8789859A8501979A87B1
:1004B000898789859A85892B69F714C06D817E812A
:1004C0008F8198850E94891DDC01CB019A878987DD
:1004D00089859A859E878D878D859E850197F1F701
:1004E0009E878D87CE010F9664ED0E94E0098823D8
:1004F00009F086CF8F89988DFC01128268960FB61D
:10050000F894DEBF0FBECDBFDF91CF910895CF939A
:10051000DF93CDB7DEB768970FB6F894DEBF0FBE96
:10052000CDBF988F8F8B82E58F878F89988DFC0147
:100530008081888B8F89988DFC018181898B72C025
:1005400080E090E0A8E4B2E489839A83AB83BC8323
:1005500020E030E44CE155E469817A818B819C8113
:100560000E946F1EDC01CB018D839E83AF83B88711
:1005700020E030E040E85FE36D817E818F819885E7
:100580000E94121D88232CF481E090E09A878987CD
:100590003FC020E03FEF4FE757E46D817E818F81C0
:1005A00098850E946A1E18164CF520E030E040E263
:1005B00051E469817A818B819C810E946F1EDC01EC
:1005C000CB01BC01CD010E94891DDC01CB019A87C2
:1005D00089870FC08AEF90E09C878B878B859C85ED
:1005E0000197F1F79C878B8789859A8501979A8770
:1005F000898789859A85892B69F714C06D817E81E9
:100600008F8198850E94891DDC01CB019A8789879B
:1006100089859A859E878D878D859E850197F1F7BF
:100620009E878D87CE010F9664ED0E94E009882396
:1006300009F086CF68960FB6F894DEBF0FBECDBF27
:10064000DF91CF910895CF93DF93CDB7DEB7689751
:100650000FB6F894DEBF0FBECDBF988F8F8B8DE4A1
:100660008F878F89988DFC018081888B8F89988DE9
:10067000FC018181898B72C080E090E0A8E4B2E443
:1006800089839A83AB83BC8320E030E44CE155E45A
:1006900069817A818B819C810E946F1EDC01CB0174
:1006A0008D839E83AF83B88720E030E040E85FE32E
:1006B0006D817E818F8198850E94121D88232CF484
:1006C00081E090E09A8789873FC020E03FEF4FE7C5
:1006D00057E46D817E818F8198850E946A1E18166D
:1006E0004CF520E030E040E251E469817A818B8171
:1006F0009C810E946F1EDC01CB01BC01CD010E94D8
:10070000891DDC01CB019A8789870FC08AEF90E0B1
:100710009C878B878B859C850197F1F79C878B87BE
:1007200089859A8501979A87898789859A85892BF2
:1007300069F714C06D817E818F8198850E94891D23
:10074000DC01CB019A87898789859A859E878D8769
:100750008D859E850197F1F79E878D87CE010F9637
:1007600064ED0E94E009882309F086CF68960FB6F1
:10077000F894DEBF0FBECDBFDF91CF910895CF9328
:10078000DF93CDB7DEB72E970FB6F894DEBF0FBE5E
:10079000CDBF8AE290E02AE230E0F9012081237F98
:1007A000FC01208388EC90E0FC01108289EC90E051
:1007B00028E1FC0120838AEC90E026E0FC01208304
:1007C0008DEC90E0FC0110828CEC90E025E0FC01C7
:1007D000208380E090E0A8ECB2E489839A83AB8325
:1007E000BC8320E030E44CE155E469817A818B815F
:1007F0009C810E946F1EDC01CB018D839E83AF83A1
:10080000B88720E030E040E85FE36D817E818F8132
:1008100098850E94121D88232CF481E090E09A872D
:1008200089873FC020E03FEF4FE757E46D817E812D
:100830008F8198850E946A1E18164CF520E030E0E2
:1008400040E251E469817A818B819C810E946F1E14
:10085000DC01CB01BC01CD010E94891DDC01CB0173
:100860009A8789870FC08AEF90E09C878B878B855A
:100870009C850197F1F79C878B8789859A850197DD
:100880009A87898789859A85892B69F714C06D8134
:100890007E818F8198850E94891DDC01CB019A871A
:1008A000898789859A859E878D878D859E85019705
:1008B000F1F79E878D872E960FB6F894DEBF0FBE98
:1008C000CDBFDF91CF910895CF93DF931F92CDB726
:1008D000DEB78983000088EC90E0FC018081882FDE
:1008E00090E080729927892BB1F38EEC90E02981FA
:1008F000FC0120830F90DF91CF910895CF93DF9378
:10090000CDB7DEB7000088EC90E0FC018081882341
:10091000D4F78EEC90E0FC018081DF91CF910895B7
:10092000CF93DF93CDB7DEB727970FB6F894DEBF2E
:100930000FBECDBF27E0CE010196FC01322F1192F0
:100940003A95E9F70E947E0489830E947E048A8397
:100950000E947E048B830E947E048C830E947E040E
:100960008D830E947E048E8327960FB6F894DEBF97
:100970000FBECDBFDF91CF910895CF93DF93CDB759
:10098000DEB7000088EC90E0FC018081882F90E0C9
:1009900080749927892BB1F389EC90E029EC30E041
:1009A000F9012081277FFC01208388EC90E028EC6E
:1009B00030E0F90120812064FC012083DF91CF9198
:1009C0000895CF93DF93CDB7DEB789EC90E029ECA3
:1009D00030E0F90120812860FC012083DF91CF9174
:1009E0000895CF93DF93CDB7DEB789EC90E029EC83
:1009F00030E0F90120812F7EFC012083DF91CF912F
:100A00000895CF93DF93CDB7DEB789EC90E029EC62
:100A100030E0F90120812061FC012083DF91CF913A
:100A20000895CF93DF93CDB7DEB76A970FB6F894EA
:100A3000DEBF0FBECDBF9E8B8D8B788F6F8B498FA6
:100A40002A8F8D899E89CC01A0E0B0E0BC01CD0148
:100A50000E94B81DDC01CB0120E030E046E953E400
:100A6000BC01CD010E94171DDC01CB0120E030EC60
:100A70004FE754E4BC01CD010E946F1EDC01CB01A5
:100A8000BC01CD010E94891DDC01CB019E8B8D8BA9
:100A90008D899E89892F992789838D898A83898D5C
:100AA000882F90E0982F8827990F990F9C018F89A4
:100AB000988D822B932B988F8F8B8F89988D892F70
:100AC00099278B838F898C838A8D882F90E09C0156
:100AD000285D3F4F8B81882F90E0280F391F8C8134
:100AE000882F90E0280F391F8981882F90E0280FE8
:100AF000391F8A81882F90E0820F931F80959095EF
:100B00009E838D830E94F1048FEF0E9464048FEF17
:100B10000E9464048A8D0E94640487E00E94640439
:100B200083E00E9464048EE10E9464048A810E9432
:100B3000640489810E9464048C810E9464048B8116
:100B40000E9464048D810E9464040E94BD040E947E
:100B5000010580E090E0A8E4B2E48F839887A9873C
:100B6000BA8720E030E44CE155E46F8178858985CF
:100B70009A850E946F1EDC01CB018B879C87AD8715
:100B8000BE8720E030E040E85FE36B857C858D85A3
:100B90009E850E94121D88232CF481E090E0988BA2
:100BA0008F873FC020E03FEF4FE757E46B857C85A0
:100BB0008D859E850E946A1E18164CF520E030E057
:100BC00040E251E46F81788589859A850E946F1E85
:100BD000DC01CB01BC01CD010E94891DDC01CB01F0
:100BE000988B8F870FC08AEF90E09A8B898B8989C9
:100BF0009A890197F1F79A8B898B8F85988901974C
:100C0000988B8F878F859889892B69F714C06B859E
:100C10007C858D859E850E94891DDC01CB01988B8A
:100C20008F878F8598899C8B8B8B8B899C8901976B
:100C3000F1F79C8B8B8B0E94E1046A960FB6F894B7
:100C4000DEBF0FBECDBFDF91CF910895CF93DF936D
:100C5000CDB7DEB760970FB6F894DEBF0FBECDBF3D
:100C60008CEE9FEF9A8389830E94F1048FEF0E949C
:100C700064048FEF0E94640481E00E94640487E0B2
:100C80000E94640483E00E94640486E00E9464047D
:100C900080E00E94640480E00E9464048FEF0E9460
:100CA000640483E00E94640489810E9464040E94B9
:100CB000BD040E94010580E090E0A8E4B2E48B83CB
:100CC0009C83AD83BE8320E030E44CE155E46B812E
:100CD0007C818D819E810E946F1EDC01CB018F8300
:100CE0009887A987BA8720E030E040E85FE36F810A
:100CF000788589859A850E94121D88232CF481E0CD
:100D000090E09C878B873FC020E03FEF4FE757E4A0
:100D10006F81788589859A850E946A1E18164CF520
:100D200020E030E040E251E46B817C818D819E8146
:100D30000E946F1EDC01CB01BC01CD010E94891D08
:100D4000DC01CB019C878B870FC08AEF90E09E87E8
:100D50008D878D859E850197F1F79E878D878B8581
:100D60009C8501979C878B878B859C85892B69F750
:100D700014C06F81788589859A850E94891DDC0160
:100D8000CB019C878B878B859C85988B8F878F85E4
:100D900098890197F1F7988B8F870E94E1046096FC
:100DA0000FB6F894DEBF0FBECDBFDF91CF9108958F
:100DB000CF93DF93CDB7DEB728970FB6F894DEBF99
:100DC0000FBECDBF9E838D8378876F831A82198271
:100DD0001C821B828F8198859A8389838D819E8155
:100DE000982F8827990F990F29813A81822B932B6D
:100DF0009A83898389819A818996809590959C832D
:100E00008B830E94F1048FEF0E9464048FEF0E9495
:100E1000640481E00E94640485E00E94640483E02D
:100E20000E94640480E20E94640489810E94640438
:100E300089819A81892F99270E9464048B810E945D
:100E400064040E94BD040E9401050E9490040E9457
:100E5000E10428960FB6F894DEBF0FBECDBFDF9138
:100E6000CF9108951F920F9200905F000F9211246E
:100E700000905B000F922F933F934F935F938F935C
:100E80009F93EF93FF93CF93DF9300D000D0CDB724
:100E9000DEB78DEE90E0FC0180818B831982A4C0C7
:100EA0008DEE90E029812295207FFC0120838EEE3B
:100EB00090E0FC018081829586958770882F90E074
:100EC00081709927892B09F470C08FEE90E020E89B
:100ED000FC0120838EEE90E02EEE30E0F9012081BF
:100EE0002F7DFC01208382EF90E0FC0180818295C0
:100EF00086958770282F83EF90E0FC018081882FF2
:100F000090E0880F991F880F991F880F991F822BD7
:100F10008C831A8226C08C81882F90E08150904863
:100F2000880F991F8C5C9E4FFC01208131818C8140
:100F3000882F90E00197885B9E4FFC018081482FAD
:100F400050E08A81882F90E0840F951F820F931FB5
:100F50002AEF30E0F9012081FC0120838A818F5F34
:100F60008A838A818830B8F28C81882F90E001973B
:100F7000885B9E4FFC0120812F5FFC012083253080
:100F800041F48C81882F90E00197885B9E4FFC0193
:100F900010828C81882F90E00197845A9E4FFC012B
:100FA00020812F5FFC01208323C08EEE90E0FC01A6
:100FB00080818295869586958370882F90E08170D8
:100FC0009927892B71F08FEE90E0FC0110828EEE54
:100FD00090E02EEE30E0F90120812F7BFC01208390
:100FE00007C089818F5F898389818F3008F458CF4A
:100FF0008DEE90E02B81FC0120830F900F900F90DD
:101000000F90DF91CF91FF91EF919F918F915F9121
:101010004F913F912F910F9000925B000F900092A3
:101020005F000F901F901895CF93DF9300D0CDB73E
:10103000DEB788ED90E021E0FC01208319823EC0FC
:101040008DEE90E029812295207FFC0120838EEE99
:1010500090E0FC0110828FEE90E0FC01108283EFA3
:1010600090E0FC01108282EF90E0FC01108281EFA1
:1010700090E0FC01108280EF90E0FC01108287EF8D
:1010800090E0FC01108286EF90E0FC01108285EF79
:1010900090E0FC01108284EF90E0FC0110821A8243
:1010A00007C08AEF90E0FC0110828A818F5F8A83FB
:1010B0008A818830B0F389818F5F898389818F30FD
:1010C00008F4BECF88ED90E022E0FC01208382EEA0
:1010D00090E021E0FC01208383EE90E028E0FC0119
:1010E000208384EE90E02EE5FC01208385EE90E0E5
:1010F000FC0110828BED90E020EBFC0120838FED52
:1011000090E02FE7FC0120838EED90E02FEFFC01B3
:10111000208378940F900F90DF91CF910895CF9313
:10112000DF9300D000D0CDB7DEB79C838B838DEEEC
:1011300090E0FC0180818A83000089ED90E0FC0151
:10114000808182958F70882F90E081709927892BFC
:10115000A1F789ED90E0FC018081869586958695C2
:10116000882F90E081709927892B39F7198249C01F
:101170008DEE90E029812295207FFC0120838FEE67
:1011800090E0FC0180818295869586958370882306
:1011900021F089818F5F898334C08FEE90E02FE04A
:1011A000FC01208383EF90E02B813C81332736952F
:1011B00027953695279536952795FC01208382EF54
:1011C00090E02B812295220F207EFC01208386EF68
:1011D00090E020EEFC01208387EF90E02FEFFC01F0
:1011E00020838FEE90E02FEE30E0F901208120681F
:1011F000FC0120838DEE90E02A81FC01208381E0B8
:101200000AC089818F3008F4B3CF8DEE90E02A8137
:10121000FC01208380E00F900F900F900F90DF91E2
:10122000CF9108950F931F93CF93DF9300D0CDB745
:10123000DEB78A830E941408198230C08981882F02
:1012400090E001960E948F088981882F90E0880F96
:10125000991F8C010C5C1E4F61E070E085E090E00E
:101260000E94DC1EF801918380838981882F90E0A1
:101270002981222F30E04981442F50E060E0445A18
:101280005E4FFA0160832E5A3E4FF9016083885BFE
:101290009E4FFC01608389818F5F898399818A8158
:1012A000981760F20F900F90DF91CF911F910F91DF
:1012B0000895CF93DF931F92CDB7DEB789838981DD
:1012C000882F90E00197845A9E4FFC0180810F90F7
:1012D000DF91CF910895CF93DF9300D000D0CDB7A9
:1012E000DEB79B838A836C8384E390E02FEFFC015D
:1012F000208300008C81882F90E00197845A9E4FB4
:10130000FC0180818823B1F319822CC08981882F48
:1013100090E02A813B81820F931F2C81222F30E0A5
:1013200021503048220F331F2C5C3E4FF901408181
:1013300051812C81222F30E0215031092E5A3E4F0D
:10134000F9012081622F70E02981222F30E0260FE1
:10135000371F240F351FF9012081FC01208389816B
:101360008F5F89838981883088F28C81882F90E013
:1013700001978E5A9E4FFC0120812F5FFC01208334
:10138000253041F48C81882F90E001978E5A9E4F32
:10139000FC0110828C81882F90E001979C01245AD7
:1013A0003E4FF90120812150845A9E4FFC01208339
:1013B00080E00F900F900F900F90DF91CF910895E4
:1013C000CF93DF9300D000D000D0CDB7DEB79D83A0
:1013D0008C836E83000089ED90E0FC018081829512
:1013E0008F70882F90E081709927892BA1F789ED64
:1013F00090E0FC018081869586958695882F90E007
:1014000081709927892B39F78DEE90E0FC0180815E
:101410008B831A8215C08DEE90E02A812295207F61
:10142000FC0120838FEE90E0FC01808182958695FF
:1014300086958370882309F406C08A818F5F8A832A
:101440008A818F3040F38A818F3011F48FEF39C059
:1014500082EF90E02E812295220F207EFC012083D6
:1014600083EF90E02E81269526952695FC0120831A
:101470008FEE90E028E0FC012083198210C08AEFF3
:1014800090E02981222F30E04C815D81240F351FAF
:10149000F9012081FC01208389818F5F8983898103
:1014A000883068F38FEE90E02FEE30E0F901208174
:1014B0002064FC0120838DEE90E02B81FC012083D1
:1014C00080E026960FB6F894DEBF0FBECDBFDF9149
:1014D000CF910895CF93DF9300D000D0CDB7DEB782
:1014E00085E090E09C838B831A82198228C08981D1
:1014F0009A81880F991F8A5F9E4FFC01808140E08E
:1015000061E00E94600B89819A81880F991F895F31
:101510009E4FFC01808121E0882309F420E089812D
:101520009A81880F991F8A5F9E4FFC018081622FEC
:101530000E94700C89819A8101969A8389832981FE
:101540003A818B819C81281739078CF20F900F907C
:101550000F900F90DF91CF910895CF93DF9300D03C
:10156000CDB7DEB78A838A81882F90E0880F991FD4
:10157000895F9E4FFC018081809589838A81882FB5
:1015800090E0880F991F01968A5F9E4F48E050E0D7
:101590009E012F5F3F4FB9010E942520898121E0E4
:1015A000882309F420E08A81882F90E0880F991F12
:1015B0008A5F9E4FFC018081622F0E94700C0F9009
:1015C0000F90DF91CF910895CF93DF9300D0CDB7E7
:1015D000DEB789836A838981882F90E0880F991FFD
:1015E00001968A5F9E4F9E012E5F3F4F48E050E07C
:1015F000B9010E9425208A8121E0882309F420E096
:101600008981882F90E0880F991F8A5F9E4FFC0187
:101610008081622F0E94700C0F900F90DF91CF910C
:101620000895CF93DF9300D000D000D0CDB7DEB7C0
:101630009A8389837C836B835E834D838D819E81B6
:1016400029813A81FC013183208389819A812D810E
:101650003E81FC013383228389819A812B813C81E5
:10166000FC01318320838B819C8129813A81FC019B
:101670003383228326960FB6F894DEBF0FBECDBF0C
:10168000DF91CF910895CF93DF9300D000D0CDB7F5
:10169000DEB79A8389837C836B838B819C81FC0179
:1016A000428153812B813C8189819A81B9010E94B9
:1016B000110B0F900F900F900F90DF91CF91089525
:1016C000CF93DF93CDB7DEB72B970FB6F894DEBF7D
:1016D0000FBECDBF89876A874B8780911201909199
:1016E00013019C838B838B819C8106979A838983CA
:1016F00015C089819A81FC0190818985981711F420
:1017000081E0E5C089819A81FC01808591859E8375
:101710008D838D819E8106979A83898389819A81A1
:1017200006968051914029F78985869586958695FC
:101730008F5F8F838985877088878A85813009F0DC
:1017400055C08F81882F90E09C0121503109C9013B
:10175000880F991F820F931F8196AC018F81882F6C
:1017600090E09C0121503109C901880F991F820F17
:10177000931F8196FC018081682F8885282F30E097
:1017800081E090E002C0880F991F2A95E2F7862B2E
:10179000FA0180838F81882F90E09C0121503109CC
:1017A000C901880F991F820F931F8296AC018F8108
:1017B000882F90E09C0121503109C901880F991FA1
:1017C000820F931F8296FC018081682F8885282FC5
:1017D00030E081E090E002C0880F991F2A95E2F77F
:1017E00080958623FA01808380E071C08F81882FE5
:1017F00090E09C0121503109C901880F991F820F87
:10180000931F8196AC018F81882F90E09C0121501D
:101810003109C901880F991F820F931F8196FC011E
:101820008081682F8885282F30E081E090E002C019
:10183000880F991F2A95E2F780958623FA01808305
:101840008F81882F90E09C0121503109C901880FB8
:10185000991F820F931F8296AC018F81882F90E091
:101860009C0121503109C901880F991F820F931FD4
:101870008296FC018081682F8885282F30E081E0E6
:1018800090E002C0880F991F2A95E2F7862BFA0193
:1018900080838AE090E00E94F81E9A838983898180
:1018A0009A81892B11F481E012C089819A8129855E
:1018B000FC01208389819A812B85FC012183898108
:1018C0009A81069660E171E00E94430B80E02B96BE
:1018D0000FB6F894DEBF0FBECDBFDF91CF91089554
:1018E000CF93DF9300D000D0CDB7DEB78B836C836E
:1018F0008B818695869586958F5F89838B8187708E
:101900008B838981882F90E09C0121503109C90186
:10191000880F991F820F931F8296FC01808191810D
:10192000A281B3818A838C81882331F18981882FB8
:1019300090E09C0121503109C901880F991F820F45
:10194000931F8296AC018A81282F30E08B81682F0B
:1019500070E081E090E002C0880F991F6A95E2F77D
:10196000822B932B092E000CAA0BBB0BFA01808350
:101970009183A283B38327C08981882F90E09C0143
:1019800021503109C901880F991F820F931F829638
:10199000AC018A81282F30E08B81682F70E081E0D4
:1019A00090E002C0880F991F6A95E2F780959095A4
:1019B00082239323092E000CAA0BBB0BFA01808310
:1019C0009183A283B38380E00F900F900F900F90CC
:1019D000DF91CF910895CF93DF9300D01F92CDB7C1
:1019E000DEB78B838B818695869586958F5F8983FD
:1019F0008B8187708B838981882F90E09C01215097
:101A00003109C901880F991F820F931F8096FC012D
:101A100080818A838A81882F90E02B81222F30E079
:101A200002C0959587952A95E2F781700F900F90E7
:101A30000F90DF91CF910895CF93DF93CDB7DEB7AD
:101A400029970FB6F894DEBF0FBECDBF898780916E
:101A50001201909113019D838C838C819D81069747
:101A60009A83898355C089819A81FC0190818985F7
:101A7000981709F041C01B821FC08B81882F90E00E
:101A800029813A81820F931F0296FC0140818B814C
:101A9000882F90E0019629813A81820F931F029648
:101AA000FC018081481729F089819A81FC01858198
:101AB00037C08B818F5F8B838B818230F0F289817D
:101AC0009A81FC01918181E08927882329F089810D
:101AD0009A81FC01828108C089819A81FC019281EE
:101AE00081E0992309F080E0888789819A8128859F
:101AF000FC012583888514C089819A81FC01808539
:101B000091859F838E838E819F8106979A83898397
:101B100089819A8106968051914009F0A4CF81E095
:101B200029960FB6F894DEBF0FBECDBFDF91CF91DF
:101B300008950F931F93CF93DF9300D000D000D070
:101B4000CDB7DEB780911201909113019C838B83F6
:101B50008B819C8106979A8389831EC000916801BE
:101B60001091690189819A81FC0180810E94EB0CAE
:101B7000282F89819A81800F911F0296FC01208372
:101B800089819A81FC01808591859E838D838D81D9
:101B90009E8106979A83898389819A8106968051CE
:101BA0009140E1F6809168019091690101969093CE
:101BB000690180936801039721F4109269011092E2
:101BC000680126960FB6F894DEBF0FBECDBFDF9139
:101BD000CF911F910F910895CF93DF93CDB7DEB7CB
:101BE00067970FB6F894DEBF0FBECDBF8F8B809185
:101BF0006A019F89981709F482C086E58F878F89CB
:101C0000888B72C080E090E0A8E4B2E489839A8374
:101C1000AB83BC8320E030E44CE155E469817A81F8
:101C20008B819C810E946F1EDC01CB018D839E8382
:101C3000AF83B88720E030E040E85FE36D817E81CC
:101C40008F8198850E94121D88232CF481E090E0FA
:101C50009A8789873FC020E03FEF4FE757E46D81C7
:101C60007E818F8198850E946A1E18164CF520E0AF
:101C700030E040E251E469817A818B819C810E944D
:101C80006F1EDC01CB01BC01CD010E94891DDC016E
:101C9000CB019A8789870FC08AEF90E09C878B875A
:101CA0008B859C850197F1F79C878B8789859A8521
:101CB00001979A87898789859A85892B69F714C046
:101CC0006D817E818F8198850E94891DDC01CB0109
:101CD0009A87898789859A859E878D878D859E8538
:101CE0000197F1F79E878D87CE010F9663EC0E94D6
:101CF000E009882309F086CF8F8980936A0167966F
:101D00000FB6F894DEBF0FBECDBFDF91CF9108951F
:101D1000CF93DF93CDB7DEB766970FB6F894DEBFEB
:101D20000FBECDBF80E58F8772C080E090E0A8E451
:101D3000B2E489839A83AB83BC8320E030E44CE136
:101D400055E469817A818B819C810E946F1EDC0140
:101D5000CB018D839E83AF83B88720E030E040E8DD
:101D60005FE36D817E818F8198850E94121D88239B
:101D70002CF481E090E09A8789873FC020E03FEF14
:101D80004FE757E46D817E818F8198850E946A1E9E
:101D900018164CF520E030E040E251E469817A8188
:101DA0008B819C810E946F1EDC01CB01BC01CD01A7
:101DB0000E94891DDC01CB019A8789870FC08AEFB9
:101DC00090E09C878B878B859C850197F1F79C879A
:101DD0008B8789859A8501979A87898789859A85CE
:101DE000892B69F714C06D817E818F8198850E944F
:101DF000891DDC01CB019A87898789859A859E8711
:101E00008D878D859E850197F1F79E878D87CE0101
:101E10000F9663EC0E94E009882309F086CFCE017B
:101E20000F9661E00E946B098F8580931A01888963
:101E3000882F90E0382F22278989882F90E0822BE5
:101E4000932B90931501809314018A89882F90E039
:101E5000382F22278B89882F90E0822B932B909309
:101E60001701809316018C89882F90E0382F222744
:101E70008D89882F90E0822B932B9093190180936A
:101E8000180166960FB6F894DEBF0FBECDBFDF9186
:101E9000CF910895CF93DF9300D000D000D0CDB77D
:101EA000DEB79E838D830E944416DC01CB018983BB
:101EB0009A83AB83BC830E94880E8D819E81892B7F
:101EC00071F089819A81AB81BC812D813E81BC01F9
:101ED000CD01F9010995813011F481E009C08091AB
:101EE0001A018D3441F380911A01823521F380E08B
:101EF00026960FB6F894DEBF0FBECDBFDF91CF910F
:101F00000895CF93DF93CDB7DEB767970FB6F894F8
:101F1000DEBF0FBECDBF8F8B8F898F8772C080E0F1
:101F200090E0A8E4B2E489839A83AB83BC8320E089
:101F300030E44CE155E469817A818B819C810E9477
:101F40006F1EDC01CB018D839E83AF83B88720E0B9
:101F500030E040E85FE36D817E818F8198850E944B
:101F6000121D88232CF481E090E09A8789873FC076
:101F700020E03FEF4FE757E46D817E818F819885A8
:101F80000E946A1E18164CF520E030E040E251E451
:101F900069817A818B819C810E946F1EDC01CB015B
:101FA000BC01CD010E94891DDC01CB019A87898784
:101FB0000FC08AEF90E09C878B878B859C8501976B
:101FC000F1F79C878B8789859A8501979A878987FE
:101FD00089859A85892B69F714C06D817E818F81EF
:101FE00098850E94891DDC01CB019A8789878985A4
:101FF0009A859E878D878D859E850197F1F79E87AF
:102000008D87CE010F9663EC0E94E009882309F0CA
:1020100086CF0E94880E80911A018D3409F47CCFFE
:1020200080911A01823509F477CF67960FB6F8943C
:10203000DEBF0FBECDBFDF91CF910895CF93DF9369
:10204000CDB7DEB76B970FB6F894DEBF0FBECDBF2E
:10205000988F8F8B698F5B8F4A8F898D0E94EC0DD3
:1020600084E48F878F89988D892F990F990B888B9E
:102070008F89898B72C080E090E0A8E4B2E4898304
:102080009A83AB83BC8320E030E44CE155E4698162
:102090007A818B819C810E946F1EDC01CB018D8334
:1020A0009E83AF83B88720E030E040E85FE36D8136
:1020B0007E818F8198850E94121D88232CF481E0F7
:1020C00090E09A8789873FC020E03FEF4FE757E4D1
:1020D0006D817E818F8198850E946A1E18164CF54D
:1020E00020E030E040E251E469817A818B819C817B
:1020F0000E946F1EDC01CB01BC01CD010E94891D35
:10210000DC01CB019A8789870FC08AEF90E09C871A
:102110008B878B859C850197F1F79C878B878985B9
:102120009A8501979A87898789859A85892B69F786
:1021300014C06D817E818F8198850E94891DDC018C
:10214000CB019A87898789859A859E878D878D851A
:102150009E850197F1F79E878D87CE010F9663ECE0
:102160000E94E009882309F086CF8A8D9B8D0E940A
:102170004A0F6B960FB6F894DEBF0FBECDBFDF914E
:10218000CF910895CF93DF93CDB7DEB76C970FB69D
:10219000F894DEBF0FBECDBF988F8F8B698F4A8FAB
:1021A0003C8F2B8F898D0E94EC0D87E48F878F8960
:1021B000988DFC0180819181892F990F990B888BD3
:1021C0008F89988DFC0180819181898B8F89988D71
:1021D000FC0182819381892F990F990B8A8B8F89BA
:1021E000988DFC01828193818B8B1C8A8A8D8D8BCB
:1021F00072C080E090E0A8E4B2E489839A83AB8364
:10220000BC8320E030E44CE155E469817A818B8124
:102210009C810E946F1EDC01CB018D839E83AF8366
:10222000B88720E030E040E85FE36D817E818F81F8
:1022300098850E94121D88232CF481E090E09A87F3
:1022400089873FC020E03FEF4FE757E46D817E81F3
:102250008F8198850E946A1E18164CF520E030E0A8
:1022600040E251E469817A818B819C810E946F1EDA
:10227000DC01CB01BC01CD010E94891DDC01CB0139
:102280009A8789870FC08AEF90E09C878B878B8520
:102290009C850197F1F79C878B8789859A850197A3
:1022A0009A87898789859A85892B69F714C06D81FA
:1022B0007E818F8198850E94891DDC01CB019A87E0
:1022C000898789859A859E878D878D859E850197CB
:1022D000F1F79E878D87CE010F9663EC0E94E0098F
:1022E000882309F086CF8B8D9C8D0E944A0F6C96B7
:1022F0000FB6F894DEBF0FBECDBFDF91CF9108952A
:10230000CF93DF93CDB7DEB768970FB6F894DEBFF3
:102310000FBECDBF988F8F8B89E48F878F89988D63
:10232000FC0180819181892F990F990B888B8F896E
:10233000988DFC0180819181898B8F89988DFC011A
:1023400082819381892F990F990B8A8B8F89988D20
:10235000FC01828193818B8B8F89988DFC01848114
:102360009581892F990F990B8C8B8F89988DFC0102
:10237000848195818D8B8F89988DFC0180819181DD
:1023800090931501809314018F89988DFC018281AF
:10239000938190931701809316018F89988DFC018A
:1023A00084819581909319018093180172C080E017
:1023B00090E0A8E4B2E489839A83AB83BC8320E0F5
:1023C00030E44CE155E469817A818B819C810E94E3
:1023D0006F1EDC01CB018D839E83AF83B88720E025
:1023E00030E040E85FE36D817E818F8198850E94B7
:1023F000121D88232CF481E090E09A8789873FC0E2
:1024000020E03FEF4FE757E46D817E818F81988513
:102410000E946A1E18164CF520E030E040E251E4BC
:1024200069817A818B819C810E946F1EDC01CB01C6
:10243000BC01CD010E94891DDC01CB019A878987EF
:102440000FC08AEF90E09C878B878B859C850197D6
:10245000F1F79C878B8789859A8501979A87898769
:1024600089859A85892B69F714C06D817E818F815A
:1024700098850E94891DDC01CB019A87898789850F
:102480009A859E878D878D859E850197F1F79E871A
:102490008D87CE010F9663EC0E94E009882309F036
:1024A00086CF68960FB6F894DEBF0FBECDBFDF9122
:1024B000CF910895CF93DF93CDB7DEB76B970FB66B
:1024C000F894DEBF0FBECDBF988F8F8B698F5B8F67
:1024D0004A8F898D0E94EC0D84E58F878F89988DB6
:1024E000892F9927888B8F89898B72C080E090E033
:1024F000A8E4B2E489839A83AB83BC8320E030E410
:102500004CE155E469817A818B819C810E946F1E28
:10251000DC01CB018D839E83AF83B88720E030E060
:1025200040E85FE36D817E818F8198850E94121D56
:1025300088232CF481E090E09A8789873FC020E0CF
:102540003FEF4FE757E46D817E818F8198850E9430
:102550006A1E18164CF520E030E040E251E4698133
:102560007A818B819C810E946F1EDC01CB01BC01B2
:10257000CD010E94891DDC01CB019A8789870FC09C
:102580008AEF90E09C878B878B859C850197F1F77C
:102590009C878B8789859A8501979A878987898502
:1025A0009A85892B69F714C06D817E818F8198850A
:1025B0000E94891DDC01CB019A87898789859A85CC
:1025C0009E878D878D859E850197F1F79E878D87E4
:1025D000CE010F9663EC0E94E009882309F086CFB4
:1025E0008A8D9B8D0E944A0F6B960FB6F894DEBFC2
:1025F0000FBECDBFDF91CF910895CF93DF93CDB7BD
:10260000DEB76B970FB6F894DEBF0FBECDBF988FC5
:102610008F8B698F5B8F4A8F898D0E94EC0D81E4CF
:102620008F878F89988D892F9927888B8F89898BA0
:1026300072C080E090E0A8E4B2E489839A83AB831F
:10264000BC8320E030E44CE155E469817A818B81E0
:102650009C810E946F1EDC01CB018D839E83AF8322
:10266000B88720E030E040E85FE36D817E818F81B4
:1026700098850E94121D88232CF481E090E09A87AF
:1026800089873FC020E03FEF4FE757E46D817E81AF
:102690008F8198850E946A1E18164CF520E030E064
:1026A00040E251E469817A818B819C810E946F1E96
:1026B000DC01CB01BC01CD010E94891DDC01CB01F5
:1026C0009A8789870FC08AEF90E09C878B878B85DC
:1026D0009C850197F1F79C878B8789859A8501975F
:1026E0009A87898789859A85892B69F714C06D81B6
:1026F0007E818F8198850E94891DDC01CB019A879C
:10270000898789859A859E878D878D859E85019786
:10271000F1F79E878D87CE010F9663EC0E94E0094A
:10272000882309F086CF8A8D9B8D0E944A0F6B9675
:102730000FB6F894DEBF0FBECDBFDF91CF910895E5
:10274000EF92FF920F93CF93DF93CDB7DEB76F97E2
:102750000FB6F894DEBF0FBECDBF988F8F8B7A8FE8
:10276000698F4B8F2C8F0D8FFF8EEE8E8D8D0E947B
:10277000EC0D81E58F878F89988D892F9927888B1C
:102780008F89898B898D9A8D892F99278A8B898D3D
:102790008B8B8B8D082E000C990B892F990F990B21
:1027A0008C8B8B8D8D8B8C8D8E8B72C080E090E0AE
:1027B000A8E4B2E489839A83AB83BC8320E030E44D
:1027C0004CE155E469817A818B819C810E946F1E66
:1027D000DC01CB018D839E83AF83B88720E030E09E
:1027E00040E85FE36D817E818F8198850E94121D94
:1027F00088232CF481E090E09A8789873FC020E00D
:102800003FEF4FE757E46D817E818F8198850E946D
:102810006A1E18164CF520E030E040E251E4698170
:102820007A818B819C810E946F1EDC01CB01BC01EF
:10283000CD010E94891DDC01CB019A8789870FC0D9
:102840008AEF90E09C878B878B859C850197F1F7B9
:102850009C878B8789859A8501979A87898789853F
:102860009A85892B69F714C06D817E818F81988547
:102870000E94891DDC01CB019A87898789859A8509
:102880009E878D878D859E850197F1F79E878D8721
:10289000CE010F9663EC0E94E009882309F086CFF1
:1028A0008E8D9F8D0E944A0F6F960FB6F894DEBFF3
:1028B0000FBECDBFDF91CF910F91FF90EF900895A4
:1028C000CF93DF93CDB7DEB766970FB6F894DEBF30
:1028D0000FBECDBF8BE48F8772C080E090E0A8E48C
:1028E000B2E489839A83AB83BC8320E030E44CE17B
:1028F00055E469817A818B819C810E946F1EDC0185
:10290000CB018D839E83AF83B88720E030E040E821
:102910005FE36D817E818F8198850E94121D8823DF
:102920002CF481E090E09A8789873FC020E03FEF58
:102930004FE757E46D817E818F8198850E946A1EE2
:1029400018164CF520E030E040E251E469817A81CC
:102950008B819C810E946F1EDC01CB01BC01CD01EB
:102960000E94891DDC01CB019A8789870FC08AEFFD
:1029700090E09C878B878B859C850197F1F79C87DE
:102980008B8789859A8501979A87898789859A8512
:10299000892B69F714C06D817E818F8198850E9493
:1029A000891DDC01CB019A87898789859A859E8755
:1029B0008D878D859E850197F1F79E878D87CE0146
:1029C0000F9663EC0E94E009882309F086CF669693
:1029D0000FB6F894DEBF0FBECDBFDF91CF91089543
:1029E000CF93DF93CDB7DEB70E94880E80911A0196
:1029F000DF91CF910895CF93DF93CDB7DEB70E94DB
:102A0000880E8091140190911501DF91CF91089566
:102A1000CF93DF93CDB7DEB70E94880E8091160169
:102A200090911701DF91CF910895CF93DF93CDB7A8
:102A3000DEB70E94880E8091180190911901DF91F4
:102A4000CF910895CF93DF9300D000D0CDB7DEB7FC
:102A500086E090E09C838B831A8219821DC0898155
:102A60009A81880F991F845E9E4FFC01808121E02E
:102A7000882309F420E089819A81880F991F855E57
:102A80009E4FFC018081422F60E00E94600B898193
:102A90009A8101969A83898329813A818B819C81CD
:102AA00028173907E4F20F900F900F900F90DF91E5
:102AB000CF910895CF93DF931F92CDB7DEB789836F
:102AC00089810E941C0D0F90DF91CF910895CF93C3
:102AD000DF9300D0CDB7DEB79A83898389819A814D
:102AE00090937101809370010F900F90DF91CF91BF
:102AF00008950F931F93CF93DF9300D0CDB7DEB728
:102B00009A83898380E890E0FC01108281E890E05C
:102B100029E0FC01208308E810E089819A81CC013A
:102B2000A0E0B0E0BC01CD010E94B81DDC01CB01EA
:102B30009C01AD0160E876E988E19BE40E94171DE5
:102B4000DC01CB0120E030E040E05FE3BC01CD01DF
:102B50000E94A61CDC01CB01BC01CD010E94891D95
:102B6000DC01CB01F801918380838FE690E022E0C5
:102B7000FC0120838FE590E02FE530E0F901208112
:102B80002068FC0120830F900F90DF91CF911F915F
:102B90000F9108951F920F9200905F000F921124E1
:102BA00000905B000F922F933F934F935F936F932F
:102BB0007F938F939F93AF93BF93EF93FF93CF93A5
:102BC000DF93CDB7DEB78091700190917101892BB1
:102BD00031F08091700190917101FC010995809113
:102BE0006B0190916C01A0916D01B0916E018039E3
:102BF0009F45A140B10528F00E945516882309F091
:102C0000FFCF80916B0190916C01A0916D01B0910B
:102C10006E010196A11DB11D80936B0190936C0113
:102C2000A0936D01B0936E01DF91CF91FF91EF9171
:102C3000BF91AF919F918F917F916F915F914F91D4
:102C40003F912F910F9000925B000F9000925F00D8
:102C50000F901F901895CF93DF93CDB7DEB71092EA
:102C60006B0110926C0110926D0110926E01DF9158
:102C7000CF910895CF93DF93CDB7DEB781E08093F6
:102C80006F01DF91CF910895CF93DF93CDB7DEB77A
:102C900080916B0190916C01A0916D01B0916E01DA
:102CA000BC01CD01DF91CF910895CF93DF93CDB7D4
:102CB000DEB780916F01DF91CF910895CF93DF93BD
:102CC000CDB7DEB72F970FB6F894DEBF0FBECDBFDE
:102CD0008F8740E060E08F850E94600B72C080E0CB
:102CE00090E0A8E4B2E489839A83AB83BC8320E0BC
:102CF00030E44CE155E469817A818B819C810E94AA
:102D00006F1EDC01CB018D839E83AF83B88720E0EB
:102D100030E040E85FE36D817E818F8198850E947D
:102D2000121D88232CF481E090E09A8789873FC0A8
:102D300020E03FEF4FE757E46D817E818F819885DA
:102D40000E946A1E18164CF520E030E040E251E483
:102D500069817A818B819C810E946F1EDC01CB018D
:102D6000BC01CD010E94891DDC01CB019A878987B6
:102D70000FC08AEF90E09C878B878B859C8501979D
:102D8000F1F79C878B8789859A8501979A87898730
:102D900089859A85892B69F714C06D817E818F8121
:102DA00098850E94891DDC01CB019A8789878985D6
:102DB0009A859E878D878D859E850197F1F79E87E1
:102DC0008D878F850E941C0D882309F088CF2F9650
:102DD0000FB6F894DEBF0FBECDBFDF91CF9108953F
:102DE000CF93DF93CDB7DEB72E970FB6F894DEBF43
:102DF0000FBECDBF89E99DE00E94671580E090E09D
:102E0000A8ECB2E489839A83AB83BC8320E030E4EE
:102E10004CE155E469817A818B819C810E946F1E0F
:102E2000DC01CB018D839E83AF83B88720E030E047
:102E300040E85FE36D817E818F8198850E94121D3D
:102E400088232CF481E090E09A8789873FC020E0B6
:102E50003FEF4FE757E46D817E818F8198850E9417
:102E60006A1E18164CF520E030E040E251E469811A
:102E70007A818B819C810E946F1EDC01CB01BC0199
:102E8000CD010E94891DDC01CB019A8789870FC083
:102E90008AEF90E09C878B878B859C850197F1F763
:102EA0009C878B8789859A8501979A8789878985E9
:102EB0009A85892B69F714C06D817E818F819885F1
:102EC0000E94891DDC01CB019A87898789859A85B3
:102ED0009E878D878D859E850197F1F79E878D87CB
:102EE00081E00E9412090E942B160E943A162E962B
:102EF0000FB6F894DEBF0FBECDBFDF91CF9108951E
:102F0000CF93DF93CDB7DEB727970FB6F894DEBF28
:102F10000FBECDBF6B837C838D839E834F8380ECFC
:102F200090E0FC01108281EC90E028E1FC0120831C
:102F300082EC90E026E0FC0120838F81813091F4C7
:102F400081EC90E021EC30E0F9012081206CFC0163
:102F500020838FE590E02FE530E0F90120812068A3
:102F6000FC0120836B817C818D819E810E94B81D34
:102F7000DC01CB0120E030E040E851E4BC01CD01B0
:102F80000E946F1EDC01CB019C01AD0160E876E977
:102F900088E19BE40E94171DDC01CB0120E030E0BA
:102FA00040E85FE3BC01CD010E94A51CDC01CB0120
:102FB00020E030E040E05FE3BC01CD010E94A61CB0
:102FC000DC01CB01BC01CD010E94891DDC01CB01DC
:102FD0009A83898385EC90E029813A81232F3327D6
:102FE000FC01208384EC90E02981FC01208327965A
:102FF0000FB6F894DEBF0FBECDBFDF91CF9108951D
:103000001F920F9200905F000F92112400905B00BE
:103010000F922F933F938F939F93EF93FF93CF93B1
:10302000DF93CDB7DEB78091B5018823D1F08091D1
:10303000B50181508093B50186EC90E02091B601F6
:10304000222F30E02C583E4FF9012081FC012083D3
:103050008091B6018F5F8093B601803411F4109295
:10306000B601DF91CF91FF91EF919F918F913F91A9
:103070002F910F9000925B000F9000925F000F90D5
:103080001F901895CF93DF931F92CDB7DEB789833A
:1030900081EC90E0FC018081829586958695837015
:1030A000882F90E081709927892B99F100008091F9
:1030B000B5018034E1F3F8948091B501882351F48F
:1030C00080EC90E0FC018081882F90E0807299274D
:1030D000892BC1F48091B401882F90E08C589E4FC9
:1030E0002981FC0120838091B4018F5F8093B4011A
:1030F000803411F41092B4018091B5018F5F8093F8
:10310000B50105C086EC90E02981FC01208378940C
:1031100003C089810E94311A0F90DF91CF910895E9
:103120001F920F9200905F000F92112400905B009D
:103130000F922F933F938F939F93EF93FF93CF9390
:10314000DF931F92CDB7DEB780EC90E0FC01808169
:1031500089838981882F90E08C719927892BD1F4FC
:103160008091F701882F90E026EC30E0F901208172
:1031700089549E4FFC0120838091F7018F5F8093DB
:10318000F701803411F41092F7018091F8018F5FFC
:103190008093F8010F90DF91CF91FF91EF919F9174
:1031A0008F913F912F910F9000925B000F900092B2
:1031B0005F000F901F901895CF93DF931F92CDB7AC
:1031C000DEB781EC90E0FC018081881F8827881F92
:1031D000882F90E081709927892BE9F00000809179
:1031E000F8018823E1F38091F901882F90E0895458
:1031F0009E4FFC01808189838091F9018F5F8093CC
:10320000F901803411F41092F9018091F801815094
:103210008093F80113C0000080EC90E0FC018081F5
:10322000881F8827881F882F90E081709927892B15
:1032300099F386EC90E0FC018081898389810F906D
:10324000DF91CF910895CF93DF93CDB7DEB7279766
:103250000FB6F894DEBF0FBECDBF6B837C838D832A
:103260009E834F8388EC90E0FC01108289EC90E013
:1032700028E1FC0120838AEC90E02EE0FC01208311
:103280008F81813091F489EC90E029EC30E0F901F4
:103290002081206CFC0120838FE590E02FE530E059
:1032A000F90120812068FC0120836B817C818D8164
:1032B0009E810E94B81DDC01CB0120E030E040E897
:1032C00051E4BC01CD010E946F1EDC01CB019C01C9
:1032D000AD0160E876E988E19BE40E94171DDC01FE
:1032E000CB0120E030E040E85FE3BC01CD010E946B
:1032F000A51CDC01CB0120E030E040E05FE3BC0135
:10330000CD010E94A61CDC01CB01BC01CD010E94B5
:10331000891DDC01CB019A8389838DEC90E02981A2
:103320003A81232F3327FC0120838CEC90E0298104
:10333000FC01208327960FB6F894DEBF0FBECDBFE9
:10334000DF91CF9108951F920F9200905F000F922E
:10335000112400905B000F922F933F938F939F93C4
:10336000EF93FF93CF93DF93CDB7DEB780913B020E
:103370008823D1F080913B02815080933B028EECF8
:1033800090E020913C02222F30E026503E4FF90180
:103390002081FC01208380913C028F5F80933C025E
:1033A000803411F410923C02DF91CF91FF91EF91A4
:1033B0009F918F913F912F910F9000925B000F9002
:1033C00000925F000F901F9018951F920F9200902F
:1033D0005F000F92112400905B000F922F933F9398
:1033E0008F939F93EF93FF93CF93DF931F92CDB76C
:1033F000DEB788EC90E0FC01808189838981882F89
:1034000090E08C719927892BD1F480917D02882FCF
:1034100090E02EEC30E0F9012081835C9D4FFC01AF
:10342000208380917D028F5F80937D02803411F430
:1034300010927D0280917E028F5F80937E020F90BA
:10344000DF91CF91FF91EF919F918F913F912F91BC
:103450000F9000925B000F9000925F000F901F9002
:103460001895CF93DF931F92CDB7DEB78983000005
:1034700080EC90E0FC018081882F90E08072992799
:10348000892BB1F386EC90E02981FC0120830F9019
:10349000DF91CF910895CF93DF931F92CDB7DEB721
:1034A0008983000088EC90E0FC018081882F90E007
:1034B00080729927892BB1F38EEC90E02981FC0171
:1034C00020830F90DF91CF910895CF93DF931F92C8
:1034D000CDB7DEB7898389EC90E0FC0180818295CD
:1034E000869586958370882F90E081709927892B27
:1034F00099F1000080913B028034E1F3F8948091CF
:103500003B02882351F488EC90E0FC018081882FF5
:1035100090E080729927892BC1F480913A02882F1C
:1035200090E086509E4F2981FC01208380913A02D1
:103530008F5F80933A02803411F410923A028091A6
:103540003B028F5F80933B0205C08EEC90E02981A7
:10355000FC012083789403C089810E944B1A0F904C
:10356000DF91CF910895CF93DF931F92CDB7DEB750
:1035700089EC90E0FC018081881F8827881F882FB4
:1035800090E081709927892BE9F0000080917E02FC
:103590008823E1F380917F02882F90E0835C9D4F28
:1035A000FC018081898380917F028F5F80937F02FD
:1035B000803411F410927F0280917E0281508093BA
:1035C0007E0213C0000088EC90E0FC018081881F1F
:1035D0008827881F882F90E081709927892B99F37D
:1035E0008EEC90E0FC018081898389810F90DF91CE
:1035F000CF910895CF93DF9300D0CDB7DEB79A83F4
:1036000089830BC089819A819C012F5F3F4F3A8348
:103610002983FC0180810E944B1A89819A81FC01D7
:103620008081882379F70F900F90DF91CF910895D3
:10363000CF93DF93CDB7DEB72E970FB6F894DEBFEA
:103640000FBECDBF72C080E090E0A8ECB2E48983E9
:103650009A83AB83BC8320E030E44CE155E469817C
:103660007A818B819C810E946F1EDC01CB018D834E
:103670009E83AF83B88720E030E040E85FE36D8150
:103680007E818F8198850E94121D88232CF481E011
:1036900090E09A8789873FC020E03FEF4FE757E4EB
:1036A0006D817E818F8198850E946A1E18164CF567
:1036B00020E030E040E251E469817A818B819C8195
:1036C0000E946F1EDC01CB01BC01CD010E94891D4F
:1036D000DC01CB019A8789870FC08AEF90E09C8735
:1036E0008B878B859C850197F1F79C878B878985D4
:1036F0009A8501979A87898789859A85892B69F7A1
:1037000014C06D817E818F8198850E94891DDC01A6
:10371000CB019A87898789859A859E878D878D8534
:103720009E850197F1F79E878D8720E030E060E06D
:1037300070E0CB01F9010995813009F484CF8091C3
:1037400080028093810281E0809327012E960FB63C
:10375000F894DEBF0FBECDBFDF91CF910895CF9318
:10376000DF93CDB7DEB765970FB6F894DEBF0FBE17
:10377000CDBF8EE190E0988B8F871A8A198A1C8AB8
:103780001B8ACE010F960E94801180912701882FFD
:1037900090E08130910509F47EC08335910509F0F0
:1037A000C7C080E090E0AAE7B4E489839A83AB8342
:1037B000BC8320E030E44CE155E469817A818B815F
:1037C0009C810E946F1EDC01CB018D839E83AF83A1
:1037D000B88720E030E040E85FE36D817E818F8133
:1037E00098850E94121D88232CF481E090E09A872E
:1037F00089873FC020E03FEF4FE757E46D817E812E
:103800008F8198850E946A1E18164CF520E030E0E2
:1038100040E251E469817A818B819C810E946F1E14
:10382000DC01CB01BC01CD010E94891DDC01CB0173
:103830009A8789870FC08AEF90E09C878B878B855A
:103840009C850197F1F79C878B8789859A850197DD
:103850009A87898789859A85892B69F714C06D8134
:103860007E818F8198850E94891DDC01CB019A871A
:10387000898789859A859E878D878D859E85019705
:10388000F1F79E878D8781E08093270180918002E8
:10389000809381024EC0809181028093800242C059
:1038A00040E050E080918002282F30E06BE0629F82
:1038B000C001639F900D1124805D9E4FDC01EC914F
:1038C00080918002282F30E06BE0629FC001639FEF
:1038D000900D1124815D9E4FDC017C9180918002CE
:1038E000282F30E06BE0629FC001639F900D112490
:1038F000885D9E4F9A014E2F672F0E94C2108093C1
:10390000850280918502813019F41092270111C03F
:1039100080918002882309F4FFCF809180028F5F1D
:103920008093800280918002882309F4B9CF01C07E
:1039300000002BCFCF93DF93CDB7DEB70E94F016F8
:1039400080E090E0DF91CF9108955058BB27AA27DF
:103950000E94BD1C0C94301E0E94221E38F00E9452
:10396000291E20F039F49F3F19F426F40C941F1EF1
:103970000EF4E095E7FB0C94191EE92F0E94411EFE
:1039800058F3BA17620773078407950720F079F494
:10399000A6F50C94631E0EF4E0950B2EBA2FA02D05
:1039A0000B01B90190010C01CA01A0011124FF27EC
:1039B000591B99F0593F50F4503E68F11A16F040E7
:1039C000A22F232F342F4427585FF3CF46953795E6
:1039D0002795A795F0405395C9F77EF41F16BA0BAB
:1039E000620B730B840BBAF09150A1F0FF0FBB1F59
:1039F000661F771F881FC2F70EC0BA0F621F731FA2
:103A0000841F48F4879577956795B795F7959E3FFE
:103A100008F0B0CF9395880F08F09927EE0F97958F
:103A2000879508950E94F51D08F481E008950E948D
:103A30002B1D0C94301E0E94291E58F00E94221E3D
:103A400040F029F45F3F29F00C94191E51110C9499
:103A5000641E0C941F1E0E94411E68F39923B1F34B
:103A6000552391F3951B550BBB27AA2762177307A4
:103A7000840738F09F5F5F4F220F331F441FAA1F38
:103A8000A9F335D00E2E3AF0E0E832D091505040F4
:103A9000E695001CCAF72BD0FE2F29D0660F771FA2
:103AA000881FBB1F261737074807AB07B0E809F088
:103AB000BB0B802DBF01FF2793585F4F3AF09E3F0D
:103AC000510578F00C94191E0C94641E5F3FE4F3CA
:103AD000983ED4F3869577956795B795F7959F5F50
:103AE000C9F7880F911D9695879597F90895E1E09C
:103AF000660F771F881FBB1F621773078407BA07FB
:103B000020F0621B730B840BBA0BEE1F88F7E09555
:103B100008950E94491E88F09F5798F0B92F992761
:103B2000B751B0F0E1F0660F771F881F991F1AF0A8
:103B3000BA95C9F714C0B13091F00E94631EB1E08C
:103B400008950C94631E672F782F8827B85F39F08B
:103B5000B93FCCF3869577956795B395D9F73EF441
:103B600090958095709561957F4F8F4F9F4F0895E9
:103B7000E89409C097FB3EF4909580957095619507
:103B80007F4F8F4F9F4F9923A9F0F92F96E9BB27BD
:103B90009395F695879577956795B795F111F8CF39
:103BA000FAF4BB0F11F460FF1BC06F5F7F4F8F4FA4
:103BB0009F4F16C0882311F096E911C0772321F09A
:103BC0009EE8872F762F05C0662371F096E8862F32
:103BD00070E060E02AF09A95660F771F881FDAF789
:103BE000880F9695879597F90895990F0008550FB6
:103BF000AA0BE0E8FEEF16161706E807F907C0F073
:103C000012161306E407F50798F0621B730B840B7A
:103C1000950B39F40A2661F0232B242B252B21F454
:103C200008950A2609F4A140A6958FEF811D811DF4
:103C3000089597F99F6780E870E060E008959FEF2E
:103C400080EC089500240A94161617061806090633
:103C5000089500240A941216130614060506089502
:103C6000092E0394000C11F4882352F0BB0F40F48A
:103C7000BF2B11F460FF04C06F5F7F4F8F4F9F4FCA
:103C8000089557FD9058440F551F59F05F3F71F04C
:103C90004795880F97FB991F61F09F3F79F08795B3
:103CA0000895121613061406551FF2CF4695F1DF3C
:103CB00008C0161617061806991FF1CF86957105CC
:103CC000610508940895E894BB2766277727CB0100
:103CD00097F908950E94F51D08F48FEF08950E944A
:103CE000821E0C94301E0E94221E38F00E94291E53
:103CF00020F0952311F00C94191E0C941F1E112412
:103D00000C94641E0E94411E70F3959FC1F3950FA1
:103D100050E0551F629FF001729FBB27F00DB11D4F
:103D2000639FAA27F00DB11DAA1F649F6627B00DDF
:103D3000A11D661F829F2227B00DA11D621F739FC8
:103D4000B00DA11D621F839FA00D611D221F749FD6
:103D50003327A00D611D231F849F600D211D822F1D
:103D6000762F6A2F11249F5750409AF0F1F0882344
:103D70004AF0EE0FFF1FBB1F661F771F881F915071
:103D80005040A9F79E3F510580F00C94191E0C94E9
:103D9000641E5F3FE4F3983ED4F38695779567956C
:103DA000B795F795E7959F5FC1F7FE2B880F911D9B
:103DB0009695879597F908950F931F93CF93DF9367
:103DC000869F8001879F100D969F100D1124C801BA
:103DD0000E94F81EEC01009729F0A80160E070E055
:103DE0000E942E20CE01DF91CF911F910F91089557
:103DF000CF93DF938230910510F482E090E0E09160
:103E00008802F091890220E030E0C0E0D0E03097F5
:103E100011F14081518148175907C0F048175907DF
:103E200061F482819381209719F09B838A832BC050
:103E3000909389028093880226C02115310519F0DC
:103E40004217530718F49A01BE01DF01EF01028007
:103E5000F381E02DDCCF2115310509F1281B390B49
:103E60002430310590F412968D919C911397611531
:103E7000710521F0FB019383828304C09093890232
:103E800080938802FD01329644C0FD01E20FF31FCA
:103E900081939193225031092D933C933AC0209104
:103EA000860230918702232B41F420910201309148
:103EB0000301309387022093860220910001309104
:103EC00001012115310541F42DB73EB740910401A0
:103ED00050910501241B350BE0918602F091870279
:103EE000E217F307A0F42E1B3F0B2817390778F0D1
:103EF000AC014E5F5F4F2417350748F04E0F5F1F30
:103F000050938702409386028193919302C0E0E030
:103F1000F0E0CF01DF91CF9108950F931F93CF93DE
:103F2000DF93009709F48CC0FC0132971382128250
:103F300000918802109189020115110581F42081F8
:103F40003181820F931F20918602309187022817BA
:103F5000390779F5F0938702E093860271C0D801A2
:103F600040E050E0AE17BF0750F412962D913C91FF
:103F70001397AD012115310509F1D901F3CF9D0149
:103F8000DA013383228360817181860F971F821744
:103F9000930769F4EC0128813981260F371F2E5FC2
:103FA0003F4F318320838A819B8193838283452B7A
:103FB00029F4F0938902E093880242C01396FC939F
:103FC000EE931297ED01499159919E01240F351FEF
:103FD000E217F30771F480819181840F951F029697
:103FE00011969C938E938281938113969C938E93CA
:103FF0001297E0E0F0E0D80112968D919C91139712
:10400000009719F0F8018C01F6CF8D919C919801E1
:104010002E5F3F4F820F931F2091860230918702BF
:104020002817390769F4309729F410928902109201
:10403000880202C0138212821093870200938602C4
:10404000DF91CF911F910F910895FB01DC0102C018
:1040500001900D9241505040D8F70895DC0101C005
:0E4060006D9341505040E0F70895F894FFCF63
:10406E0000008A022000300031003200330034009C
:10407E0010011001000000000000490000010002C4
:10408E00000300040005000164000000000000327F
:04409E00010000001D
:00000001FF
