:100000000C944A000C9469000C9469000C946900EB
:100010000C9469000C9469000C9469000C946900BC
:100020000C9469000C9469000C9469000C946900AC
:100030000C94DE140C9469000C9469000C94690013
:100040000C9469000C9469000C9432070C946900BC
:100050000C9469000C9412170C9469000C9482168D
:100060000C9469000C9469000C9469000C9469006C
:100070000C9469000C9469000C9469000C9469005C
:100080000C9467180C9469000C9425180C94690062
:100090000C94690011241FBECFEFD0E1DEBFCDBFAD
:1000A00011E0A0E0B1E0E4E6FDE300E00BBF02C038
:1000B00007900D92AE31B107D9F722E0AEE1B1E081
:1000C00001C01D92A437B207E1F70E941C1B0C94DB
:1000D000B01E0C940000CF93DF93CDB7DEB76997C5
:1000E0000FB6F894DEBF0FBECDBF988F8F8B698F90
:1000F0008F89988DFC018081882321F48F89988DC8
:100100000E94480183E58F878F89988DFC0180814B
:10011000888B83E4898B898D8A8B72C080E090E024
:10012000A8E4B2E489839A83AB83BC8320E030E403
:100130004CE155E469817A818B819C810E94F31C9A
:10014000DC01CB018D839E83AF83B88720E030E054
:1001500040E85FE36D817E818F8198850E94961BC8
:1001600088232CF481E090E09A8789873FC020E0C3
:100170003FEF4FE757E46D817E818F8198850E9424
:10018000EE1C18164CF520E030E040E251E46981A5
:100190007A818B819C810E94F31CDC01CB01BC0124
:1001A000CD010E940D1CDC01CB019A8789870FC00D
:1001B0008AEF90E09C878B878B859C850197F1F770
:1001C0009C878B8789859A8501979A8789878985F6
:1001D0009A85892B69F714C06D817E818F819885FE
:1001E0000E940D1CDC01CB019A87898789859A853D
:1001F0009E878D878D859E850197F1F79E878D87D8
:10020000CE010F9664ED0E94E009882309F086CFA5
:100210008F89988D298DFC01218369960FB6F894FA
:10022000DEBF0FBECDBFDF91CF910895CF93DF9397
:1002300000D000D000D0CDB7DEB79A8389836B831E
:100240004C833E832D8389819A812B81FC012083FD
:1002500089819A812C81FC0121838D819E81892B4A
:1002600051F089819A810E94480189819A816C812B
:100270000E946B0004C089819A810E94E801269641
:100280000FB6F894DEBF0FBECDBFDF91CF910895BA
:10029000CF93DF93CDB7DEB768970FB6F894DEBF84
:1002A0000FBECDBF988F8F8B83E58F878F89988DF9
:1002B000FC018081888B83E5898B81E48A8B72C005
:1002C00080E090E0A8E4B2E489839A83AB83BC83A6
:1002D00020E030E44CE155E469817A818B819C8196
:1002E0000E94F31CDC01CB018D839E83AF83B88712
:1002F00020E030E040E85FE36D817E818F8198856A
:100300000E94961B88232CF481E090E09A878987CD
:100310003FC020E03FEF4FE757E46D817E818F8142
:1003200098850E94EE1C18164CF520E030E040E263
:1003300051E469817A818B819C810E94F31CDC01EC
:10034000CB01BC01CD010E940D1CDC01CB019A87C1
:1003500089870FC08AEF90E09C878B878B859C856F
:100360000197F1F79C878B8789859A8501979A87F2
:10037000898789859A85892B69F714C06D817E816B
:100380008F8198850E940D1CDC01CB019A8789879B
:1003900089859A859E878D878D859E850197F1F742
:1003A0009E878D87CE010F9664ED0E94E009882319
:1003B00009F086CF8F89988D21E0FC012283689611
:1003C0000FB6F894DEBF0FBECDBFDF91CF91089579
:1003D000CF93DF93CDB7DEB768970FB6F894DEBF43
:1003E0000FBECDBF988F8F8B83E58F878F89988DB8
:1003F000FC018081888B83E5898B84E48A8B72C0C1
:1004000080E090E0A8E4B2E489839A83AB83BC8364
:1004100020E030E44CE155E469817A818B819C8154
:100420000E94F31CDC01CB018D839E83AF83B887D0
:1004300020E030E040E85FE36D817E818F81988528
:100440000E94961B88232CF481E090E09A8789878C
:100450003FC020E03FEF4FE757E46D817E818F8101
:1004600098850E94EE1C18164CF520E030E040E222
:1004700051E469817A818B819C810E94F31CDC01AB
:10048000CB01BC01CD010E940D1CDC01CB019A8780
:1004900089870FC08AEF90E09C878B878B859C852E
:1004A0000197F1F79C878B8789859A8501979A87B1
:1004B000898789859A85892B69F714C06D817E812A
:1004C0008F8198850E940D1CDC01CB019A8789875A
:1004D00089859A859E878D878D859E850197F1F701
:1004E0009E878D87CE010F9664ED0E94E0098823D8
:1004F00009F086CF8F89988DFC01128268960FB61D
:10050000F894DEBF0FBECDBFDF91CF910895CF939A
:10051000DF93CDB7DEB768970FB6F894DEBF0FBE96
:10052000CDBF988F8F8B82E58F878F89988DFC0147
:100530008081888B8F89988DFC018181898B72C025
:1005400080E090E0A8E4B2E489839A83AB83BC8323
:1005500020E030E44CE155E469817A818B819C8113
:100560000E94F31CDC01CB018D839E83AF83B8878F
:1005700020E030E040E85FE36D817E818F819885E7
:100580000E94961B88232CF481E090E09A8789874B
:100590003FC020E03FEF4FE757E46D817E818F81C0
:1005A00098850E94EE1C18164CF520E030E040E2E1
:1005B00051E469817A818B819C810E94F31CDC016A
:1005C000CB01BC01CD010E940D1CDC01CB019A873F
:1005D00089870FC08AEF90E09C878B878B859C85ED
:1005E0000197F1F79C878B8789859A8501979A8770
:1005F000898789859A85892B69F714C06D817E81E9
:100600008F8198850E940D1CDC01CB019A87898718
:1006100089859A859E878D878D859E850197F1F7BF
:100620009E878D87CE010F9664ED0E94E009882396
:1006300009F086CF68960FB6F894DEBF0FBECDBF27
:10064000DF91CF910895CF93DF93CDB7DEB7689751
:100650000FB6F894DEBF0FBECDBF988F8F8B8DE4A1
:100660008F878F89988DFC018081888B8F89988DE9
:10067000FC018181898B72C080E090E0A8E4B2E443
:1006800089839A83AB83BC8320E030E44CE155E45A
:1006900069817A818B819C810E94F31CDC01CB01F2
:1006A0008D839E83AF83B88720E030E040E85FE32E
:1006B0006D817E818F8198850E94961B88232CF402
:1006C00081E090E09A8789873FC020E03FEF4FE7C5
:1006D00057E46D817E818F8198850E94EE1C1816EB
:1006E0004CF520E030E040E251E469817A818B8171
:1006F0009C810E94F31CDC01CB01BC01CD010E9456
:100700000D1CDC01CB019A8789870FC08AEF90E02E
:100710009C878B878B859C850197F1F79C878B87BE
:1007200089859A8501979A87898789859A85892BF2
:1007300069F714C06D817E818F8198850E940D1CA0
:10074000DC01CB019A87898789859A859E878D8769
:100750008D859E850197F1F79E878D87CE010F9637
:1007600064ED0E94E009882309F086CF68960FB6F1
:10077000F894DEBF0FBECDBFDF91CF910895CF9328
:10078000DF93CDB7DEB72E970FB6F894DEBF0FBE5E
:10079000CDBF8AE290E02AE230E0F9012081237F98
:1007A000FC01208388EC90E0FC01108289EC90E051
:1007B00028E1FC0120838AEC90E026E0FC01208304
:1007C0008DEC90E0FC0110828CEC90E025E0FC01C7
:1007D000208380E090E0A8ECB2E489839A83AB8325
:1007E000BC8320E030E44CE155E469817A818B815F
:1007F0009C810E94F31CDC01CB018D839E83AF831F
:10080000B88720E030E040E85FE36D817E818F8132
:1008100098850E94961B88232CF481E090E09A87AB
:1008200089873FC020E03FEF4FE757E46D817E812D
:100830008F8198850E94EE1C18164CF520E030E060
:1008400040E251E469817A818B819C810E94F31C92
:10085000DC01CB01BC01CD010E940D1CDC01CB01F0
:100860009A8789870FC08AEF90E09C878B878B855A
:100870009C850197F1F79C878B8789859A850197DD
:100880009A87898789859A85892B69F714C06D8134
:100890007E818F8198850E940D1CDC01CB019A8797
:1008A000898789859A859E878D878D859E85019705
:1008B000F1F79E878D872E960FB6F894DEBF0FBE98
:1008C000CDBFDF91CF910895CF93DF931F92CDB726
:1008D000DEB78983000088EC90E0FC018081882FDE
:1008E00090E080729927892BB1F38EEC90E02981FA
:1008F000FC0120830F90DF91CF910895CF93DF9378
:10090000CDB7DEB7000088EC90E0FC018081882341
:10091000D4F78EEC90E0FC018081DF91CF910895B7
:10092000CF93DF93CDB7DEB727970FB6F894DEBF2E
:100930000FBECDBF27E0CE010196FC01322F1192F0
:100940003A95E9F70E947E0489830E947E048A8397
:100950000E947E048B830E947E048C830E947E040E
:100960008D830E947E048E8327960FB6F894DEBF97
:100970000FBECDBFDF91CF910895CF93DF93CDB759
:10098000DEB7000088EC90E0FC018081882F90E0C9
:1009900080749927892BB1F389EC90E029EC30E041
:1009A000F9012081277FFC01208388EC90E028EC6E
:1009B00030E0F90120812064FC012083DF91CF9198
:1009C0000895CF93DF93CDB7DEB789EC90E029ECA3
:1009D00030E0F90120812860FC012083DF91CF9174
:1009E0000895CF93DF93CDB7DEB789EC90E029EC83
:1009F00030E0F90120812F7EFC012083DF91CF912F
:100A00000895CF93DF93CDB7DEB789EC90E029EC62
:100A100030E0F90120812061FC012083DF91CF913A
:100A20000895CF93DF93CDB7DEB76A970FB6F894EA
:100A3000DEBF0FBECDBF9E8B8D8B788F6F8B498FA6
:100A40002A8F8D899E89CC01A0E0B0E0BC01CD0148
:100A50000E943C1CDC01CB0120E030E046E953E47D
:100A6000BC01CD010E949B1BDC01CB0120E030ECDE
:100A70004FE754E4BC01CD010E94F31CDC01CB0123
:100A8000BC01CD010E940D1CDC01CB019E8B8D8B26
:100A90008D899E89892F992789838D898A83898D5C
:100AA000882F90E0982F8827990F990F9C018F89A4
:100AB000988D822B932B988F8F8B8F89988D892F70
:100AC00099278B838F898C838A8D882F90E09C0156
:100AD000285D3F4F8B81882F90E0280F391F8C8134
:100AE000882F90E0280F391F8981882F90E0280FE8
:100AF000391F8A81882F90E0820F931F80959095EF
:100B00009E838D830E94F1048FEF0E9464048FEF17
:100B10000E9464048A8D0E94640487E00E94640439
:100B200083E00E9464048EE10E9464048A810E9432
:100B3000640489810E9464048C810E9464048B8116
:100B40000E9464048D810E9464040E94BD040E947E
:100B5000010580E090E0A8E4B2E48F839887A9873C
:100B6000BA8720E030E44CE155E46F8178858985CF
:100B70009A850E94F31CDC01CB018B879C87AD8793
:100B8000BE8720E030E040E85FE36B857C858D85A3
:100B90009E850E94961B88232CF481E090E0988B20
:100BA0008F873FC020E03FEF4FE757E46B857C85A0
:100BB0008D859E850E94EE1C18164CF520E030E0D5
:100BC00040E251E46F81788589859A850E94F31C03
:100BD000DC01CB01BC01CD010E940D1CDC01CB016D
:100BE000988B8F870FC08AEF90E09A8B898B8989C9
:100BF0009A890197F1F79A8B898B8F85988901974C
:100C0000988B8F878F859889892B69F714C06B859E
:100C10007C858D859E850E940D1CDC01CB01988B07
:100C20008F878F8598899C8B8B8B8B899C8901976B
:100C3000F1F79C8B8B8B0E94E1046A960FB6F894B7
:100C4000DEBF0FBECDBFDF91CF910895CF93DF936D
:100C5000CDB7DEB760970FB6F894DEBF0FBECDBF3D
:100C60008CEE9FEF9A8389830E94F1048FEF0E949C
:100C700064048FEF0E94640481E00E94640487E0B2
:100C80000E94640483E00E94640486E00E9464047D
:100C900080E00E94640480E00E9464048FEF0E9460
:100CA000640483E00E94640489810E9464040E94B9
:100CB000BD040E94010580E090E0A8E4B2E48B83CB
:100CC0009C83AD83BE8320E030E44CE155E46B812E
:100CD0007C818D819E810E94F31CDC01CB018F837E
:100CE0009887A987BA8720E030E040E85FE36F810A
:100CF000788589859A850E94961B88232CF481E04B
:100D000090E09C878B873FC020E03FEF4FE757E4A0
:100D10006F81788589859A850E94EE1C18164CF59E
:100D200020E030E040E251E46B817C818D819E8146
:100D30000E94F31CDC01CB01BC01CD010E940D1C03
:100D4000DC01CB019C878B870FC08AEF90E09E87E8
:100D50008D878D859E850197F1F79E878D878B8581
:100D60009C8501979C878B878B859C85892B69F750
:100D700014C06F81788589859A850E940D1CDC01DD
:100D8000CB019C878B878B859C85988B8F878F85E4
:100D900098890197F1F7988B8F870E94E1046096FC
:100DA0000FB6F894DEBF0FBECDBFDF91CF9108958F
:100DB000CF93DF93CDB7DEB728970FB6F894DEBF99
:100DC0000FBECDBF9E838D8378876F831A82198271
:100DD0001C821B828F8198859A8389838D819E8155
:100DE000982F8827990F990F29813A81822B932B6D
:100DF0009A83898389819A818996809590959C832D
:100E00008B830E94F1048FEF0E9464048FEF0E9495
:100E1000640481E00E94640485E00E94640483E02D
:100E20000E94640480E20E94640489810E94640438
:100E300089819A81892F99270E9464048B810E945D
:100E400064040E94BD040E9401050E9490040E9457
:100E5000E10428960FB6F894DEBF0FBECDBFDF9138
:100E6000CF9108951F920F9200905F000F9211246E
:100E700000905B000F922F933F934F935F938F935C
:100E80009F93EF93FF93CF93DF9300D000D0CDB724
:100E9000DEB78DEE90E0FC0180818B831982A4C0C7
:100EA0008DEE90E029812295207FFC0120838EEE3B
:100EB00090E0FC018081829586958770882F90E074
:100EC00081709927892B09F470C08FEE90E020E89B
:100ED000FC0120838EEE90E02EEE30E0F9012081BF
:100EE0002F7DFC01208382EF90E0FC0180818295C0
:100EF00086958770282F83EF90E0FC018081882FF2
:100F000090E0880F991F880F991F880F991F822BD7
:100F10008C831A8226C08C81882F90E08150904863
:100F2000880F991F825E9E4FFC01208131818C8148
:100F3000882F90E001978E5C9E4FFC018081482FA6
:100F400050E08A81882F90E0840F951F820F931FB5
:100F50002AEF30E0F9012081FC0120838A818F5F34
:100F60008A838A818830B8F28C81882F90E001973B
:100F70008E5C9E4FFC0120812F5FFC012083253079
:100F800041F48C81882F90E001978E5C9E4FFC018C
:100F900010828C81882F90E001978A5B9E4FFC0124
:100FA00020812F5FFC01208323C08EEE90E0FC01A6
:100FB00080818295869586958370882F90E08170D8
:100FC0009927892B71F08FEE90E0FC0110828EEE54
:100FD00090E02EEE30E0F90120812F7BFC01208390
:100FE00007C089818F5F898389818F3008F458CF4A
:100FF0008DEE90E02B81FC0120830F900F900F90DD
:101000000F90DF91CF91FF91EF919F918F915F9121
:101010004F913F912F910F9000925B000F900092A3
:101020005F000F901F901895CF93DF9300D0CDB73E
:10103000DEB788ED90E021E0FC01208319823EC0FC
:101040008DEE90E029812295207FFC0120838EEE99
:1010500090E0FC0110828FEE90E0FC01108283EFA3
:1010600090E0FC01108282EF90E0FC01108281EFA1
:1010700090E0FC01108280EF90E0FC01108287EF8D
:1010800090E0FC01108286EF90E0FC01108285EF79
:1010900090E0FC01108284EF90E0FC0110821A8243
:1010A00007C08AEF90E0FC0110828A818F5F8A83FB
:1010B0008A818830B0F389818F5F898389818F30FD
:1010C00008F4BECF88ED90E022E0FC01208382EEA0
:1010D00090E021E0FC01208383EE90E028E0FC0119
:1010E000208384EE90E02EE5FC01208385EE90E0E5
:1010F000FC0110828BED90E020EBFC0120838FED52
:1011000090E02FE7FC0120838EED90E02FEFFC01B3
:10111000208378940F900F90DF91CF910895CF9313
:10112000DF9300D000D0CDB7DEB79C838B838DEEEC
:1011300090E0FC0180818A83000089ED90E0FC0151
:10114000808182958F70882F90E081709927892BFC
:10115000A1F789ED90E0FC018081869586958695C2
:10116000882F90E081709927892B39F7198249C01F
:101170008DEE90E029812295207FFC0120838FEE67
:1011800090E0FC0180818295869586958370882306
:1011900021F089818F5F898334C08FEE90E02FE04A
:1011A000FC01208383EF90E02B813C81332736952F
:1011B00027953695279536952795FC01208382EF54
:1011C00090E02B812295220F207EFC01208386EF68
:1011D00090E020EEFC01208387EF90E02FEFFC01F0
:1011E00020838FEE90E02FEE30E0F901208120681F
:1011F000FC0120838DEE90E02A81FC01208381E0B8
:101200000AC089818F3008F4B3CF8DEE90E02A8137
:10121000FC01208380E00F900F900F900F90DF91E2
:10122000CF9108950F931F93CF93DF9300D0CDB745
:10123000DEB78A830E941408198230C08981882F02
:1012400090E001960E948F088981882F90E0880F96
:10125000991F8C01025E1E4F61E070E085E090E016
:101260000E94601DF801918380838981882F90E01E
:101270002981222F30E04981442F50E060E04A5B11
:101280005E4FFA016083245C3E4FF90160838E5CFF
:101290009E4FFC01608389818F5F898399818A8158
:1012A000981760F20F900F90DF91CF911F910F91DF
:1012B0000895CF93DF931F92CDB7DEB789838981DD
:1012C000882F90E001978A5B9E4FFC0180810F90F0
:1012D000DF91CF910895CF93DF9300D000D0CDB7A9
:1012E000DEB79B838A836C8384E390E02FEFFC015D
:1012F000208300008C81882F90E001978A5B9E4FAD
:10130000FC0180818823B1F319822CC08981882F48
:1013100090E02A813B81820F931F2C81222F30E0A5
:1013200021503048220F331F225E3E4FF901408189
:1013300051812C81222F30E021503109245C3E4F15
:10134000F9012081622F70E02981222F30E0260FE1
:10135000371F240F351FF9012081FC01208389816B
:101360008F5F89838981883088F28C81882F90E013
:101370000197845C9E4FFC0120812F5FFC0120833C
:10138000253041F48C81882F90E00197845C9E4F3A
:10139000FC0110828C81882F90E001979C012A5BD0
:1013A0003E4FF901208121508A5B9E4FFC01208332
:1013B00080E00F900F900F900F90DF91CF910895E4
:1013C000CF93DF9300D000D000D0CDB7DEB79D83A0
:1013D0008C836E83000089ED90E0FC018081829512
:1013E0008F70882F90E081709927892BA1F789ED64
:1013F00090E0FC018081869586958695882F90E007
:1014000081709927892B39F78DEE90E0FC0180815E
:101410008B831A8215C08DEE90E02A812295207F61
:10142000FC0120838FEE90E0FC01808182958695FF
:1014300086958370882309F406C08A818F5F8A832A
:101440008A818F3040F38A818F3011F48FEF39C059
:1014500082EF90E02E812295220F207EFC012083D6
:1014600083EF90E02E81269526952695FC0120831A
:101470008FEE90E028E0FC012083198210C08AEFF3
:1014800090E02981222F30E04C815D81240F351FAF
:10149000F9012081FC01208389818F5F8983898103
:1014A000883068F38FEE90E02FEE30E0F901208174
:1014B0002064FC0120838DEE90E02B81FC012083D1
:1014C00080E026960FB6F894DEBF0FBECDBFDF9149
:1014D000CF910895CF93DF9300D000D000D0CDB747
:1014E000DEB79A8389837C836B835E834D838D8192
:1014F0009E8129813A81FC013183208389819A81EF
:101500002D813E81FC013383228389819A812B8145
:101510003C81FC01318320838B819C8129813A812C
:10152000FC013383228326960FB6F894DEBF0FBEEC
:10153000CDBFDF91CF910895CF93DF9300D000D03E
:10154000CDB7DEB79A8389837C836B838B819C8143
:10155000FC01428153812B813C8189819A81B901AF
:101560000E946A0A0F900F900F900F90DF91CF9119
:101570000895CF93DF93CDB7DEB72B970FB6F894CE
:10158000DEBF0FBECDBF89876A874B878091080178
:10159000909109019C838B838B819C8106979A8310
:1015A000898315C089819A81FC019081898598176A
:1015B00011F481E0E5C089819A81FC0180859185E3
:1015C0009E838D838D819E8106979A8389838981ED
:1015D0009A8106968650914029F789858695869549
:1015E00086958F5F8F838985877088878A8581300C
:1015F00009F055C08F81882F90E09C01215031095E
:10160000C901880F991F820F931F8196AC018F81AA
:10161000882F90E09C0121503109C901880F991F42
:10162000820F931F8196FC018081682F8885282F67
:1016300030E081E090E002C0880F991F2A95E2F720
:10164000862BFA0180838F81882F90E09C012150A6
:101650003109C901880F991F820F931F8296AC012F
:101660008F81882F90E09C0121503109C901880F9A
:10167000991F820F931F8296FC018081682F8885B5
:10168000282F30E081E090E002C0880F991F2A9552
:10169000E2F780958623FA01808380E071C08F8114
:1016A000882F90E09C0121503109C901880F991FB2
:1016B000820F931F8196AC018F81882F90E09C014F
:1016C00021503109C901880F991F820F931F8196FC
:1016D000FC018081682F8885282F30E081E090E030
:1016E00002C0880F991F2A95E2F780958623FA0198
:1016F00080838F81882F90E09C0121503109C9019E
:10170000880F991F820F931F8296AC018F81882FBB
:1017100090E09C0121503109C901880F991F820F67
:10172000931F8296FC018081682F8885282F30E0E6
:1017300081E090E002C0880F991F2A95E2F7862B7E
:10174000FA0180838AE090E00E947C1D9A8389835D
:1017500089819A81892B11F481E012C089819A8153
:101760002985FC01208389819A812B85FC012183B5
:1017700089819A81069666E071E00E949C0A80E069
:101780002B960FB6F894DEBF0FBECDBFDF91CF9181
:101790000895CF93DF9300D000D0CDB7DEB78B8311
:1017A0006C838B818695869586958F5F89838B81E7
:1017B00087708B838981882F90E09C0121503109AB
:1017C000C901880F991F820F931F8296FC018081A7
:1017D0009181A281B3818A838C81882331F18981AF
:1017E000882F90E09C0121503109C901880F991F71
:1017F000820F931F8296AC018A81282F30E08B8163
:10180000682F70E081E090E002C0880F991F6A9510
:10181000E2F7822B932B092E000CAA0BBB0BFA01CB
:1018200080839183A283B38327C08981882F90E02E
:101830009C0121503109C901880F991F820F931F04
:101840008296AC018A81282F30E08B81682F70E06E
:1018500081E090E002C0880F991F6A95E2F78095B9
:10186000909582239323092E000CAA0BBB0BFA013F
:1018700080839183A283B38380E00F900F900F90B9
:101880000F90DF91CF910895CF93DF9300D01F92F7
:10189000CDB7DEB78B838B818695869586958F5FD6
:1018A00089838B8187708B838981882F90E09C014D
:1018B00021503109C901880F991F820F931F80960B
:1018C000FC0180818A838A81882F90E02B81222FDE
:1018D00030E002C0959587952A95E2F781700F90C8
:1018E0000F900F90DF91CF910895CF93DF93CDB7F5
:1018F000DEB729970FB6F894DEBF0FBECDBF89873C
:1019000080910801909109019D838C838C819D8138
:1019100006979A83898355C089819A81FC019081B9
:101920008985981709F041C01B821FC08B81882FC1
:1019300090E029813A81820F931F0296FC01408139
:101940008B81882F90E0019629813A81820F931F25
:101950000296FC018081481729F089819A81FC0157
:10196000858137C08B818F5F8B838B818230F0F2D2
:1019700089819A81FC01918181E08927882329F05E
:1019800089819A81FC01828108C089819A81FC0148
:10199000928181E0992309F080E0888789819A818A
:1019A0002885FC012583888514C089819A81FC01E2
:1019B000808591859F838E838E819F8106979A83F0
:1019C000898389819A8106968650914009F0A4CF37
:1019D00081E029960FB6F894DEBF0FBECDBFDF9130
:1019E000CF9108950F931F93CF93DF9300D000D032
:1019F00000D0CDB7DEB780910801909109019C839A
:101A00008B838B819C8106979A8389831EC000916A
:101A100052011091530189819A81FC0180810E94B9
:101A2000440C282F89819A81800F911F0296FC0116
:101A3000208389819A81FC01808591859E838D8395
:101A40008D819E8106979A83898389819A810696E2
:101A500086509140E1F68091520190915301019698
:101A60009093530180935201039721F410925301F4
:101A70001092520126960FB6F894DEBF0FBECDBF6E
:101A8000DF91CF911F910F910895CF93DF93CDB741
:101A9000DEB767970FB6F894DEBF0FBECDBF8F8B52
:101AA000809154019F89981709F482C086E58F8739
:101AB0008F89888B72C080E090E0A8E4B2E48983CB
:101AC0009A83AB83BC8320E030E44CE155E4698128
:101AD0007A818B819C810E94F31CDC01CB018D8378
:101AE0009E83AF83B88720E030E040E85FE36D81FC
:101AF0007E818F8198850E94961B88232CF481E03B
:101B000090E09A8789873FC020E03FEF4FE757E496
:101B10006D817E818F8198850E94EE1C18164CF590
:101B200020E030E040E251E469817A818B819C8140
:101B30000E94F31CDC01CB01BC01CD010E940D1CF5
:101B4000DC01CB019A8789870FC08AEF90E09C87E0
:101B50008B878B859C850197F1F79C878B8789857F
:101B60009A8501979A87898789859A85892B69F74C
:101B700014C06D817E818F8198850E940D1CDC01CF
:101B8000CB019A87898789859A859E878D878D85E0
:101B90009E850197F1F79E878D87CE010F9663ECA6
:101BA0000E94E009882309F086CF8F898093540131
:101BB00067960FB6F894DEBF0FBECDBFDF91CF9111
:101BC0000895CF93DF93CDB7DEB766970FB6F8943D
:101BD000DEBF0FBECDBF80E58F8772C080E090E092
:101BE000A8E4B2E489839A83AB83BC8320E030E429
:101BF0004CE155E469817A818B819C810E94F31CC0
:101C0000DC01CB018D839E83AF83B88720E030E079
:101C100040E85FE36D817E818F8198850E94961BED
:101C200088232CF481E090E09A8789873FC020E0E8
:101C30003FEF4FE757E46D817E818F8198850E9449
:101C4000EE1C18164CF520E030E040E251E46981CA
:101C50007A818B819C810E94F31CDC01CB01BC0149
:101C6000CD010E940D1CDC01CB019A8789870FC032
:101C70008AEF90E09C878B878B859C850197F1F795
:101C80009C878B8789859A8501979A87898789851B
:101C90009A85892B69F714C06D817E818F81988523
:101CA0000E940D1CDC01CB019A87898789859A8562
:101CB0009E878D878D859E850197F1F79E878D87FD
:101CC000CE010F9663EC0E94E009882309F086CFCD
:101CD000CE010F9661E00E946B098F858093100101
:101CE0008889882F90E0382F22278989882F90E0D3
:101CF000822B932B90930B0180930A018A89882F62
:101D000090E0382F22278B89882F90E0822B932B0D
:101D100090930D0180930C018C89882F90E0382FCF
:101D200022278D89882F90E0822B932B90930F018F
:101D300080930E0166960FB6F894DEBF0FBECDBF3E
:101D4000DF91CF910895CF93DF9300D000D000D0E2
:101D5000CDB7DEB79E838D830E945815DC01CB0181
:101D600089839A83AB83BC830E94E10D8D819E8120
:101D7000892B71F089819A81AB81BC812D813E8153
:101D8000BC01CD01F9010995813011F481E009C050
:101D9000809110018D3441F380911001823521F33F
:101DA00080E026960FB6F894DEBF0FBECDBFDF9160
:101DB000CF910895CF93DF93CDB7DEB767970FB676
:101DC000F894DEBF0FBECDBF8F8B8F898F8772C017
:101DD00080E090E0A8E4B2E489839A83AB83BC837B
:101DE00020E030E44CE155E469817A818B819C816B
:101DF0000E94F31CDC01CB018D839E83AF83B887E7
:101E000020E030E040E85FE36D817E818F8198853E
:101E10000E94961B88232CF481E090E09A878987A2
:101E20003FC020E03FEF4FE757E46D817E818F8117
:101E300098850E94EE1C18164CF520E030E040E238
:101E400051E469817A818B819C810E94F31CDC01C1
:101E5000CB01BC01CD010E940D1CDC01CB019A8796
:101E600089870FC08AEF90E09C878B878B859C8544
:101E70000197F1F79C878B8789859A8501979A87C7
:101E8000898789859A85892B69F714C06D817E8140
:101E90008F8198850E940D1CDC01CB019A87898770
:101EA00089859A859E878D878D859E850197F1F717
:101EB0009E878D87CE010F9663EC0E94E0098823F0
:101EC00009F086CF0E94E10D809110018D3409F454
:101ED0007CCF80911001823509F477CF67960FB6D9
:101EE000F894DEBF0FBECDBFDF91CF910895CF93A1
:101EF000DF93CDB7DEB76B970FB6F894DEBF0FBE9A
:101F0000CDBF988F8F8B698F5B8F4A8F898D0E9491
:101F1000450D84E48F878F89988D892F990F990BB0
:101F2000888B8F89898B72C080E090E0A8E4B2E44E
:101F300089839A83AB83BC8320E030E44CE155E491
:101F400069817A818B819C810E94F31CDC01CB0129
:101F50008D839E83AF83B88720E030E040E85FE365
:101F60006D817E818F8198850E94961B88232CF439
:101F700081E090E09A8789873FC020E03FEF4FE7FC
:101F800057E46D817E818F8198850E94EE1C181622
:101F90004CF520E030E040E251E469817A818B81A8
:101FA0009C810E94F31CDC01CB01BC01CD010E948D
:101FB0000D1CDC01CB019A8789870FC08AEF90E066
:101FC0009C878B878B859C850197F1F79C878B87F6
:101FD00089859A8501979A87898789859A85892B2A
:101FE00069F714C06D817E818F8198850E940D1CD8
:101FF000DC01CB019A87898789859A859E878D87A1
:102000008D859E850197F1F79E878D87CE010F966E
:1020100063EC0E94E009882309F086CF8A8D9B8DAE
:102020000E94A30E6B960FB6F894DEBF0FBECDBF15
:10203000DF91CF910895CF93DF93CDB7DEB76C9743
:102040000FB6F894DEBF0FBECDBF988F8F8B698F10
:102050004A8F3C8F2B8F898D0E94450D87E48F8797
:102060008F89988DFC0180819181892F990F990B1F
:10207000888B8F89988DFC0180819181898B8F89D4
:10208000988DFC0182819381892F990F990B8A8BFE
:102090008F89988DFC01828193818B8B1C8A8A8D1C
:1020A0008D8B72C080E090E0A8E4B2E489839A83CB
:1020B000AB83BC8320E030E44CE155E469817A8154
:1020C0008B819C810E94F31CDC01CB018D839E835C
:1020D000AF83B88720E030E040E85FE36D817E8128
:1020E0008F8198850E94961B88232CF481E090E0D4
:1020F0009A8789873FC020E03FEF4FE757E46D8123
:102100007E818F8198850E94EE1C18164CF520E088
:1021100030E040E251E469817A818B819C810E94A8
:10212000F31CDC01CB01BC01CD010E940D1CDC01C4
:10213000CB019A8789870FC08AEF90E09C878B87B5
:102140008B859C850197F1F79C878B8789859A857C
:1021500001979A87898789859A85892B69F714C0A1
:102160006D817E818F8198850E940D1CDC01CB01E1
:102170009A87898789859A859E878D878D859E8593
:102180000197F1F79E878D87CE010F9663EC0E9431
:10219000E009882309F086CF8B8D9C8D0E94A30EC9
:1021A0006C960FB6F894DEBF0FBECDBFDF91CF9116
:1021B0000895CF93DF93CDB7DEB768970FB6F89445
:1021C000DEBF0FBECDBF988F8F8B89E48F878F893D
:1021D000988DFC0180819181892F990F990B888BB3
:1021E0008F89988DFC0180819181898B8F89988D51
:1021F000FC0182819381892F990F990B8A8B8F899A
:10220000988DFC01828193818B8B8F89988DFC0145
:1022100084819581892F990F990B8C8B8F89988D4B
:10222000FC01848195818D8B8F89988DFC01808143
:10223000918190930B0180930A018F89988DFC0105
:102240008281938190930D0180930C018F89988DE9
:10225000FC018481958190930F0180930E0172C0DF
:1022600080E090E0A8E4B2E489839A83AB83BC83E6
:1022700020E030E44CE155E469817A818B819C81D6
:102280000E94F31CDC01CB018D839E83AF83B88752
:1022900020E030E040E85FE36D817E818F819885AA
:1022A0000E94961B88232CF481E090E09A8789870E
:1022B0003FC020E03FEF4FE757E46D817E818F8183
:1022C00098850E94EE1C18164CF520E030E040E2A4
:1022D00051E469817A818B819C810E94F31CDC012D
:1022E000CB01BC01CD010E940D1CDC01CB019A8702
:1022F00089870FC08AEF90E09C878B878B859C85B0
:102300000197F1F79C878B8789859A8501979A8732
:10231000898789859A85892B69F714C06D817E81AB
:102320008F8198850E940D1CDC01CB019A878987DB
:1023300089859A859E878D878D859E850197F1F782
:102340009E878D87CE010F9663EC0E94E00988235B
:1023500009F086CF68960FB6F894DEBF0FBECDBFEA
:10236000DF91CF910895CF93DF93CDB7DEB76B9711
:102370000FB6F894DEBF0FBECDBF988F8F8B698FDD
:102380005B8F4A8F898D0E94450D84E58F878F89E9
:10239000988D892F9927888B8F89898B72C080E0CF
:1023A00090E0A8E4B2E489839A83AB83BC8320E005
:1023B00030E44CE155E469817A818B819C810E94F3
:1023C000F31CDC01CB018D839E83AF83B88720E0B3
:1023D00030E040E85FE36D817E818F8198850E94C7
:1023E000961B88232CF481E090E09A8789873FC070
:1023F00020E03FEF4FE757E46D817E818F81988524
:102400000E94EE1C18164CF520E030E040E251E44A
:1024100069817A818B819C810E94F31CDC01CB0154
:10242000BC01CD010E940D1CDC01CB019A8789877C
:102430000FC08AEF90E09C878B878B859C850197E6
:10244000F1F79C878B8789859A8501979A87898779
:1024500089859A85892B69F714C06D817E818F816A
:1024600098850E940D1CDC01CB019A87898789859C
:102470009A859E878D878D859E850197F1F79E872A
:102480008D87CE010F9663EC0E94E009882309F046
:1024900086CF8A8D9B8D0E94A30E6B960FB6F89403
:1024A000DEBF0FBECDBFDF91CF910895CF93DF93F5
:1024B000CDB7DEB76B970FB6F894DEBF0FBECDBFBA
:1024C000988F8F8B698F5B8F4A8F898D0E94450D06
:1024D00081E48F878F89988D892F9927888B8F89A1
:1024E000898B72C080E090E0A8E4B2E489839A838B
:1024F000AB83BC8320E030E44CE155E469817A8110
:102500008B819C810E94F31CDC01CB018D839E8317
:10251000AF83B88720E030E040E85FE36D817E81E3
:102520008F8198850E94961B88232CF481E090E08F
:102530009A8789873FC020E03FEF4FE757E46D81DE
:102540007E818F8198850E94EE1C18164CF520E044
:1025500030E040E251E469817A818B819C810E9464
:10256000F31CDC01CB01BC01CD010E940D1CDC0180
:10257000CB019A8789870FC08AEF90E09C878B8771
:102580008B859C850197F1F79C878B8789859A8538
:1025900001979A87898789859A85892B69F714C05D
:1025A0006D817E818F8198850E940D1CDC01CB019D
:1025B0009A87898789859A859E878D878D859E854F
:1025C0000197F1F79E878D87CE010F9663EC0E94ED
:1025D000E009882309F086CF8A8D9B8D0E94A30E87
:1025E0006B960FB6F894DEBF0FBECDBFDF91CF91D3
:1025F0000895EF92FF920F93CF93DF93CDB7DEB79D
:102600006F970FB6F894DEBF0FBECDBF988F8F8B3C
:102610007A8F698F4B8F2C8F0D8FFF8EEE8E8D8D65
:102620000E94450D81E58F878F89988D892F992785
:10263000888B8F89898B898D9A8D892F99278A8B91
:10264000898D8B8B8B8D082E000C990B892F990F00
:10265000990B8C8B8B8D8D8B8C8D8E8B72C080E0CB
:1026600090E0A8E4B2E489839A83AB83BC8320E042
:1026700030E44CE155E469817A818B819C810E9430
:10268000F31CDC01CB018D839E83AF83B88720E0F0
:1026900030E040E85FE36D817E818F8198850E9404
:1026A000961B88232CF481E090E09A8789873FC0AD
:1026B00020E03FEF4FE757E46D817E818F81988561
:1026C0000E94EE1C18164CF520E030E040E251E488
:1026D00069817A818B819C810E94F31CDC01CB0192
:1026E000BC01CD010E940D1CDC01CB019A878987BA
:1026F0000FC08AEF90E09C878B878B859C85019724
:10270000F1F79C878B8789859A8501979A878987B6
:1027100089859A85892B69F714C06D817E818F81A7
:1027200098850E940D1CDC01CB019A8789878985D9
:102730009A859E878D878D859E850197F1F79E8767
:102740008D87CE010F9663EC0E94E009882309F083
:1027500086CF8E8D9F8D0E94A30E6F960FB6F89434
:10276000DEBF0FBECDBFDF91CF910F91FF90EF90F5
:102770000895CF93DF93CDB7DEB766970FB6F89481
:10278000DEBF0FBECDBF8BE48F8772C080E090E0CC
:10279000A8E4B2E489839A83AB83BC8320E030E46D
:1027A0004CE155E469817A818B819C810E94F31C04
:1027B000DC01CB018D839E83AF83B88720E030E0BE
:1027C00040E85FE36D817E818F8198850E94961B32
:1027D00088232CF481E090E09A8789873FC020E02D
:1027E0003FEF4FE757E46D817E818F8198850E948E
:1027F000EE1C18164CF520E030E040E251E469810F
:102800007A818B819C810E94F31CDC01CB01BC018D
:10281000CD010E940D1CDC01CB019A8789870FC076
:102820008AEF90E09C878B878B859C850197F1F7D9
:102830009C878B8789859A8501979A87898789855F
:102840009A85892B69F714C06D817E818F81988567
:102850000E940D1CDC01CB019A87898789859A85A6
:102860009E878D878D859E850197F1F79E878D8741
:10287000CE010F9663EC0E94E009882309F086CF11
:1028800066960FB6F894DEBF0FBECDBFDF91CF9135
:102890000895CF93DF93CDB7DEB70E94E10D80910D
:1028A0001001DF91CF910895CF93DF93CDB7DEB7BD
:1028B0000E94E10D80910A0190910B01DF91CF916F
:1028C0000895CF93DF93CDB7DEB70E94E10D8091DD
:1028D0000C0190910D01DF91CF910895CF93DF937B
:1028E000CDB7DEB70E94E10D80910E0190910F01EE
:1028F000DF91CF910895CF93DF9300D0CDB7DEB7AE
:102900009A83898389819A8190935B0180935A018C
:102910000F900F90DF91CF9108950F931F93CF9356
:10292000DF9300D0CDB7DEB79A83898380E890E04B
:10293000FC01108281E890E029E0FC01208308E896
:1029400010E089819A81CC01A0E0B0E0BC01CD010A
:102950000E943C1CDC01CB019C01AD0160E876E9E2
:1029600088E19BE40E949B1BDC01CB0120E030E06E
:1029700040E05FE3BC01CD010E942A1BDC01CB01DA
:10298000BC01CD010E940D1CDC01CB01F80191833B
:1029900080838FE690E022E0FC0120838FE590E0C9
:1029A0002FE530E0F90120812068FC0120830F90A1
:1029B0000F90DF91CF911F910F9108951F920F9269
:1029C00000905F000F92112400905B000F922F93F4
:1029D0003F934F935F936F937F938F939F93AF93A7
:1029E000BF93EF93FF93CF93DF93CDB7DEB7809183
:1029F0005A0190915B01892B31F080915A0190919D
:102A00005B01FC0109958091550190915601A091BF
:102A10005701B091580180399F45A140B10528F078
:102A20000E946915882309F0FFCF8091550190918C
:102A30005601A0915701B09158010196A11DB11DF9
:102A40008093550190935601A0935701B09358017C
:102A5000DF91CF91FF91EF91BF91AF919F918F91B6
:102A60007F916F915F914F913F912F910F900092C5
:102A70005B000F9000925F000F901F901895CF930E
:102A8000DF93CDB7DEB71092550110925601109228
:102A9000570110925801DF91CF910895CF93DF93A2
:102AA000CDB7DEB781E080935901DF91CF910895D2
:102AB000CF93DF93CDB7DEB780915501909156014A
:102AC000A0915701B0915801BC01CD01DF91CF9188
:102AD0000895CF93DF93CDB7DEB780915901DF9191
:102AE000CF910895CF93DF93CDB7DEB72E970FB672
:102AF000F894DEBF0FBECDBF82EF9CE00E947B1436
:102B000080E090E0A8ECB2E489839A83AB83BC8335
:102B100020E030E44CE155E469817A818B819C812D
:102B20000E94F31CDC01CB018D839E83AF83B887A9
:102B300020E030E040E85FE36D817E818F81988501
:102B40000E94961B88232CF481E090E09A87898765
:102B50003FC020E03FEF4FE757E46D817E818F81DA
:102B600098850E94EE1C18164CF520E030E040E2FB
:102B700051E469817A818B819C810E94F31CDC0184
:102B8000CB01BC01CD010E940D1CDC01CB019A8759
:102B900089870FC08AEF90E09C878B878B859C8507
:102BA0000197F1F79C878B8789859A8501979A878A
:102BB000898789859A85892B69F714C06D817E8103
:102BC0008F8198850E940D1CDC01CB019A87898733
:102BD00089859A859E878D878D859E850197F1F7DA
:102BE0009E878D8781E00E9412090E943F150E94F6
:102BF0004E152E960FB6F894DEBF0FBECDBFDF91F7
:102C0000CF910895CF93DF93CDB7DEB727970FB657
:102C1000F894DEBF0FBECDBF6B837C838D839E8314
:102C20004F8380EC90E0FC01108281EC90E028E181
:102C3000FC01208382EC90E026E0FC0120838F8160
:102C4000813091F481EC90E021EC30E0F9012081B9
:102C5000206CFC0120838FE590E02FE530E0F90146
:102C600020812068FC0120836B817C818D819E8185
:102C70000E943C1CDC01CB0120E030E040E851E444
:102C8000BC01CD010E94F31CDC01CB019C01AD0114
:102C900060E876E988E19BE40E949B1BDC01CB01A4
:102CA00020E030E040E85FE3BC01CD010E94291B39
:102CB000DC01CB0120E030E040E05FE3BC01CD016E
:102CC0000E942A1BDC01CB01BC01CD010E940D1C1E
:102CD000DC01CB019A83898385EC90E029813A81DC
:102CE000232F3327FC01208384EC90E02981FC0111
:102CF000208327960FB6F894DEBF0FBECDBFDF91BD
:102D0000CF9108951F920F9200905F000F921124AF
:102D100000905B000F922F933F938F939F93EF93BD
:102D2000FF93CF93DF93CDB7DEB780919F018823C8
:102D3000D1F080919F01815080939F0186EC90E0BB
:102D40002091A001222F30E0225A3E4FF90120812C
:102D5000FC0120838091A0018F5F8093A0018034CB
:102D600011F41092A001DF91CF91FF91EF919F910B
:102D70008F913F912F910F9000925B000F900092E6
:102D80005F000F901F901895CF93DF931F92CDB7E0
:102D9000DEB7898381EC90E0FC0180818295869585
:102DA00086958370882F90E081709927892B99F1FF
:102DB000000080919F018034E1F3F89480919F019D
:102DC000882351F480EC90E0FC018081882F90E012
:102DD00080729927892BC1F480919E01882F90E001
:102DE000825A9E4F2981FC01208380919E018F5F32
:102DF00080939E01803411F410929E0180919F0176
:102E00008F5F80939F0105C086EC90E02981FC01D3
:102E10002083789403C089810E94B3180F90DF91BA
:102E2000CF9108951F920F9200905F000F9211248E
:102E300000905B000F922F933F938F939F93EF939C
:102E4000FF93CF93DF931F92CDB7DEB780EC90E076
:102E5000FC01808189838981882F90E08C7199277A
:102E6000892BD1F48091E101882F90E026EC30E0AD
:102E7000F90120818F559E4FFC0120838091E10153
:102E80008F5F8093E101803411F41092E101809111
:102E9000E2018F5F8093E2010F90DF91CF91FF916C
:102EA000EF919F918F913F912F910F9000925B0036
:102EB0000F9000925F000F901F901895CF93DF93B3
:102EC0001F92CDB7DEB781EC90E0FC018081881FB6
:102ED0008827881F882F90E081709927892BE9F037
:102EE00000008091E2018823E1F38091E301882FC3
:102EF00090E08F559E4FFC01808189838091E30192
:102F00008F5F8093E301803411F41092E30180918C
:102F1000E20181508093E20113C0000080EC90E058
:102F2000FC018081881F8827881F882F90E081708E
:102F30009927892B99F386EC90E0FC0180818983A5
:102F400089810F90DF91CF910895CF93DF93CDB713
:102F5000DEB727970FB6F894DEBF0FBECDBF6B83E9
:102F60007C838D839E834F8388EC90E0FC011082EC
:102F700089EC90E028E1FC0120838AEC90E02EE0CF
:102F8000FC0120838F81813091F489EC90E029EC61
:102F900030E0F9012081206CFC0120838FE590E076
:102FA0002FE530E0F90120812068FC0120836B814E
:102FB0007C818D819E810E943C1CDC01CB0120E044
:102FC00030E040E851E4BC01CD010E94F31CDC017B
:102FD000CB019C01AD0160E876E988E19BE40E94A9
:102FE0009B1BDC01CB0120E030E040E85FE3BC014B
:102FF000CD010E94291BDC01CB0120E030E040E044
:103000005FE3BC01CD010E942A1BDC01CB01BC01A6
:10301000CD010E940D1CDC01CB019A8389838DECCC
:1030200090E029813A81232F3327FC0120838CEC07
:1030300090E02981FC01208327960FB6F894DEBF2B
:103040000FBECDBFDF91CF9108951F920F920090D8
:103050005F000F92112400905B000F922F933F931B
:103060008F939F93EF93FF93CF93DF93CDB7DEB70B
:10307000809125028823D1F0809125028150809390
:1030800025028EEC90E020912602222F30E02C5178
:103090003E4FF9012081FC012083809126028F5F41
:1030A00080932602803411F410922602DF91CF9192
:1030B000FF91EF919F918F913F912F910F900092EF
:1030C0005B000F9000925F000F901F9018951F9269
:1030D0000F9200905F000F92112400905B000F92FE
:1030E0002F933F938F939F93EF93FF93CF93DF9310
:1030F0001F92CDB7DEB788EC90E0FC018081898318
:103100008981882F90E08C719927892BD1F4809147
:103110006702882F90E02EEC30E0F9012081895D74
:103120009D4FFC012083809167028F5F809367022F
:10313000803411F410926702809168028F5F80934F
:1031400068020F90DF91CF91FF91EF919F918F9146
:103150003F912F910F9000925B000F9000925F00C3
:103160000F901F901895CF93DF931F92CDB7DEB7C6
:103170008983000080EC90E0FC018081882F90E042
:1031800080729927892BB1F386EC90E02981FC01AC
:1031900020830F90DF91CF910895CF93DF931F92FB
:1031A000CDB7DEB78983000088EC90E0FC01808118
:1031B000882F90E080729927892BB1F38EEC90E0F4
:1031C0002981FC0120830F90DF91CF910895CF9347
:1031D000DF931F92CDB7DEB7898389EC90E0FC01C5
:1031E00080818295869586958370882F90E0817086
:1031F0009927892B99F10000809125028034E1F311
:10320000F89480912502882351F488EC90E0FC0129
:103210008081882F90E080729927892BC1F480915A
:103220002402882F90E08C519E4F2981FC0120833D
:10323000809124028F5F80932402803411F41092D5
:103240002402809125028F5F8093250205C08EECB9
:1032500090E02981FC012083789403C089810E9439
:10326000CD180F90DF91CF910895CF93DF931F92E8
:10327000CDB7DEB789EC90E0FC018081881F8827FC
:10328000881F882F90E081709927892BE9F0000032
:10329000809168028823E1F380916902882F90E091
:1032A000895D9D4FFC0180818983809169028F5FD8
:1032B00080936902803411F410926902809168024F
:1032C00081508093680213C0000088EC90E0FC01FC
:1032D0008081881F8827881F882F90E08170992718
:1032E000892B99F38EEC90E0FC01808189838981A0
:1032F0000F90DF91CF910895CF93DF9300D0CDB79A
:10330000DEB79A8389830BC089819A819C012F5FE4
:103310003F4F3A832983FC0180810E94CD18898127
:103320009A81FC018081882379F70F900F90DF91BB
:10333000CF910895CF93DF93CDB7DEB72E970FB619
:10334000F894DEBF0FBECDBF72C080E090E0A8EC65
:10335000B2E489839A83AB83BC8320E030E44CE100
:1033600055E469817A818B819C810E94F31CDC0188
:10337000CB018D839E83AF83B88720E030E040E8A7
:103380005FE36D817E818F8198850E94961B8823E3
:103390002CF481E090E09A8789873FC020E03FEFDE
:1033A0004FE757E46D817E818F8198850E94EE1CE6
:1033B00018164CF520E030E040E251E469817A8152
:1033C0008B819C810E94F31CDC01CB01BC01CD01EF
:1033D0000E940D1CDC01CB019A8789870FC08AEF00
:1033E00090E09C878B878B859C850197F1F79C8764
:1033F0008B8789859A8501979A87898789859A8598
:10340000892B69F714C06D817E818F8198850E9418
:103410000D1CDC01CB019A87898789859A859E8757
:103420008D878D859E850197F1F79E878D8720E09A
:1034300030E060E070E0CB01F9010995813009F4DA
:1034400084CF80916A0280936B0281E080931101A6
:103450002E960FB6F894DEBF0FBECDBFDF91CF9191
:103460000895CF93DF93CDB7DEB765970FB6F89485
:10347000DEBF0FBECDBF8EE190E0988B8F871A8A9A
:10348000198A1C8A1B8ACE010F960E94D91080913E
:103490001101882F90E08130910509F47EC08335B9
:1034A000910509F0C7C080E090E0AAE7B4E4898301
:1034B0009A83AB83BC8320E030E44CE155E469811E
:1034C0007A818B819C810E94F31CDC01CB018D836E
:1034D0009E83AF83B88720E030E040E85FE36D81F2
:1034E0007E818F8198850E94961B88232CF481E031
:1034F00090E09A8789873FC020E03FEF4FE757E48D
:103500006D817E818F8198850E94EE1C18164CF586
:1035100020E030E040E251E469817A818B819C8136
:103520000E94F31CDC01CB01BC01CD010E940D1CEB
:10353000DC01CB019A8789870FC08AEF90E09C87D6
:103540008B878B859C850197F1F79C878B87898575
:103550009A8501979A87898789859A85892B69F742
:1035600014C06D817E818F8198850E940D1CDC01C5
:10357000CB019A87898789859A859E878D878D85D6
:103580009E850197F1F79E878D8781E080931101D9
:1035900080916A0280936B024EC080916B0280938F
:1035A0006A0242C040E050E080916A02282F30E079
:1035B0006BE0629FC001639F900D1124865E9E4F59
:1035C000DC01EC9180916A02282F30E06BE0629F71
:1035D000C001639F900D1124875E9E4FDC017C919A
:1035E00080916A02282F30E06BE0629FC001639FE8
:1035F000900D11248E5E9E4F9A014E2F672F0E94D0
:103600001B1080936F0280916F02813019F4109229
:10361000110111C080916A02882309F4FFCF8091C3
:103620006A028F5F80936A0280916A02882309F49C
:10363000B9CF01C000002BCFCF93DF93CDB7DEB75A
:103640000E9472150E94311A80E090E0DF91CF91C4
:1036500008955058BB27AA270E94411B0C94B41C04
:103660000E94A61C38F00E94AD1C20F039F49F3F48
:1036700019F426F40C94A31C0EF4E095E7FB0C94CB
:103680009D1CE92F0E94C51C58F3BA1762077307E7
:103690008407950720F079F4A6F50C94E71C0EF446
:1036A000E0950B2EBA2FA02D0B01B90190010C0152
:1036B000CA01A0011124FF27591B99F0593F50F46A
:1036C000503E68F11A16F040A22F232F342F4427C2
:1036D000585FF3CF469537952795A795F0405395BA
:1036E000C9F77EF41F16BA0B620B730B840BBAF08A
:1036F0009150A1F0FF0FBB1F661F771F881FC2F7F5
:103700000EC0BA0F621F731F841F48F48795779508
:103710006795B795F7959E3F08F0B0CF9395880FC2
:1037200008F09927EE0F9795879508950E94791CC8
:1037300008F481E008950E94AF1B0C94B41C0E9411
:10374000AD1C58F00E94A61C40F029F45F3F29F000
:103750000C949D1C51110C94E81C0C94A31C0E9409
:10376000C51C68F39923B1F3552391F3951B550BB1
:10377000BB27AA2762177307840738F09F5F5F4F44
:10378000220F331F441FAA1FA9F335D00E2E3AF083
:10379000E0E832D091505040E695001CCAF72BD09B
:1037A000FE2F29D0660F771F881FBB1F26173707EC
:1037B0004807AB07B0E809F0BB0B802DBF01FF271E
:1037C00093585F4F3AF09E3F510578F00C949D1C42
:1037D0000C94E81C5F3FE4F3983ED4F3869577950C
:1037E0006795B795F7959F5FC9F7880F911D9695D7
:1037F000879597F90895E1E0660F771F881FBB1F33
:10380000621773078407BA0720F0621B730B840BDF
:10381000BA0BEE1F88F7E09508950E94CD1C88F042
:103820009F5798F0B92F9927B751B0F0E1F0660F84
:10383000771F881F991F1AF0BA95C9F714C0B130C5
:1038400091F00E94E71CB1E008950C94E71C672FEB
:10385000782F8827B85F39F0B93FCCF386957795F4
:103860006795B395D9F73EF49095809570956195DD
:103870007F4F8F4F9F4F0895E89409C097FB3EF408
:1038800090958095709561957F4F8F4F9F4F9923AD
:10389000A9F0F92F96E9BB279395F695879577952B
:1038A0006795B795F111F8CFFAF4BB0F11F460FFEB
:1038B0001BC06F5F7F4F8F4F9F4F16C0882311F043
:1038C00096E911C0772321F09EE8872F762F05C057
:1038D000662371F096E8862F70E060E02AF09A95F2
:1038E000660F771F881FDAF7880F9695879597F9E7
:1038F0000895990F0008550FAA0BE0E8FEEF161681
:103900001706E807F907C0F012161306E407F507D3
:1039100098F0621B730B840B950B39F40A2661F047
:10392000232B242B252B21F408950A2609F4A140EA
:10393000A6958FEF811D811D089597F99F6780E8F7
:1039400070E060E008959FEF80EC089500240A94F1
:103950001616170618060906089500240A9412166A
:103960001306140605060895092E0394000C11F49D
:10397000882352F0BB0F40F4BF2B11F460FF04C04A
:103980006F5F7F4F8F4F9F4F089557FD9058440FA3
:10399000551F59F05F3F71F04795880F97FB991FAE
:1039A00061F09F3F79F0879508951216130614066B
:1039B000551FF2CF4695F1DF08C0161617061806F8
:1039C000991FF1CF86957105610508940895E894D3
:1039D000BB2766277727CB0197F908950E94791CAA
:1039E00008F48FEF08950E94061D0C94B41C0E94E9
:1039F000A61C38F00E94AD1C20F0952311F00C9409
:103A00009D1C0C94A31C11240C94E81C0E94C51C42
:103A100070F3959FC1F3950F50E0551F629FF00121
:103A2000729FBB27F00DB11D639FAA27F00DB11D3A
:103A3000AA1F649F6627B00DA11D661F829F2227C3
:103A4000B00DA11D621F739FB00DA11D621F839F4A
:103A5000A00D611D221F749F3327A00D611D231F20
:103A6000849F600D211D822F762F6A2F11249F576E
:103A700050409AF0F1F088234AF0EE0FFF1FBB1F71
:103A8000661F771F881F91505040A9F79E3F510530
:103A900080F00C949D1C0C94E81C5F3FE4F3983E6E
:103AA000D4F3869577956795B795F795E7959F5FDA
:103AB000C1F7FE2B880F911D9695879597F908956C
:103AC0000F931F93CF93DF93869F8001879F100DE5
:103AD000969F100D1124C8010E947C1DEC010097D7
:103AE00029F0A80160E070E00E94A91ECE01DF91DC
:103AF000CF911F910F910895CF93DF93823091055D
:103B000010F482E090E0E0917202F091730220E004
:103B100030E0C0E0D0E0309711F14081518148178A
:103B20005907C0F04817590761F4828193812097A3
:103B300019F09B838A832BC0909373028093720247
:103B400026C02115310519F04217530718F49A01C0
:103B5000BE01DF01EF010280F381E02DDCCF2115F2
:103B6000310509F1281B390B2430310590F41296E8
:103B70008D919C9113976115710521F0FB01938341
:103B8000828304C09093730280937202FD01329687
:103B900044C0FD01E20FF31F81939193225031093C
:103BA0002D933C933AC02091700230917102232BE7
:103BB00041F420910201309103013093710220936E
:103BC000700220910001309101012115310541F46D
:103BD0002DB73EB74091040150910501241B350BD0
:103BE000E0917002F0917102E217F307A0F42E1B2E
:103BF0003F0B2817390778F0AC014E5F5F4F241751
:103C0000350748F04E0F5F1F5093710240937002CA
:103C10008193919302C0E0E0F0E0CF01DF91CF917A
:103C200008950F931F93CF93DF93009709F48CC0EF
:103C3000FC0132971382128200917202109173027A
:103C40000115110581F420813181820F931F20918C
:103C50007002309171022817390779F5F0937102DB
:103C6000E093700271C0D80140E050E0AE17BF078A
:103C700050F412962D913C911397AD012115310509
:103C800009F1D901F3CF9D01DA01338322836081E9
:103C90007181860F971F8217930769F4EC012881C1
:103CA0003981260F371F2E5F3F4F318320838A8152
:103CB0009B8193838283452B29F4F0937302E093D5
:103CC000720242C01396FC93EE931297ED01499154
:103CD00059919E01240F351FE217F30771F480817B
:103CE0009181840F951F029611969C938E938281E9
:103CF000938113969C938E931297E0E0F0E0D801A5
:103D000012968D919C911397009719F0F8018C01F0
:103D1000F6CF8D919C9198012E5F3F4F820F931F9C
:103D200020917002309171022817390769F4309799
:103D300029F4109273021092720202C0138212824E
:103D40001093710200937002DF91CF911F910F9138
:103D50000895DC0101C06D9341505040E0F7089593
:043D6000F894FFCF05
:103D640000007402200006010601000000000000AB
:0E3D7400490164000000000000320100000060
:00000001FF
