:100000000C944A000C9469000C9469000C946900EB
:100010000C9469000C9469000C9469000C946900BC
:100020000C9469000C9469000C9469000C946900AC
:100030000C94A10C0C9469000C9469000C94690058
:100040000C9469000C9469000C9469000C9469008C
:100050000C9469000C94D20E0C9469000C94420E1E
:100060000C9469000C9469000C9469000C9469006C
:100070000C9469000C9469000C9469000C9469005C
:100080000C9427100C9469000C94E50F0C946900F3
:100090000C94690011241FBECFEFD0E1DEBFCDBFAD
:1000A00011E0A0E0B1E0E8E7FCE200E00BBF02C035
:1000B00007900D92AA30B107D9F722E0AAE0B1E08B
:1000C00001C01D92AA32B207E1F70E945A110C94A6
:1000D0003A160C940000CF93DF93CDB7DEB72B9781
:1000E0000FB6F894DEBF0FBECDBF9A8789876B87A6
:1000F00089859A85FC018281882321F489859A85E6
:100100000E94D10083E5898389859A85FC018081DD
:100110008A8383E48B838B858C83CE0101960E9436
:100120003C1189859A852B85FC0121832B960FB67E
:10013000F894DEBF0FBECDBFDF91CF910895CF936E
:10014000DF9300D000D000D0CDB7DEB79A8389838B
:100150006B834C833E832D8389819A812B81FC01A3
:10016000208389819A812C81FC0121838D819E814C
:10017000892B51F089819A810E94D10089819A81CD
:100180006C810E946B0004C089819A810E94FA00F0
:1001900026960FB6F894DEBF0FBECDBFDF91CF918C
:1001A0000895CF93DF93CDB7DEB72A970FB6F894B3
:1001B000DEBF0FBECDBF9A87898783E58983898596
:1001C0009A85FC0180818A8383E58B8381E48C831B
:1001D000CE0101960E943C1189859A8521E0FC019F
:1001E00022832A960FB6F894DEBF0FBECDBFDF91F3
:1001F000CF910895CF93DF93CDB7DEB72A970FB68F
:10020000F894DEBF0FBECDBF9A87898783E58983C7
:1002100089859A85FC0180818A8383E58B8384E4C8
:100220008C83CE0101960E943C1189859A85FC0140
:1002300012822A960FB6F894DEBF0FBECDBFDF91B3
:10024000CF910895CF93DF93CDB7DEB7AC970FB6BC
:10025000F894DEBF0FBECDBF9CA78BA782E50E949E
:100260008D1080E090E0A0E8BFE389839A83AB83A0
:10027000BC8320E030E44CE155E469817A818B81D4
:100280009C810E94A014DC01CB018D839E83AF83EF
:10029000B88720E030E040E85FE36D817E818F81A8
:1002A00098850E94431388232CF481E090E09A877C
:1002B00089873FC020E03FEF4FE757E46D817E81A3
:1002C0008F8198850E949B1418164CF520E030E031
:1002D00040E251E469817A818B819C810E94A01463
:1002E000DC01CB01BC01CD010E94BA13DC01CB01C2
:1002F0009A8789870FC08AEF90E09C878B878B85D0
:100300009C850197F1F79C878B8789859A85019752
:100310009A87898789859A85892B69F714C06D81A9
:100320007E818F8198850E94BA13DC01CB019A8768
:10033000898789859A859E878D878D859E8501977A
:10034000F1F79E878D878BA50E948D1080E090E04D
:10035000A0E8BFE38F87988BA98BBA8B20E030E4AD
:100360004CE155E46F85788989899A890E94A014A7
:10037000DC01CB018B8B9C8BAD8BBE8B20E030E006
:1003800040E85FE36B897C898D899E890E944313D5
:1003900088232CF481E090E0988F8F8B3FC020E081
:1003A0003FEF4FE757E46B897C898D899E890E94D6
:1003B0009B1418164CF520E030E040E251E46F85C4
:1003C000788989899A890E94A014DC01CB01BC013B
:1003D000CD010E94BA13DC01CB01988F8F8B0FC027
:1003E0008AEF90E09A8F898F898D9A8D0197F1F726
:1003F0009A8F898F8F89988D0197988F8F8B8F898E
:10040000988D892B69F714C06B897C898D899E89A9
:100410000E94BA13DC01CB01988F8F8B8F89988D46
:100420009C8F8B8F8B8D9C8D0197F1F79C8F8B8F81
:100430008CA50E948D1080E090E0A0E8BFE38D8F36
:100440009E8FAF8FB8A320E030E44CE155E46D8D72
:100450007E8D8F8D98A10E94A014DC01CB0189A311
:100460009AA3ABA3BCA320E030E040E85FE369A11E
:100470007AA18BA19CA10E94431388232CF481E0D4
:1004800090E09EA38DA33FC020E03FEF4FE757E4ED
:1004900069A17AA18BA19CA10E949B1418164CF50E
:1004A00020E030E040E251E46D8D7E8D8F8D98A18B
:1004B0000E94A014DC01CB01BC01CD010E94BA1343
:1004C000DC01CB019EA38DA30FC08AEF90E098A71B
:1004D0008FA38FA198A50197F1F798A78FA38DA15E
:1004E0009EA101979EA38DA38DA19EA1892B69F743
:1004F00014C069A17AA18BA19CA10E94BA13DC014E
:10050000CB019EA38DA38DA19EA19AA789A789A5A2
:100510009AA50197F1F79AA789A78BA59CA5AC96F8
:100520000FB6F894DEBF0FBECDBFDF91CF91089517
:10053000CF93DF93CDB7DEB7AC970FB6F894DEBF9D
:100540000FBECDBF9CA78BA78DE40E948D1080E0CD
:1005500090E0A0E8BFE389839A83AB83BC8320E06B
:1005600030E44CE155E469817A818B819C810E9461
:10057000A014DC01CB018D839E83AF83B88720E07C
:1005800030E040E85FE36D817E818F8198850E9435
:10059000431388232CF481E090E09A8789873FC039
:1005A00020E03FEF4FE757E46D817E818F81988592
:1005B0000E949B1418164CF520E030E040E251E414
:1005C00069817A818B819C810E94A014DC01CB011E
:1005D000BC01CD010E94BA13DC01CB019A87898747
:1005E0000FC08AEF90E09C878B878B859C85019755
:1005F000F1F79C878B8789859A8501979A878987E8
:1006000089859A85892B69F714C06D817E818F81D8
:1006100098850E94BA13DC01CB019A878987898566
:100620009A859E878D878D859E850197F1F79E8798
:100630008D878BA50E948D1080E090E0A0E8BFE33D
:100640008F87988BA98BBA8B20E030E44CE155E47E
:100650006F85788989899A890E94A014DC01CB0171
:100660008B8B9C8BAD8BBE8B20E030E040E85FE352
:100670006B897C898D899E890E94431388232CF481
:1006800081E090E0988F8F8B3FC020E03FEF4FE7F5
:1006900057E46B897C898D899E890E949B1418166A
:1006A0004CF520E030E040E251E46F85788989899B
:1006B0009A890E94A014DC01CB01BC01CD010E94EB
:1006C000BA13DC01CB01988F8F8B0FC08AEF90E0BB
:1006D0009A8F898F898D9A8D0197F1F79A8F898FDB
:1006E0008F89988D0197988F8F8B8F89988D892B03
:1006F00069F714C06B897C898D899E890E94BA1321
:10070000DC01CB01988F8F8B8F89988D9C8F8B8F7D
:100710008B8D9C8D0197F1F79C8F8B8F8CA50E9400
:100720008D1080E090E0A0E8BFE38D8F9E8FAF8FAB
:10073000B8A320E030E44CE155E46D8D7E8D8F8DC3
:1007400098A10E94A014DC01CB0189A39AA3ABA3BA
:10075000BCA320E030E040E85FE369A17AA18BA16F
:100760009CA10E94431388232CF481E090E09EA377
:100770008DA33FC020E03FEF4FE757E469A17AA186
:100780008BA19CA10E949B1418164CF520E030E030
:1007900040E251E46D8D7E8D8F8D98A10E94A01452
:1007A000DC01CB01BC01CD010E94BA13DC01CB01FD
:1007B0009EA38DA30FC08AEF90E098A78FA38FA16F
:1007C00098A50197F1F798A78FA38DA19EA10197F6
:1007D0009EA38DA38DA19EA1892B69F714C069A149
:1007E0007AA18BA19CA10E94BA13DC01CB019EA32C
:1007F0008DA38DA19EA19AA789A789A59AA50197E6
:10080000F1F79AA789A78BA59CA5AC960FB6F8948B
:10081000DEBF0FBECDBFDF91CF910895CF93DF93A1
:10082000CDB7DEB72E970FB6F894DEBF0FBECDBFA3
:100830008AE290E02AE230E0F9012081237FFC0186
:10084000208388EC90E0FC01108289EC90E028E1A4
:10085000FC0120838AEC90E026E0FC0120838DECF3
:1008600090E0FC0110828CEC90E025E0FC012083FC
:1008700080E090E0A8ECB2E489839A83AB83BC83E8
:1008800020E030E44CE155E469817A818B819C81E0
:100890000E94A014DC01CB018D839E83AF83B887B7
:1008A00020E030E040E85FE36D817E818F819885B4
:1008B0000E94431388232CF481E090E09A87898773
:1008C0003FC020E03FEF4FE757E46D817E818F818D
:1008D00098850E949B1418164CF520E030E040E209
:1008E00051E469817A818B819C810E94A014DC0192
:1008F000CB01BC01CD010E94BA13DC01CB019A8768
:1009000089870FC08AEF90E09C878B878B859C85B9
:100910000197F1F79C878B8789859A8501979A873C
:10092000898789859A85892B69F714C06D817E81B5
:100930008F8198850E94BA13DC01CB019A87898741
:1009400089859A859E878D878D859E850197F1F78C
:100950009E878D872E960FB6F894DEBF0FBECDBF53
:10096000DF91CF910895CF93DF931F92CDB7DEB77C
:100970008983000088EC90E0FC018081882F90E062
:1009800080729927892BB1F38EEC90E02981FC01CC
:1009900020830F90DF91CF910895CF93DF93CDB750
:1009A000DEB7000088EC90E0FC0180818823D4F75A
:1009B0008EEC90E0FC018081DF91CF910895CF9380
:1009C000DF93CDB7DEB727970FB6F894DEBF0FBE23
:1009D000CDBF27E0CE010196FC01322F11923A954E
:1009E000E9F70E94CD0489830E94CD048A830E9486
:1009F000CD048B830E94CD048C830E94CD048D8313
:100A00000E94CD048E8327960FB6F894DEBF0FBEEA
:100A1000CDBFDF91CF910895CF93DF93CDB7DEB7F0
:100A2000000088EC90E0FC018081882F90E08074C9
:100A30009927892BB1F389EC90E029EC30E0F9019A
:100A40002081277FFC01208388EC90E028EC30E0B7
:100A5000F90120812064FC012083DF91CF9108956A
:100A6000CF93DF93CDB7DEB789EC90E029EC30E08F
:100A7000F90120812860FC012083DF91CF91089546
:100A8000CF93DF93CDB7DEB789EC90E029EC30E06F
:100A9000F90120812F7EFC012083DF91CF91089501
:100AA000CF93DF93CDB7DEB789EC90E029EC30E04F
:100AB000F90120812061FC012083DF91CF9108950D
:100AC000CF93DF93CDB7DEB76A970FB6F894DEBF4A
:100AD0000FBECDBF9E8B8D8B788F6F8B498F2A8FEA
:100AE0008D899E89CC01A0E0B0E0BC01CD010E94BF
:100AF000E913DC01CB0120E030E046E953E4BC011E
:100B0000CD010E944813DC01CB0120E030EC4FE71F
:100B100054E4BC01CD010E94A014DC01CB01BC0156
:100B2000CD010E94BA13DC01CB019E8B8D8B8D8988
:100B30009E89892F992789838D898A83898D882F1A
:100B400090E0982F8827990F990F9C018F89988D95
:100B5000822B932B988F8F8B8F89988D892F992734
:100B60008B838F898C838A8D882F90E09C01285DF0
:100B70003F4F8B81882F90E0280F391F8C81882F61
:100B800090E0280F391F8981882F90E0280F391FA6
:100B90008A81882F90E0820F931F809590959E8385
:100BA0008D830E9440058FEF0E94B3048FEF0E9457
:100BB000B3048A8D0E94B30487E00E94B30483E0EB
:100BC0000E94B3048EE10E94B3048A810E94B304A0
:100BD00089810E94B3048C810E94B3048B810E949E
:100BE000B3048D810E94B3040E940C050E9450053D
:100BF00080E090E0A8E4B2E48F839887A987BA8761
:100C000020E030E44CE155E46F81788589859A8550
:100C10000E94A014DC01CB018B879C87AD87BE8727
:100C200020E030E040E85FE36B857C858D859E8524
:100C30000E94431388232CF481E090E0988B8F87E7
:100C40003FC020E03FEF4FE757E46B857C858D8503
:100C50009E850E949B1418164CF520E030E040E27F
:100C600051E46F81788589859A850E94A014DC0102
:100C7000CB01BC01CD010E94BA13DC01CB01988BE2
:100C80008F870FC08AEF90E09A8B898B89899A8928
:100C90000197F1F79A8B898B8F8598890197988BAB
:100CA0008F878F859889892B69F714C06B857C8520
:100CB0008D859E850E94BA13DC01CB01988B8F87AE
:100CC0008F8598899C8B8B8B8B899C890197F1F7F9
:100CD0009C8B8B8B0E9430056A960FB6F894DEBF12
:100CE0000FBECDBFDF91CF910895CF93DF93CDB7E6
:100CF000DEB760970FB6F894DEBF0FBECDBF8CEEA7
:100D00009FEF9A8389830E9440058FEF0E94B3046E
:100D10008FEF0E94B30481E00E94B30487E00E9439
:100D2000B30483E00E94B30486E00E94B30480E031
:100D30000E94B30480E00E94B3048FEF0E94B304CA
:100D400083E00E94B30489810E94B3040E940C05D1
:100D50000E94500580E090E0A8E4B2E48B839C837D
:100D6000AD83BE8320E030E44CE155E46B817C81AF
:100D70008D819E810E94A014DC01CB018F83988716
:100D8000A987BA8720E030E040E85FE36F8178858B
:100D900089859A850E94431388232CF481E090E092
:100DA0009C878B873FC020E03FEF4FE757E46F8180
:100DB000788589859A850E949B1418164CF520E049
:100DC00030E040E251E46B817C818D819E810E9404
:100DD000A014DC01CB01BC01CD010E94BA13DC01DF
:100DE000CB019C878B870FC08AEF90E09E878D8711
:100DF0008D859E850197F1F79E878D878B859C85D4
:100E000001979C878B878B859C85892B69F714C0FC
:100E10006F81788589859A850E94BA13DC01CB01A0
:100E20009C878B878B859C85988B8F878F859889EE
:100E30000197F1F7988B8F870E94300560960FB667
:100E4000F894DEBF0FBECDBFDF91CF910895CF9351
:100E5000DF93CDB7DEB728970FB6F894DEBF0FBE8D
:100E6000CDBF9E838D8378876F831A8219821C82FF
:100E70001B828F8198859A8389838D819E81982F8B
:100E80008827990F990F29813A81822B932B9A8376
:100E9000898389819A818996809590959C838B839B
:100EA0000E9440058FEF0E94B3048FEF0E94B304AD
:100EB00081E00E94B30485E00E94B30483E00E94B5
:100EC000B30480E20E94B30489810E94B304898143
:100ED0009A81892F99270E94B3048B810E94B304C1
:100EE0000E940C050E9450050E94DF040E943005FC
:100EF00028960FB6F894DEBF0FBECDBFDF91CF911D
:100F00000895CF93DF9300D000D000D0CDB7DEB7E7
:100F10009A8389837C836B835E834D838D819E81DD
:100F200029813A81FC013183208389819A812D8135
:100F30003E81FC013383228389819A812B813C810C
:100F4000FC01318320838B819C8129813A81FC01C2
:100F50003383228326960FB6F894DEBF0FBECDBF33
:100F6000DF91CF910895CF93DF9300D000D0CDB71C
:100F7000DEB79A8389837C836B838B819C81FC01A0
:100F8000428153812B813C8189819A81B9010E94E0
:100F900081070F900F900F900F90DF91CF910895E0
:100FA000CF93DF93CDB7DEB72B970FB6F894DEBFA4
:100FB0000FBECDBF89876A874B87809108019091CA
:100FC00009019C838B838B819C8106979A838983FB
:100FD00015C089819A81FC0190818985981711F447
:100FE00081E0E5C089819A81FC01808591859E839D
:100FF0008D838D819E8106979A83898389819A81C9
:1010000006968650914029F789858695869586951E
:101010008F5F8F838985877088878A85813009F003
:1010200055C08F81882F90E09C0121503109C90162
:10103000880F991F820F931F8196AC018F81882F93
:1010400090E09C0121503109C901880F991F820F3E
:10105000931F8196FC018081682F8885282F30E0BE
:1010600081E090E002C0880F991F2A95E2F7862B55
:10107000FA0180838F81882F90E09C0121503109F3
:10108000C901880F991F820F931F8296AC018F812F
:10109000882F90E09C0121503109C901880F991FC8
:1010A000820F931F8296FC018081682F8885282FEC
:1010B00030E081E090E002C0880F991F2A95E2F7A6
:1010C00080958623FA01808380E071C08F81882F0C
:1010D00090E09C0121503109C901880F991F820FAE
:1010E000931F8196AC018F81882F90E09C01215045
:1010F0003109C901880F991F820F931F8196FC0146
:101100008081682F8885282F30E081E090E002C040
:10111000880F991F2A95E2F780958623FA0180832C
:101120008F81882F90E09C0121503109C901880FDF
:10113000991F820F931F8296AC018F81882F90E0B8
:101140009C0121503109C901880F991F820F931FFB
:101150008296FC018081682F8885282F30E081E00D
:1011600090E002C0880F991F2A95E2F7862BFA01BA
:1011700080838AE090E00E940D159A83898389819B
:101180009A81892B11F481E012C089819A81298585
:10119000FC01208389819A812B85FC01218389812F
:1011A0009A81069666E071E00E94B30780E02B9674
:1011B0000FB6F894DEBF0FBECDBFDF91CF9108957B
:1011C000CF93DF9300D000D0CDB7DEB78B836C8395
:1011D0008B818695869586958F5F89838B818770B5
:1011E0008B838981882F90E09C0121503109C901AE
:1011F000880F991F820F931F8296FC018081918135
:10120000A281B3818A838C81882331F18981882FDF
:1012100090E09C0121503109C901880F991F820F6C
:10122000931F8296AC018A81282F30E08B81682F32
:1012300070E081E090E002C0880F991F6A95E2F7A4
:10124000822B932B092E000CAA0BBB0BFA01808377
:101250009183A283B38327C08981882F90E09C016A
:1012600021503109C901880F991F820F931F82965F
:10127000AC018A81282F30E08B81682F70E081E0FB
:1012800090E002C0880F991F6A95E2F780959095CB
:1012900082239323092E000CAA0BBB0BFA01808337
:1012A0009183A283B38380E00F900F900F900F90F3
:1012B000DF91CF910895CF93DF9300D01F92CDB7E8
:1012C000DEB78B838B818695869586958F5F898324
:1012D0008B8187708B838981882F90E09C012150BE
:1012E0003109C901880F991F820F931F8096FC0155
:1012F00080818A838A81882F90E02B81222F30E0A1
:1013000002C0959587952A95E2F781700F900F900E
:101310000F90DF91CF910895CF93DF93CDB7DEB7D4
:1013200029970FB6F894DEBF0FBECDBF8987809195
:101330000801909109019D838C838C819D81069782
:101340009A83898355C089819A81FC01908189851E
:10135000981709F041C01B821FC08B81882F90E035
:1013600029813A81820F931F0296FC0140818B8173
:10137000882F90E0019629813A81820F931F02966F
:10138000FC018081481729F089819A81FC018581BF
:1013900037C08B818F5F8B838B818230F0F28981A4
:1013A0009A81FC01918181E08927882329F0898134
:1013B0009A81FC01828108C089819A81FC01928115
:1013C00081E0992309F080E0888789819A812885C6
:1013D000FC012583888514C089819A81FC01808560
:1013E00091859F838E838E819F8106979A838983BF
:1013F00089819A8106968650914009F0A4CF81E0B8
:1014000029960FB6F894DEBF0FBECDBFDF91CF9106
:1014100008950F931F93CF93DF9300D000D000D097
:10142000CDB7DEB780910801909109019C838B8331
:101430008B819C8106979A8389831EC000910C0141
:1014400010910D0189819A81FC0180810E945B09C4
:10145000282F89819A81800F911F0296FC01208399
:1014600089819A81FC01808591859E838D838D8100
:101470009E8106979A83898389819A8106968650F0
:101480009140E1F680910C0190910D0101969093AD
:101490000D0180930C01039721F410920D0110921D
:1014A0000C0126960FB6F894DEBF0FBECDBFDF91BC
:1014B000CF911F910F910895CF93DF93CDB7DEB7F2
:1014C00088EB90E02AE2FC012083DF91CF91089520
:1014D000CF93DF9300D0CDB7DEB78A838CEB90E05B
:1014E000FC0110828CEB90E024EAFC0120830000D8
:1014F0008CEB90E0FC0180818823D4F789EB90E0AD
:10150000FC018081882F90E0887F9927089711F04F
:1015100081E020C08BEB90E02A81FC0120838CEBE2
:1015200090E024E8FC01208300008CEB90E0FC01BB
:1015300080818823D4F789EB90E0FC018081887F4B
:1015400089838981883129F08981803411F081E093
:1015500001C080E00F900F90DF91CF910895CF935D
:10156000DF931F92CDB7DEB789838BEB90E02981A3
:10157000FC0120838CEB90E024E8FC012083000038
:101580008CEB90E0FC0180818823D4F789EB90E01C
:10159000FC018081882F90E0887F9927889711F03F
:1015A00081E001C080E00F90DF91CF910895CF934B
:1015B000DF93CDB7DEB78CEB90E024ECFC01208309
:1015C00000008CEB90E0FC0180818823D4F78BEB4A
:1015D00090E0FC018081DF91CF910895CF93DF935C
:1015E000CDB7DEB78CEB90E024E8FC01208300004F
:1015F0008CEB90E0FC0180818823D4F78BEB90E0AA
:10160000FC018081DF91CF910895CF93DF93CDB717
:10161000DEB727970FB6F894DEBF0FBECDBF8B8322
:101620007D836C835F834E838B810E94680A88234D
:1016300011F081E020C01A82198213C02C813D81F3
:1016400089819A81820F931FFC0180810E94AF0AD9
:10165000882311F081E00FC089819A8101969A83D5
:10166000898329813A818E819F812817390730F338
:101670000E94320C80E027960FB6F894DEBF0FBEB2
:10168000CDBFDF91CF9108950F931F93CF93DF9339
:10169000CDB7DEB727970FB6F894DEBF0FBECDBF2C
:1016A0008B837D836C835F834E838B8181600E94FB
:1016B000680A882311F081E02CC01A82198210C0B8
:1016C0002C813D8189819A818901080F191F0E940F
:1016D000D70AF801808389819A8101969A83898348
:1016E0008E819F819C012150310989819A818217C5
:1016F000930730F38E819F8101972C813D81890171
:10170000080F191F0E94EE0AF80180830E94320C14
:1017100080E027960FB6F894DEBF0FBECDBFDF91F5
:10172000CF911F910F910895CF93DF93CDB7DEB77F
:1017300028970FB6F894DEBF0FBECDBF8B836C83A6
:101740005E834D8338872F838B810E94680A8823AC
:1017500011F081E023C08C810E94AF0A1A821982A5
:1017600013C02D813E8189819A81820F931FFC01D4
:1017700080810E94AF0A882311F081E00FC0898127
:101780009A8101969A83898329813A818F819885EC
:101790002817390730F30E94320C80E028960FB6E4
:1017A000F894DEBF0FBECDBFDF91CF9108950F93A8
:1017B0001F93CF93DF93CDB7DEB728970FB6F8947A
:1017C000DEBF0FBECDBF8B836C835E834D833887B6
:1017D0002F838B810E94680A882311F081E037C033
:1017E0008C810E94AF0A8B8181600E94680A8823E5
:1017F00011F081E02CC01A82198210C02D813E8127
:1018000089819A818901080F191F0E94D70AF8015E
:10181000808389819A8101969A8389838F819885B3
:101820009C012150310989819A818217930730F3F5
:101830008F81988501972D813E818901080F191F9D
:101840000E94EE0AF80180830E94320C80E0289604
:101850000FB6F894DEBF0FBECDBFDF91CF911F91C1
:101860000F910895CF93DF93CDB7DEB78CEB90E067
:1018700024E9FC012083DF91CF910895CF93DF937A
:1018800000D0CDB7DEB79A83898389819A819093FE
:101890001401809313010F900F90DF91CF91089561
:1018A0000F931F93CF93DF9300D0CDB7DEB79A830A
:1018B000898380E890E0FC01108281E890E029E0D3
:1018C000FC01208308E810E089819A81CC01A0E026
:1018D000B0E0BC01CD010E94E913DC01CB019C0109
:1018E000AD0160E876E988E19BE40E944813DC01E1
:1018F000CB0120E030E040E05FE3BC01CD010E947D
:10190000D712DC01CB01BC01CD010E94BA13DC016E
:10191000CB01F801918380838FE690E022E0FC0107
:1019200020838FE590E02FE530E0F90120812068E9
:10193000FC0120830F900F90DF91CF911F910F91A9
:1019400008951F920F9200905F000F921124009053
:101950005B000F922F933F934F935F936F937F930F
:101960008F939F93AF93BF93EF93FF93CF93DF93A7
:10197000CDB7DEB78091130190911401892B31F01E
:101980008091130190911401FC01099580910E0141
:1019900090910F01A0911001B091110180399F45E4
:1019A000A140B10528F00E942C0D882309F0FFCF3B
:1019B00080910E0190910F01A0911001B091110141
:1019C0000196A11DB11D80930E0190930F01A0936C
:1019D0001001B0931101DF91CF91FF91EF91BF9171
:1019E000AF919F918F917F916F915F914F913F91B7
:1019F0002F910F9000925B000F9000925F000F906C
:101A00001F901895CF93DF93CDB7DEB710920E01DC
:101A100010920F011092100110921101DF91CF91DD
:101A20000895CF93DF93CDB7DEB781E080931201A5
:101A3000DF91CF910895CF93DF93CDB7DEB780913B
:101A40000E0190910F01A0911001B0911101BC0104
:101A5000CD01DF91CF910895CF93DF93CDB7DEB75E
:101A600080911201DF91CF910895CF93DF93CDB78D
:101A7000DEB72E970FB6F894DEBF0FBECDBF89E05C
:101A80009AE00E943E0C80E090E0A8ECB2E48983EA
:101A90009A83AB83BC8320E030E44CE155E4698158
:101AA0007A818B819C810E94A014DC01CB018D8303
:101AB0009E83AF83B88720E030E040E85FE36D812C
:101AC0007E818F8198850E94431388232CF481E0C6
:101AD00090E09A8789873FC020E03FEF4FE757E4C7
:101AE0006D817E818F8198850E949B1418164CF51C
:101AF00020E030E040E251E469817A818B819C8171
:101B00000E94A014DC01CB01BC01CD010E94BA13DC
:101B1000DC01CB019A8789870FC08AEF90E09C8710
:101B20008B878B859C850197F1F79C878B878985AF
:101B30009A8501979A87898789859A85892B69F77C
:101B400014C06D817E818F8198850E94BA13DC015B
:101B5000CB019A87898789859A859E878D878D8510
:101B60009E850197F1F79E878D870E94020D0E9446
:101B7000110D2E960FB6F894DEBF0FBECDBFDF91CC
:101B8000CF910895CF93DF93CDB7DEB727970FB6E8
:101B9000F894DEBF0FBECDBF6B837C838D839E83A5
:101BA0004F8380EC90E0FC01108281EC90E028E112
:101BB000FC01208382EC90E026E0FC0120838F81F1
:101BC000813091F481EC90E021EC30E0F90120814A
:101BD000206CFC0120838FE590E02FE530E0F901D7
:101BE00020812068FC0120836B817C818D819E8116
:101BF0000E94E913DC01CB0120E030E040E851E431
:101C0000BC01CD010E94A014DC01CB019C01AD01FF
:101C100060E876E988E19BE40E944813DC01CB018F
:101C200020E030E040E85FE3BC01CD010E94D61225
:101C3000DC01CB0120E030E040E05FE3BC01CD01FE
:101C40000E94D712DC01CB01BC01CD010E94BA1366
:101C5000DC01CB019A83898385EC90E029813A816C
:101C6000232F3327FC01208384EC90E02981FC01A1
:101C7000208327960FB6F894DEBF0FBECDBFDF914D
:101C8000CF9108951F920F9200905F000F92112440
:101C900000905B000F922F933F938F939F93EF934E
:101CA000FF93CF93DF93CDB7DEB7809158018823A0
:101CB000D1F08091580181508093580186EC90E0DA
:101CC00020915901222F30E0295E3E4FF9012081F9
:101CD000FC012083809159018F5F809359018034EA
:101CE00011F410925901DF91CF91FF91EF919F91E3
:101CF0008F913F912F910F9000925B000F90009277
:101D00005F000F901F901895CF93DF931F92CDB770
:101D1000DEB7898381EC90E0FC0180818295869515
:101D200086958370882F90E081709927892B99F18F
:101D30000000809158018034E1F3F89480915801BB
:101D4000882351F480EC90E0FC018081882F90E0A2
:101D500080729927892BC1F480915701882F90E0D8
:101D6000895E9E4F2981FC012083809157018F5FFE
:101D700080935701803411F41092570180915801DB
:101D80008F5F8093580105C086EC90E02981FC01AB
:101D90002083789403C089810E9473100F90DF9193
:101DA000CF9108951F920F9200905F000F9211241F
:101DB00000905B000F922F933F938F939F93EF932D
:101DC000FF93CF93DF931F92CDB7DEB780EC90E007
:101DD000FC01808189838981882F90E08C7199270B
:101DE000892BD1F480919A01882F90E026EC30E085
:101DF000F9012081865A9E4FFC01208380919A012F
:101E00008F5F80939A01803411F410929A0180912F
:101E10009B018F5F80939B010F90DF91CF91FF918A
:101E2000EF919F918F913F912F910F9000925B00C6
:101E30000F9000925F000F901F901895CF93DF9343
:101E40001F92CDB7DEB781EC90E0FC018081881F46
:101E50008827881F882F90E081709927892BE9F0C7
:101E6000000080919B018823E1F380919C01882FE1
:101E700090E0865A9E4FFC018081898380919C016D
:101E80008F5F80939C01803411F410929C018091AB
:101E90009B01815080939B0113C0000080EC90E077
:101EA000FC018081881F8827881F882F90E081701F
:101EB0009927892B99F386EC90E0FC018081898336
:101EC00089810F90DF91CF910895CF93DF93CDB7A4
:101ED000DEB727970FB6F894DEBF0FBECDBF6B837A
:101EE0007C838D839E834F8388EC90E0FC0110827D
:101EF00089EC90E028E1FC0120838AEC90E02EE060
:101F0000FC0120838F81813091F489EC90E029ECF1
:101F100030E0F9012081206CFC0120838FE590E006
:101F20002FE530E0F90120812068FC0120836B81DE
:101F30007C818D819E810E94E913DC01CB0120E030
:101F400030E040E851E4BC01CD010E94A014DC0166
:101F5000CB019C01AD0160E876E988E19BE40E9439
:101F60004813DC01CB0120E030E040E85FE3BC0136
:101F7000CD010E94D612DC01CB0120E030E040E030
:101F80005FE3BC01CD010E94D712DC01CB01BC0193
:101F9000CD010E94BA13DC01CB019A8389838DECB9
:101FA00090E029813A81232F3327FC0120838CEC98
:101FB00090E02981FC01208327960FB6F894DEBFBC
:101FC0000FBECDBFDF91CF9108951F920F92009069
:101FD0005F000F92112400905B000F922F933F93AC
:101FE0008F939F93EF93FF93CF93DF93CDB7DEB79C
:101FF0008091DE018823D1F08091DE0181508093B1
:10200000DE018EEC90E02091DF01222F30E023569C
:102010003E4FF9012081FC0120838091DF018F5F19
:102020008093DF01803411F41092DF01DF91CF91B2
:10203000FF91EF919F918F913F912F910F9000927F
:102040005B000F9000925F000F901F9018951F92F9
:102050000F9200905F000F92112400905B000F928E
:102060002F933F938F939F93EF93FF93CF93DF93A0
:102070001F92CDB7DEB788EC90E0FC0180818983A8
:102080008981882F90E08C719927892BD1F48091D8
:102090002002882F90E02EEC30E0F9012081805260
:1020A0009E4FFC012083809120028F5F809320024D
:1020B000803411F410922002809121028F5F80936E
:1020C00021020F90DF91CF91FF91EF919F918F911E
:1020D0003F912F910F9000925B000F9000925F0054
:1020E0000F901F901895CF93DF931F92CDB7DEB757
:1020F0008983000080EC90E0FC018081882F90E0D3
:1021000080729927892BB1F386EC90E02981FC013C
:1021100020830F90DF91CF910895CF93DF931F928B
:10212000CDB7DEB78983000088EC90E0FC018081A8
:10213000882F90E080729927892BB1F38EEC90E084
:102140002981FC0120830F90DF91CF910895CF93D7
:10215000DF931F92CDB7DEB7898389EC90E0FC0155
:1021600080818295869586958370882F90E0817016
:102170009927892B99F100008091DE018034E1F3E9
:10218000F8948091DE01882351F488EC90E0FC0102
:102190008081882F90E080729927892BC1F48091EB
:1021A000DD01882F90E083569E4F2981FC0120831A
:1021B0008091DD018F5F8093DD01803411F41092F6
:1021C000DD018091DE018F5F8093DE0105C08EEC22
:1021D00090E02981FC012083789403C089810E94CA
:1021E0008D100F90DF91CF910895CF93DF931F92C1
:1021F000CDB7DEB789EC90E0FC018081881F88278D
:10220000881F882F90E081709927892BE9F00000C2
:10221000809121028823E1F380912202882F90E0AF
:1022200080529E4FFC0180818983809122028F5FC2
:1022300080932202803411F41092220280912102B4
:1022400081508093210213C0000088EC90E0FC01D3
:102250008081881F8827881F882F90E081709927A8
:10226000892B99F38EEC90E0FC0180818983898130
:102270000F90DF91CF910895CF93DF9300D0CDB72A
:10228000DEB79A8389830BC089819A819C012F5F75
:102290003F4F3A832983FC0180810E948D10898100
:1022A0009A81FC018081882379F70F900F90DF914C
:1022B000CF910895CF93DF93CDB7DEB7AA970FB62E
:1022C000F894DEBF0FBECDBF83E390E02FEFFC019B
:1022D000208384E390E0FC01108280E090E0AAEF8C
:1022E000B3E489839A83AB83BC8320E030E44CE180
:1022F00055E469817A818B819C810E94A014DC0164
:10230000CB018D839E83AF83B88720E030E040E827
:102310005FE36D817E818F8198850E9443138823BE
:102320002CF481E090E09A8789873FC020E03FEF5E
:102330004FE757E46D817E818F8198850E949B14C1
:1023400018164CF520E030E040E251E469817A81D2
:102350008B819C810E94A014DC01CB01BC01CD01CA
:102360000E94BA13DC01CB019A8789870FC08AEFDC
:1023700090E09C878B878B859C850197F1F79C87E4
:102380008B8789859A8501979A87898789859A8518
:10239000892B69F714C06D817E818F8198850E9499
:1023A000BA13DC01CB019A87898789859A859E8734
:1023B0008D878D859E850197F1F79E878D870E9479
:1023C0000E0422E040E068EC70E084EF90E00E94B0
:1023D000600580E090E0AAEFB4E48F87988BA98B2A
:1023E000BA8B20E030E44CE155E46F857889898927
:1023F0009A890E94A014DC01CB018B8B9C8BAD8B46
:10240000BE8B20E030E040E85FE36B897C898D89FA
:102410009E890E94431388232CF481E090E0988FDA
:102420008F8B3FC020E03FEF4FE757E46B897C89FB
:102430008D899E890E949B1418164CF520E030E08F
:1024400040E251E46F85788989899A890E94A014B5
:10245000DC01CB01BC01CD010E94BA13DC01CB0130
:10246000988F8F8B0FC08AEF90E09A8F898F898D1C
:102470009A8D0197F1F79A8F898F8F89988D01979F
:10248000988F8F8B8F89988D892B69F714C06B89F2
:102490007C898D899E890E94BA13DC01CB01988FBB
:1024A0008F8B8F89988D9C8F8B8F8B8D9C8D0197B7
:1024B000F1F79C8F8B8F22E041E068EC70E08EE9B1
:1024C00090E00E94600580E090E0AAEFB4E48D8F78
:1024D0009E8FAF8FB8A320E030E44CE155E46D8DC2
:1024E0007E8D8F8D98A10E94A014DC01CB0189A361
:1024F0009AA3ABA3BCA320E030E040E85FE369A16E
:102500007AA18BA19CA10E94431388232CF481E023
:1025100090E09EA38DA33FC020E03FEF4FE757E43C
:1025200069A17AA18BA19CA10E949B1418164CF55D
:1025300020E030E040E251E46D8D7E8D8F8D98A1DA
:102540000E94A014DC01CB01BC01CD010E94BA1392
:10255000DC01CB019EA38DA30FC08AEF90E098A76A
:102560008FA38FA198A50197F1F798A78FA38DA1AD
:102570009EA101979EA38DA38DA19EA1892B69F792
:1025800014C069A17AA18BA19CA10E94BA13DC019D
:10259000CB019EA38DA38DA19EA19AA789A789A5F2
:1025A0009AA50197F1F79AA789A70BCF5058BB2797
:1025B000AA270E94EE120C9461140E94531438F062
:1025C0000E945A1420F039F49F3F19F426F40C9419
:1025D00050140EF4E095E7FB0C944A14E92F0E9486
:1025E000721458F3BA17620773078407950720F02F
:1025F00079F4A6F50C9494140EF4E0950B2EBA2FF2
:10260000A02D0B01B90190010C01CA01A0011124F8
:10261000FF27591B99F0593F50F4503E68F11A16A4
:10262000F040A22F232F342F4427585FF3CF469535
:1026300037952795A795F0405395C9F77EF41F1657
:10264000BA0B620B730B840BBAF09150A1F0FF0F21
:10265000BB1F661F771F881FC2F70EC0BA0F621F0D
:10266000731F841F48F4879577956795B795F795FD
:102670009E3F08F0B0CF9395880F08F09927EE0F92
:102680009795879508950E94261408F481E008958F
:102690000E945C130C9461140E945A1458F00E941A
:1026A000531440F029F45F3F29F00C944A1451115F
:1026B0000C9495140C9450140E94721468F399238E
:1026C000B1F3552391F3951B550BBB27AA2762172E
:1026D0007307840738F09F5F5F4F220F331F441F3B
:1026E000AA1FA9F335D00E2E3AF0E0E832D091506F
:1026F0005040E695001CCAF72BD0FE2F29D0660F5C
:10270000771F881FBB1F261737074807AB07B0E89E
:1027100009F0BB0B802DBF01FF2793585F4F3AF0A4
:102720009E3F510578F00C944A140C9495145F3F29
:10273000E4F3983ED4F3869577956795B795F7952A
:102740009F5FC9F7880F911D9695879597F9089512
:10275000E1E0660F771F881FBB1F621773078407AE
:10276000BA0720F0621B730B840BBA0BEE1F88F7BD
:10277000E09508950E947A1488F09F5798F0B92F39
:102780009927B751B0F0E1F0660F771F881F991FA6
:102790001AF0BA95C9F714C0B13091F00E949414A0
:1027A000B1E008950C949414672F782F8827B85FB0
:1027B00039F0B93FCCF3869577956795B395D9F7FE
:1027C0003EF490958095709561957F4F8F4F9F4F08
:1027D0000895E89409C097FB3EF490958095709514
:1027E00061957F4F8F4F9F4F9923A9F0F92F96E95D
:1027F000BB279395F695879577956795B795F111D2
:10280000F8CFFAF4BB0F11F460FF1BC06F5F7F4F6E
:102810008F4F9F4F16C0882311F096E911C0772380
:1028200021F09EE8872F762F05C0662371F096E889
:10283000862F70E060E02AF09A95660F771F881F58
:10284000DAF7880F9695879597F90895990F0008FC
:10285000550FAA0BE0E8FEEF16161706E807F90772
:10286000C0F012161306E407F50798F0621B730B0D
:10287000840B950B39F40A2661F0232B242B252B8E
:1028800021F408950A2609F4A140A6958FEF811D31
:10289000811D089597F99F6780E870E060E00895D2
:1028A0009FEF80EC089500240A9416161706180668
:1028B0000906089500240A94121613061406050644
:1028C0000895092E0394000C11F4882352F0BB0FD5
:1028D00040F4BF2B11F460FF04C06F5F7F4F8F4F38
:1028E0009F4F089557FD9058440F551F59F05F3F73
:1028F00071F04795880F97FB991F61F09F3F79F022
:1029000087950895121613061406551FF2CF4695A3
:10291000F1DF08C0161617061806991FF1CF869525
:102920007105610508940895E894BB276627772709
:10293000CB0197F908950E94261408F48FEF0895AB
:102940000E94B3140C9461140E94531438F00E9436
:102950005A1420F0952311F00C944A140C9450143E
:1029600011240C9495140E94721470F3959FC1F376
:10297000950F50E0551F629FF001729FBB27F00D2D
:10298000B11D639FAA27F00DB11DAA1F649F662782
:10299000B00DA11D661F829F2227B00DA11D621FD1
:1029A000739FB00DA11D621F839FA00D611D221F8B
:1029B000749F3327A00D611D231F849F600D211D6F
:1029C000822F762F6A2F11249F5750409AF0F1F0F2
:1029D00088234AF0EE0FFF1FBB1F661F771F881F5B
:1029E00091505040A9F79E3F510580F00C944A1435
:1029F0000C9495145F3FE4F3983ED4F38695779555
:102A00006795B795F795E7959F5FC1F7FE2B880F00
:102A1000911D9695879597F90895CF93DF9382300E
:102A2000910510F482E090E0E0912802F0912902F3
:102A300020E030E0C0E0D0E0309711F140815181DA
:102A400048175907C0F04817590761F482819381EC
:102A5000209719F09B838A832BC09093290280933F
:102A6000280226C02115310519F04217530718F422
:102A70009A01BE01DF01EF010280F381E02DDCCF7E
:102A80002115310509F1281B390B2430310590F44B
:102A900012968D919C9113976115710521F0FB01A0
:102AA0009383828304C09093290280932802FD01BE
:102AB000329644C0FD01E20FF31F8193919322509F
:102AC00031092D933C933AC0209126023091270280
:102AD000232B41F42091020130910301309327020E
:102AE000209326022091000130910101211531052A
:102AF00041F42DB73EB74091040150910501241BCC
:102B0000350BE0912602F0912702E217F307A0F4BB
:102B10002E1B3F0B2817390778F0AC014E5F5F4F33
:102B20002417350748F04E0F5F1F5093270240933C
:102B300026028193919302C0E0E0F0E0CF01DF91A3
:102B4000CF9108950F931F93CF93DF93009709F4CC
:102B50008CC0FC01329713821282009128021091DE
:102B600029020115110581F420813181820F931F03
:102B700020912602309127022817390779F5F09322
:102B80002702E093260271C0D80140E050E0AE1762
:102B9000BF0750F412962D913C911397AD0121156A
:102BA000310509F1D901F3CF9D01DA013383228385
:102BB00060817181860F971F8217930769F4EC017A
:102BC00028813981260F371F2E5F3F4F31832083A5
:102BD0008A819B8193838283452B29F4F093290278
:102BE000E093280242C01396FC93EE931297ED01F6
:102BF000499159919E01240F351FE217F30771F493
:102C000080819181840F951F029611969C938E93DB
:102C10008281938113969C938E931297E0E0F0E06B
:102C2000D80112968D919C911397009719F0F80195
:102C30008C01F6CF8D919C9198012E5F3F4F820FB2
:102C4000931F20912602309127022817390769F433
:102C5000309729F4109229021092280202C01382A0
:102C600012821093270200932602DF91CF911F91C9
:082C70000F910895F894FFCFC5
:0A2C780000002A02200006010601F8
:00000001FF
