:100000000C94E5000C9404010C9404010C9404017C
:100010000C9404010C9404010C9404010C9404014C
:100020000C9473160C9404010C9404010C940401B8
:100030000C9457150C9404010C9404010C940401C5
:100040000C9404010C9404010C94CD070C9404014D
:100050000C9404010C949D210C947F210C940401B8
:100060000C9404010C9404010C9404010C940401FC
:100070000C9404010C9404010C9404010C940401EC
:100080000C94D6210C94B8210C9404010C94040116
:100090000C9404014E414E494E495459494E46CDA7
:1000A000CCCC3D0AD7233C17B7D13877CC2B32952F
:1000B00095E6241FB14F0A000020410000C842000D
:1000C000401C4620BCBE4CCA1B0E5AAEC59D7400D7
:1000D000407A10F35A00A0724E18090010A5D4E817
:1000E0000000E87648170000E40B54020000CA9AAA
:1000F0003B000000E1F505000080969800000040FC
:10010000420F000000A08601000000102700000040
:1001100000E803000000006400000000000A000086
:100120000000000100000000002C76D888DC674F3A
:100130000823DFC1DFAE59E1B1B796E5E3E453C66A
:100140003AE651997696E8E6C28426EB898C9B6262
:10015000ED407C6FFCEFBC9C9F40F2BAA56FA5F40C
:1001600090055A2AF75C936B6CF9676DC11BFCE034
:10017000E40D47FEF520E6B500D0ED902E03009487
:100180003577050080841E080000204E0A0000001C
:10019000C80C333333330F986E12831141EF8D2126
:1001A00014893BE65516CFFEE6DB18D1844B381B8D
:1001B000F77C1D901DA4BBE424203284725E228152
:1001C00000C9F124ECA1E53D270011241FBECFEFAB
:1001D000D0E1DEBFCDBF11E0A0E0B1E0E4EFFBE590
:1001E00000E00BBF02C007900D92AE39B107D9F7FE
:1001F00022E0AEE9B1E001C01D92A337B207E1F7FA
:100200000E949F240C94F82D0C940000CF93DF9350
:10021000CDB7DEB769970FB6F894DEBF0FBECDBF7E
:10022000988F8F8B698F8F89988DFC0180818823AF
:1002300021F48F89988D0E94E30183E58F878F8950
:10024000988DFC018081888B83E4898B898D8A8BD2
:1002500072C080E090E0A8E4B2E489839A83AB8323
:10026000BC8320E030E44CE155E469817A818B81E4
:100270009C810E941027DC01CB018D839E83AF837C
:10028000B88720E030E040E85FE36D817E818F81B8
:1002900098850E94B32588232CF481E090E09A870A
:1002A00089873FC020E03FEF4FE757E46D817E81B3
:1002B0008F8198850E940B2718164CF520E030E0BE
:1002C00040E251E469817A818B819C810E941027F0
:1002D000DC01CB01BC01CD010E942A26DC01CB014F
:1002E0009A8789870FC08AEF90E09C878B878B85E0
:1002F0009C850197F1F79C878B8789859A85019763
:100300009A87898789859A85892B69F714C06D81B9
:100310007E818F8198850E942A26DC01CB019A87F5
:10032000898789859A859E878D878D859E8501978A
:10033000F1F79E878D87CE010F9664ED0E947B0AB0
:10034000882309F086CF8F89988D298DFC01218320
:1003500069960FB6F894DEBF0FBECDBFDF91CF9187
:100360000895CF93DF9300D000D000D0CDB7DEB793
:100370009A8389836B834C833E832D8389819A8101
:100380002B81FC01208389819A812C81FC012183AE
:100390008D819E81892B51F089819A810E94E30190
:1003A00089819A816C810E94060104C089819A81A9
:1003B0000E94830226960FB6F894DEBF0FBECDBF13
:1003C000DF91CF910895CF93DF93CDB7DEB76897D4
:1003D0000FB6F894DEBF0FBECDBF988F8F8B83E52D
:1003E0008F878F89988DFC018081888B83E5898B2D
:1003F00081E48A8B72C080E090E0A8E4B2E4898353
:100400009A83AB83BC8320E030E44CE155E46981FE
:100410007A818B819C810E941027DC01CB018D8326
:100420009E83AF83B88720E030E040E85FE36D81D2
:100430007E818F8198850E94B32588232CF481E0EA
:1004400090E09A8789873FC020E03FEF4FE757E46D
:100450006D817E818F8198850E940B2718164CF53F
:1004600020E030E040E251E469817A818B819C8117
:100470000E941027DC01CB01BC01CD010E942A267D
:10048000DC01CB019A8789870FC08AEF90E09C87B7
:100490008B878B859C850197F1F79C878B87898556
:1004A0009A8501979A87898789859A85892B69F723
:1004B00014C06D817E818F8198850E942A26DC017F
:1004C000CB019A87898789859A859E878D878D85B7
:1004D0009E850197F1F79E878D87CE010F9664ED7B
:1004E0000E947B0A882309F086CF8F89988D21E0AE
:1004F000FC01228368960FB6F894DEBF0FBECDBF15
:10050000DF91CF910895CF93DF93CDB7DEB7689792
:100510000FB6F894DEBF0FBECDBF988F8F8B83E5EB
:100520008F878F89988DFC018081888B83E5898BEB
:1005300084E48A8B72C080E090E0A8E4B2E489830E
:100540009A83AB83BC8320E030E44CE155E46981BD
:100550007A818B819C810E941027DC01CB018D83E5
:100560009E83AF83B88720E030E040E85FE36D8191
:100570007E818F8198850E94B32588232CF481E0A9
:1005800090E09A8789873FC020E03FEF4FE757E42C
:100590006D817E818F8198850E940B2718164CF5FE
:1005A00020E030E040E251E469817A818B819C81D6
:1005B0000E941027DC01CB01BC01CD010E942A263C
:1005C000DC01CB019A8789870FC08AEF90E09C8776
:1005D0008B878B859C850197F1F79C878B87898515
:1005E0009A8501979A87898789859A85892B69F7E2
:1005F00014C06D817E818F8198850E942A26DC013E
:10060000CB019A87898789859A859E878D878D8575
:100610009E850197F1F79E878D87CE010F9664ED39
:100620000E947B0A882309F086CF8F89988DFC0170
:10063000128268960FB6F894DEBF0FBECDBFDF9171
:10064000CF910895CF93DF93CDB7DEB768970FB6FC
:10065000F894DEBF0FBECDBF988F8F8B82E58F875A
:100660008F89988DFC018081888B8F89988DFC0102
:100670008181898B72C080E090E0A8E4B2E4898334
:100680009A83AB83BC8320E030E44CE155E469817C
:100690007A818B819C810E941027DC01CB018D83A4
:1006A0009E83AF83B88720E030E040E85FE36D8150
:1006B0007E818F8198850E94B32588232CF481E068
:1006C00090E09A8789873FC020E03FEF4FE757E4EB
:1006D0006D817E818F8198850E940B2718164CF5BD
:1006E00020E030E040E251E469817A818B819C8195
:1006F0000E941027DC01CB01BC01CD010E942A26FB
:10070000DC01CB019A8789870FC08AEF90E09C8734
:100710008B878B859C850197F1F79C878B878985D3
:100720009A8501979A87898789859A85892B69F7A0
:1007300014C06D817E818F8198850E942A26DC01FC
:10074000CB019A87898789859A859E878D878D8534
:100750009E850197F1F79E878D87CE010F9664EDF8
:100760000E947B0A882309F086CF68960FB6F8941A
:10077000DEBF0FBECDBFDF91CF910895CF93DF9342
:10078000CDB7DEB768970FB6F894DEBF0FBECDBF0A
:10079000988F8F8B8DE48F878F89988DFC01808156
:1007A000888B8F89988DFC018181898B72C080E054
:1007B00090E0A8E4B2E489839A83AB83BC8320E011
:1007C00030E44CE155E469817A818B819C810E94FF
:1007D0001027DC01CB018D839E83AF83B88720E097
:1007E00030E040E85FE36D817E818F8198850E94D3
:1007F000B32588232CF481E090E09A8789873FC055
:1008000020E03FEF4FE757E46D817E818F8198852F
:100810000E940B2718164CF520E030E040E251E42E
:1008200069817A818B819C810E941027DC01CB0138
:10083000BC01CD010E942A26DC01CB019A87898761
:100840000FC08AEF90E09C878B878B859C850197F2
:10085000F1F79C878B8789859A8501979A87898785
:1008600089859A85892B69F714C06D817E818F8176
:1008700098850E942A26DC01CB019A878987898581
:100880009A859E878D878D859E850197F1F79E8736
:100890008D87CE010F9664ED0E947B0A882309F0B4
:1008A00086CF68960FB6F894DEBF0FBECDBFDF913E
:1008B000CF910895CF93DF93CDB7DEB72E970FB6C4
:1008C000F894DEBF0FBECDBF8AE290E02AE230E0AE
:1008D000F9012081237FFC01208388EC90E0FC015A
:1008E000108289EC90E028E1FC0120838AEC90E002
:1008F00026E0FC0120838DEC90E0FC0110828CEC62
:1009000090E025E0FC01208380E090E0A8ECB2E4D8
:1009100089839A83AB83BC8320E030E44CE155E4C7
:1009200069817A818B819C810E941027DC01CB0137
:100930008D839E83AF83B88720E030E040E85FE39B
:100940006D817E818F8198850E94B32588232CF448
:1009500081E090E09A8789873FC020E03FEF4FE732
:1009600057E46D817E818F8198850E940B27181630
:100970004CF520E030E040E251E469817A818B81DE
:100980009C810E941027DC01CB01BC01CD010E949B
:100990002A26DC01CB019A8789870FC08AEF90E075
:1009A0009C878B878B859C850197F1F79C878B872C
:1009B00089859A8501979A87898789859A85892B60
:1009C00069F714C06D817E818F8198850E942A26E7
:1009D000DC01CB019A87898789859A859E878D87D7
:1009E0008D859E850197F1F79E878D872E960FB690
:1009F000F894DEBF0FBECDBFDF91CF910895CF93A6
:100A0000DF931F92CDB7DEB78983000088EC90E0BA
:100A1000FC018081882F90E080729927892BB1F3A7
:100A20008EEC90E02981FC0120830F90DF91CF9123
:100A30000895CF93DF93CDB7DEB7000088EC90E048
:100A4000FC0180818823D4F78EEC90E0FC0180814A
:100A5000DF91CF910895CF93DF93CDB7DEB727977E
:100A60000FB6F894DEBF0FBECDBF27E0CE010196D2
:100A7000FC01322F11923A95E9F70E9419058983FA
:100A80000E9419058A830E9419058B830E9419050B
:100A90008C830E9419058D830E9419058E832796E9
:100AA0000FB6F894DEBF0FBECDBFDF91CF91089592
:100AB000CF93DF93CDB7DEB7000088EC90E0FC0168
:100AC0008081882F90E080749927892BB1F389EC7D
:100AD00090E029EC30E0F9012081277FFC012083A0
:100AE00088EC90E028EC30E0F90120812064FC01E2
:100AF0002083DF91CF910895CF93DF93CDB7DEB7F9
:100B000089EC90E029EC30E0F90120812860FC01BB
:100B10002083DF91CF910895CF93DF93CDB7DEB7D8
:100B200089EC90E029EC30E0F90120812F7EFC0176
:100B30002083DF91CF910895CF93DF93CDB7DEB7B8
:100B400089EC90E029EC30E0F90120812061FC0182
:100B50002083DF91CF910895CF93DF93CDB7DEB798
:100B60006A970FB6F894DEBF0FBECDBF9E8B8D8BFC
:100B7000788F6F8B498F2A8F8D899E89CC01A0E059
:100B8000B0E0BC01CD010E945926DC01CB0120E080
:100B900030E046E953E4BC01CD010E94B825DC01F8
:100BA000CB0120E030EC4FE754E4BC01CD010E94C2
:100BB0001027DC01CB01BC01CD010E942A26DC01FB
:100BC000CB019E8B8D8B8D899E89892F9927898357
:100BD0008D898A83898D882F90E0982F8827990F97
:100BE000990F9C018F89988D822B932B988F8F8BD7
:100BF0008F89988D892F99278B838F898C838A8DF4
:100C0000882F90E09C01285D3F4F8B81882F90E0DA
:100C1000280F391F8C81882F90E0280F391F898178
:100C2000882F90E0280F391F8A81882F90E0820F4B
:100C3000931F809590959E838D830E948C058FEFE6
:100C40000E94FF048FEF0E94FF048A8D0E94FF0420
:100C500087E00E94FF0483E00E94FF048EE10E946F
:100C6000FF048A810E94FF0489810E94FF048C8115
:100C70000E94FF048B810E94FF048D810E94FF046B
:100C80000E9458050E949C0580E090E0A8E4B2E430
:100C90008F839887A987BA8720E030E44CE155E438
:100CA0006F81788589859A850E941027DC01CB01A8
:100CB0008B879C87AD87BE8720E030E040E85FE30C
:100CC0006B857C858D859E850E94B32588232CF4B9
:100CD00081E090E0988B8F873FC020E03FEF4FE7A7
:100CE00057E46B857C858D859E850E940B271816A1
:100CF0004CF520E030E040E251E46F817885898551
:100D00009A850E941027DC01CB01BC01CD010E9415
:100D10002A26DC01CB01988B8F870FC08AEF90E0E9
:100D20009A8B898B89899A890197F1F79A8B898B9C
:100D30008F8598890197988B8F878F859889892BC4
:100D400069F714C06B857C858D859E850E942A2657
:100D5000DC01CB01988B8F878F8598899C8B8B8B3F
:100D60008B899C890197F1F79C8B8B8B0E947C056A
:100D70006A960FB6F894DEBF0FBECDBFDF91CF915C
:100D80000895CF93DF93CDB7DEB760970FB6F89491
:100D9000DEBF0FBECDBF8CEE9FEF9A8389830E948A
:100DA0008C058FEF0E94FF048FEF0E94FF0481E00B
:100DB0000E94FF0487E00E94FF0483E00E94FF047A
:100DC00086E00E94FF0480E00E94FF0480E00E9411
:100DD000FF048FEF0E94FF0483E00E94FF048981DB
:100DE0000E94FF040E9458050E949C0580E090E04C
:100DF000A8E4B2E48B839C83AD83BE8320E030E41F
:100E00004CE155E46B817C818D819E810E9410278D
:100E1000DC01CB018F839887A987BA8720E030E077
:100E200040E85FE36F81788589859A850E94B325C4
:100E300088232CF481E090E09C878B873FC020E0E2
:100E40003FEF4FE757E46F81788589859A850E9447
:100E50000B2718164CF520E030E040E251E46B819E
:100E60007C818D819E810E941027DC01CB01BC0119
:100E7000CD010E942A26DC01CB019C878B870FC005
:100E80008AEF90E09E878D878D859E850197F1F78B
:100E90009E878D878B859C8501979C878B878B850B
:100EA0009C85892B69F714C06F81788589859A851F
:100EB0000E942A26DC01CB019C878B878B859C8531
:100EC000988B8F878F8598890197F1F7988B8F87FB
:100ED0000E947C0560960FB6F894DEBF0FBECDBFB2
:100EE000DF91CF910895CF93DF93CDB7DEB72897E9
:100EF0000FB6F894DEBF0FBECDBF9E838D8378877B
:100F00006F831A8219821C821B828F8198859A8333
:100F100089838D819E81982F8827990F990F298128
:100F20003A81822B932B9A83898389819A8189962E
:100F3000809590959C838B830E948C058FEF0E94F7
:100F4000FF048FEF0E94FF0481E00E94FF0485E010
:100F50000E94FF0483E00E94FF0480E20E94FF04DD
:100F600089810E94FF0489819A81892F99270E9493
:100F7000FF048B810E94FF040E9458050E949C057B
:100F80000E942B050E947C0528960FB6F894DEBFC0
:100F90000FBECDBFDF91CF9108951F920F920090A9
:100FA0005F000F92112400905B000F922F933F93EC
:100FB0004F935F938F939F93EF93FF93CF93DF9321
:100FC00000D000D0CDB7DEB78DEE90E0FC0180817F
:100FD0008B831982A4C08DEE90E029812295207F19
:100FE000FC0120838EEE90E0FC0180818295869545
:100FF0008770882F90E081709927892B09F470C041
:101000008FEE90E020E8FC0120838EEE90E02EEE43
:1010100030E0F90120812F7DFC01208382EF90E0F8
:10102000FC018081829586958770282F83EF90E060
:10103000FC018081882F90E0880F991F880F991FED
:10104000880F991F822B8C831A8226C08C81882F4F
:1010500090E081509048880F991F82569E4FFC0166
:10106000208131818C81882F90E001978E549E4F92
:10107000FC018081482F50E08A81882F90E0840F06
:10108000951F820F931F2AEF30E0F9012081FC01A8
:1010900020838A818F5F8A838A818830B8F28C812D
:1010A000882F90E001978E549E4FFC0120812F5F86
:1010B000FC012083253041F48C81882F90E001973A
:1010C0008E549E4FFC0110828C81882F90E00197F6
:1010D0008A539E4FFC0120812F5FFC01208323C097
:1010E0008EEE90E0FC0180818295869586958370D6
:1010F000882F90E081709927892B71F08FEE90E016
:10110000FC0110828EEE90E02EEE30E0F90120819D
:101110002F7BFC01208307C089818F5F89838981B0
:101120008F3008F458CF8DEE90E02B81FC012083A6
:101130000F900F900F900F90DF91CF91FF91EF9153
:101140009F918F915F914F913F912F910F900092BE
:101150005B000F9000925F000F901F901895CF9347
:10116000DF9300D0CDB7DEB788ED90E021E0FC0141
:10117000208319823EC08DEE90E029812295207F48
:10118000FC0120838EEE90E0FC0110828FEE90E057
:10119000FC01108283EF90E0FC01108282EF90E06E
:1011A000FC01108281EF90E0FC01108280EF90E062
:1011B000FC01108287EF90E0FC01108286EF90E046
:1011C000FC01108285EF90E0FC01108284EF90E03A
:1011D000FC0110821A8207C08AEF90E0FC011082A5
:1011E0008A818F5F8A838A818830B0F389818F5F9B
:1011F000898389818F3008F4BECF88ED90E022E0AA
:10120000FC01208382EE90E021E0FC01208383EE4C
:1012100090E028E0FC01208384EE90E02EE5FC01C4
:10122000208385EE90E0FC0110828BED90E020EBB6
:10123000FC0120838FED90E02FE7FC0120838EEDF1
:1012400090E02FEFFC01208378940F900F90DF91B6
:10125000CF910895CF93DF9300D000D0CDB7DEB704
:101260009C838B838DEE90E0FC0180818A8300005B
:1012700089ED90E0FC01808182958F70882F90E04D
:1012800081709927892BA1F789ED90E0FC0180817D
:10129000869586958695882F90E081709927892B71
:1012A00039F7198249C08DEE90E029812295207F7F
:1012B000FC0120838FEE90E0FC0180818295869571
:1012C00086958370882321F089818F5F898334C05C
:1012D0008FEE90E02FE0FC01208383EF90E02B81E4
:1012E0003C81332736952795369527953695279552
:1012F000FC01208382EF90E02B812295220F207E3B
:10130000FC01208386EF90E020EEFC01208387EF34
:1013100090E02FEFFC0120838FEE90E02FEE30E085
:10132000F90120812068FC0120838DEE90E02A8164
:10133000FC01208381E00AC089818F3008F4B3CF9B
:101340008DEE90E02A81FC01208380E00F900F90C9
:101350000F900F90DF91CF9108950F931F93CF932C
:10136000DF9300D0CDB7DEB78A830E94AF08198221
:1013700030C08981882F90E001960E942A098981D6
:10138000882F90E0880F991F8C0102561E4F61E054
:1013900070E085E090E00E947D27F80191838083D2
:1013A0008981882F90E02981222F30E04981442FC4
:1013B00050E060E04A535E4FFA01608324543E4F90
:1013C000F90160838E549E4FFC01608389818F5F99
:1013D000898399818A81981760F20F900F90DF912D
:1013E000CF911F910F910895CF93DF931F92CDB7A7
:1013F000DEB789838981882F90E001978A539E4FB9
:10140000FC0180810F90DF91CF910895CF93DF93FE
:1014100000D000D0CDB7DEB79B838A836C8384E392
:1014200090E02FEFFC01208300008C81882F90E05A
:1014300001978A539E4FFC0180818823B1F3198262
:101440002CC08981882F90E02A813B81820F931FD5
:101450002C81222F30E021503048220F331F22569A
:101460003E4FF901408151812C81222F30E02150E3
:10147000310924543E4FF9012081622F70E0298107
:10148000222F30E0260F371F240F351FF90120814E
:10149000FC01208389818F5F89838981883088F26C
:1014A0008C81882F90E0019784549E4FFC0120810D
:1014B0002F5FFC012083253041F48C81882F90E040
:1014C000019784549E4FFC0110828C81882F90E0FC
:1014D00001979C012A533E4FF901208121508A53E4
:1014E0009E4FFC01208380E00F900F900F900F9093
:1014F000DF91CF910895CF93DF9300D000D000D03B
:10150000CDB7DEB79D838C836E83000089ED90E0BC
:10151000FC01808182958F70882F90E081709927DF
:10152000892BA1F789ED90E0FC0180818695869555
:101530008695882F90E081709927892B39F78DEE59
:1015400090E0FC0180818B831A8215C08DEE90E0C3
:101550002A812295207FFC0120838FEE90E0FC0100
:1015600080818295869586958370882309F406C0CC
:101570008A818F5F8A838A818F3040F38A818F309E
:1015800011F48FEF39C082EF90E02E812295220F67
:10159000207EFC01208383EF90E02E812695269506
:1015A0002695FC0120838FEE90E028E0FC0120834B
:1015B000198210C08AEF90E02981222F30E04C81FF
:1015C0005D81240F351FF9012081FC012083898171
:1015D0008F5F89838981883068F38FEE90E02FEEEA
:1015E00030E0F90120812064FC0120838DEE90E041
:1015F0002B81FC01208380E026960FB6F894DEBF95
:101600000FBECDBFDF91CF910895CF93DF93CDB7BC
:10161000DEB7DF91CF910895CF93DF9300D000D054
:1016200000D0CDB7DEB79A8389837C836B835E83DA
:101630004D838D819E8129813A81FC0131832083F4
:1016400089819A812D813E81FC01338322838981A6
:101650009A812B813C81FC01318320838B819C8189
:1016600029813A81FC013383228326960FB6F894B0
:10167000DEBF0FBECDBFDF91CF910895CF93DF9333
:1016800000D000D0CDB7DEB79A8389837C836B838B
:101690008B819C81FC01428153812B813C8189811A
:1016A0009A81B9010E940C0B0F900F900F900F9030
:1016B000DF91CF910895CF93DF93CDB7DEB72B970E
:1016C0000FB6F894DEBF0FBECDBF89876A874B8700
:1016D00080910D0190910E019C838B838B819C8165
:1016E00005979A83898315C089819A81FC0190812D
:1016F0008985981711F481E0BCC089819A81FC0129
:10170000878190859E838D838D819E8105979A83A5
:10171000898389819A8105968B50914029F7898523
:101720008695869586958F5F8F8389858770888754
:101730008A85813009F055C08F81882F90E09C0107
:1017400021503109C901880F991F820F931F81967B
:10175000AC018F81882F90E09C0121503109C90193
:10176000880F991F820F931F8196FC018081682F3B
:101770008885282F30E081E090E002C0880F991F13
:101780002A95E2F7862BFA0180838F81882F90E0DB
:101790009C0121503109C901880F991F820F931FA5
:1017A0008296AC018F81882F90E09C0121503109F5
:1017B000C901880F991F820F931F8296FC018081B7
:1017C000682F8885282F30E081E090E002C0880FE4
:1017D000991F2A95E2F780958623FA01808380E09D
:1017E00048C08F81882F90E09C0121503109C901A8
:1017F000880F991F820F931F8196AC018F81882FCC
:1018000090E09C0121503109C901880F991F820F76
:10181000931F8196FC018081682F8885282F30E0F6
:1018200081E090E002C0880F991F2A95E2F7809529
:101830008623FA01808389E090E00E94B9279A8389
:10184000898389819A81892B11F481E012C0898171
:101850009A812985FC01208389819A812B85FC014D
:10186000218389819A8105966BE071E00E943E0B8D
:1018700080E02B960FB6F894DEBF0FBECDBFDF9190
:10188000CF910895CF93DF9300D000D0CDB7DEB7CE
:101890008B836C838B818695869586958F5F8983F4
:1018A0008B8187708B838981882F90E09C012150E8
:1018B0003109C901880F991F820F931F8296FC017D
:1018C00080819181A281B3818A838C81882331F1C7
:1018D0008981882F90E09C0121503109C901880F2E
:1018E000991F820F931F8296AC018A81282F30E0C6
:1018F0008B81682F70E081E090E002C0880F991F13
:101900006A95E2F7822B932B092E000CAA0BBB0BD6
:10191000FA0180839183A283B38327C08981882FB2
:1019200090E09C0121503109C901880F991F820F55
:10193000931F8296AC018A81282F30E08B81682F1B
:1019400070E081E090E002C0880F991F6A95E2F78D
:101950008095909582239323092E000CAA0BBB0B34
:10196000FA0180839183A283B38380E00F900F906C
:101970000F900F90DF91CF910895CF93DF9300D018
:101980001F92CDB7DEB78B838B8186958695869522
:101990008F5F89838B8187708B838981882F90E00B
:1019A0009C0121503109C901880F991F820F931F93
:1019B0008096FC0180818A838A81882F90E02B8128
:1019C000222F30E002C0959587952A95E2F7817025
:1019D0000F900F900F90DF91CF910895CF93DF93E9
:1019E000CDB7DEB729970FB6F894DEBF0FBECDBFD7
:1019F000898780910D0190910E019D838C838C814C
:101A00009D8105979A83898355C089819A81FC01BC
:101A100090818985981709F041C01B821FC08B8176
:101A2000882F90E029813A81820F931F0296FC0152
:101A300040818B81882F90E0019629813A81820F25
:101A4000931F0296FC018081481729F089819A81B1
:101A5000FC01848137C08B818F5F8B838B818823CE
:101A6000F1F289819A81FC01918181E089278823A3
:101A700029F089819A81FC01828108C089819A813B
:101A8000FC01928181E0992309F080E088878981B7
:101A90009A812885FC012483888514C089819A81D4
:101AA000FC01878190859F838E838E819F8105971E
:101AB0009A83898389819A8105968B50914009F098
:101AC000A4CF81E029960FB6F894DEBF0FBECDBF3C
:101AD000DF91CF9108950F931F93CF93DF9300D0A1
:101AE00000D000D0CDB7DEB780910D0190910E01EE
:101AF0009C838B838B819C8105979A8389831EC0ED
:101B00000091D2011091D30189819A81FC018081D9
:101B10000E94BD0C282F89819A81800F911F029607
:101B2000FC01208389819A81FC01878190859E83B5
:101B30008D838D819E8105979A83898389819A817E
:101B400005968B509140E1F68091D2019091D3019E
:101B500001969093D3018093D201029721F41092C1
:101B6000D3011092D20126960FB6F894DEBF0FBEB5
:101B7000CDBFDF91CF911F910F910895CF93DF9348
:101B8000CDB7DEB767970FB6F894DEBF0FBECDBFF7
:101B90008F8B8091D4019F89981709F482C086E5C4
:101BA0008F878F89888B72C080E090E0A8E4B2E4D0
:101BB00089839A83AB83BC8320E030E44CE155E415
:101BC00069817A818B819C810E941027DC01CB0185
:101BD0008D839E83AF83B88720E030E040E85FE3E9
:101BE0006D817E818F8198850E94B32588232CF496
:101BF00081E090E09A8789873FC020E03FEF4FE780
:101C000057E46D817E818F8198850E940B2718167D
:101C10004CF520E030E040E251E469817A818B812B
:101C20009C810E941027DC01CB01BC01CD010E94E8
:101C30002A26DC01CB019A8789870FC08AEF90E0C2
:101C40009C878B878B859C850197F1F79C878B8779
:101C500089859A8501979A87898789859A85892BAD
:101C600069F714C06D817E818F8198850E942A2634
:101C7000DC01CB019A87898789859A859E878D8724
:101C80008D859E850197F1F79E878D87CE010F96F2
:101C900063EC0E947B0A882309F086CF8F898093AA
:101CA000D40167960FB6F894DEBF0FBECDBFDF91AB
:101CB000CF910895CF93DF93CDB7DEB766970FB678
:101CC000F894DEBF0FBECDBF80E58F8772C080E085
:101CD00090E0A8E4B2E489839A83AB83BC8320E0DC
:101CE00030E44CE155E469817A818B819C810E94CA
:101CF0001027DC01CB018D839E83AF83B88720E062
:101D000030E040E85FE36D817E818F8198850E949D
:101D1000B32588232CF481E090E09A8789873FC01F
:101D200020E03FEF4FE757E46D817E818F819885FA
:101D30000E940B2718164CF520E030E040E251E4F9
:101D400069817A818B819C810E941027DC01CB0103
:101D5000BC01CD010E942A26DC01CB019A8789872C
:101D60000FC08AEF90E09C878B878B859C850197BD
:101D7000F1F79C878B8789859A8501979A87898750
:101D800089859A85892B69F714C06D817E818F8141
:101D900098850E942A26DC01CB019A87898789854C
:101DA0009A859E878D878D859E850197F1F79E8701
:101DB0008D87CE010F9663EC0E947B0A882309F081
:101DC00086CFCE010F9661E00E94060A8F85809330
:101DD00015018889882F90E0382F22278989882F3C
:101DE00090E0822B932B9093100180930F018A89AE
:101DF000882F90E0382F22278B89882F90E0822B24
:101E0000932B90931201809311018C89882F90E07D
:101E1000382F22278D89882F90E0822B932B909347
:101E200014018093130166960FB6F894DEBF0FBEBF
:101E3000CDBFDF91CF910895CF93DF9300D000D035
:101E400000D0CDB7DEB79E838D830E945916DC018A
:101E5000CB0189839A83AB83BC830E945A0E8D8108
:101E60009E81892B71F089819A81AB81BC812D8102
:101E70003E81BC01CD01F9010995813011F481E069
:101E800009C0809115018D3441F38091150182358F
:101E900021F380E026960FB6F894DEBF0FBECDBFCB
:101EA000DF91CF910895CF93DF93CDB7DEB76797DA
:101EB0000FB6F894DEBF0FBECDBF8F8B8F898F8793
:101EC00072C080E090E0A8E4B2E489839A83AB8397
:101ED000BC8320E030E44CE155E469817A818B8158
:101EE0009C810E941027DC01CB018D839E83AF83F0
:101EF000B88720E030E040E85FE36D817E818F812C
:101F000098850E94B32588232CF481E090E09A877D
:101F100089873FC020E03FEF4FE757E46D817E8126
:101F20008F8198850E940B2718164CF520E030E031
:101F300040E251E469817A818B819C810E94102763
:101F4000DC01CB01BC01CD010E942A26DC01CB01C2
:101F50009A8789870FC08AEF90E09C878B878B8553
:101F60009C850197F1F79C878B8789859A850197D6
:101F70009A87898789859A85892B69F714C06D812D
:101F80007E818F8198850E942A26DC01CB019A8769
:101F9000898789859A859E878D878D859E850197FE
:101FA000F1F79E878D87CE010F9663EC0E947B0A26
:101FB000882309F086CF0E945A0E809115018D3436
:101FC00009F47CCF80911501823509F477CF6796AB
:101FD0000FB6F894DEBF0FBECDBFDF91CF9108954D
:101FE000CF93DF93CDB7DEB76B970FB6F894DEBF14
:101FF0000FBECDBF988F8F8B698F5B8F4A8F898D76
:102000000E94BE0D84E48F878F89988D892F990F48
:10201000990B888B8F89898B72C080E090E0A8E44F
:10202000B2E489839A83AB83BC8320E030E44CE143
:1020300055E469817A818B819C810E941027DC01A3
:10204000CB018D839E83AF83B88720E030E040E8EA
:102050005FE36D817E818F8198850E94B3258823FF
:102060002CF481E090E09A8789873FC020E03FEF21
:102070004FE757E46D817E818F8198850E940B2701
:1020800018164CF520E030E040E251E469817A8195
:102090008B819C810E941027DC01CB01BC01CD010A
:1020A0000E942A26DC01CB019A8789870FC08AEF1C
:1020B00090E09C878B878B859C850197F1F79C87A7
:1020C0008B8789859A8501979A87898789859A85DB
:1020D000892B69F714C06D817E818F8198850E945C
:1020E0002A26DC01CB019A87898789859A859E8774
:1020F0008D878D859E850197F1F79E878D87CE010F
:102100000F9663EC0E947B0A882309F086CF8A8DA4
:102110009B8D0E941C0F6B960FB6F894DEBF0FBE0E
:10212000CDBFDF91CF910895CF93DF93CDB7DEB7C9
:102130006C970FB6F894DEBF0FBECDBF988F8F8B14
:10214000698F4A8F3C8F2B8F898D0E94BE0D87E44B
:102150008F878F89988DFC0180819181892F990FBC
:10216000990B888B8F89988DFC0180819181898B57
:102170008F89988DFC0182819381892F990F990B0A
:102180008A8B8F89988DFC01828193818B8B1C8A2D
:102190008A8D8D8B72C080E090E0A8E4B2E48983E0
:1021A0009A83AB83BC8320E030E44CE155E4698141
:1021B0007A818B819C810E941027DC01CB018D8369
:1021C0009E83AF83B88720E030E040E85FE36D8115
:1021D0007E818F8198850E94B32588232CF481E02D
:1021E00090E09A8789873FC020E03FEF4FE757E4B0
:1021F0006D817E818F8198850E940B2718164CF582
:1022000020E030E040E251E469817A818B819C8159
:102210000E941027DC01CB01BC01CD010E942A26BF
:10222000DC01CB019A8789870FC08AEF90E09C87F9
:102230008B878B859C850197F1F79C878B87898598
:102240009A8501979A87898789859A85892B69F765
:1022500014C06D817E818F8198850E942A26DC01C1
:10226000CB019A87898789859A859E878D878D85F9
:102270009E850197F1F79E878D87CE010F9663ECBF
:102280000E947B0A882309F086CF8B8D9C8D0E944B
:102290001C0F6C960FB6F894DEBF0FBECDBFDF915A
:1022A000CF910895CF93DF93CDB7DEB768970FB680
:1022B000F894DEBF0FBECDBF988F8F8B89E48F87D8
:1022C0008F89988DFC0180819181892F990F990BBD
:1022D000888B8F89988DFC0180819181898B8F8972
:1022E000988DFC0182819381892F990F990B8A8B9C
:1022F0008F89988DFC01828193818B8B8F89988D3A
:10230000FC0184819581892F990F990B8C8B8F8982
:10231000988DFC01848195818D8B8F89988DFC012E
:10232000808191819093100180930F018F89988D06
:10233000FC018281938190931201809311018F8916
:10234000988DFC01848195819093140180931301F1
:1023500072C080E090E0A8E4B2E489839A83AB8302
:10236000BC8320E030E44CE155E469817A818B81C3
:102370009C810E941027DC01CB018D839E83AF835B
:10238000B88720E030E040E85FE36D817E818F8197
:1023900098850E94B32588232CF481E090E09A87E9
:1023A00089873FC020E03FEF4FE757E46D817E8192
:1023B0008F8198850E940B2718164CF520E030E09D
:1023C00040E251E469817A818B819C810E941027CF
:1023D000DC01CB01BC01CD010E942A26DC01CB012E
:1023E0009A8789870FC08AEF90E09C878B878B85BF
:1023F0009C850197F1F79C878B8789859A85019742
:102400009A87898789859A85892B69F714C06D8198
:102410007E818F8198850E942A26DC01CB019A87D4
:10242000898789859A859E878D878D859E85019769
:10243000F1F79E878D87CE010F9663EC0E947B0A91
:10244000882309F086CF68960FB6F894DEBF0FBEDA
:10245000CDBFDF91CF910895CF93DF93CDB7DEB796
:102460006B970FB6F894DEBF0FBECDBF988F8F8BE2
:10247000698F5B8F4A8F898D0E94BE0D84E58F879F
:102480008F89988D892F9927888B8F89898B72C026
:1024900080E090E0A8E4B2E489839A83AB83BC83B4
:1024A00020E030E44CE155E469817A818B819C81A4
:1024B0000E941027DC01CB018D839E83AF83B887F8
:1024C00020E030E040E85FE36D817E818F81988578
:1024D0000E94B32588232CF481E090E09A878987B5
:1024E0003FC020E03FEF4FE757E46D817E818F8151
:1024F00098850E940B2718164CF520E030E040E24A
:1025000051E469817A818B819C810E941027DC01D2
:10251000CB01BC01CD010E942A26DC01CB019A87A8
:1025200089870FC08AEF90E09C878B878B859C857D
:102530000197F1F79C878B8789859A8501979A8700
:10254000898789859A85892B69F714C06D817E8179
:102550008F8198850E942A26DC01CB019A87898782
:1025600089859A859E878D878D859E850197F1F750
:102570009E878D87CE010F9663EC0E947B0A88238D
:1025800009F086CF8A8D9B8D0E941C0F6B960FB62B
:10259000F894DEBF0FBECDBFDF91CF910895CF93EA
:1025A000DF93CDB7DEB76B970FB6F894DEBF0FBEE3
:1025B000CDBF988F8F8B698F5B8F4A8F898D0E94DB
:1025C000BE0D81E48F878F89988D892F9927888BFD
:1025D0008F89898B72C080E090E0A8E4B2E489839F
:1025E0009A83AB83BC8320E030E44CE155E46981FD
:1025F0007A818B819C810E941027DC01CB018D8325
:102600009E83AF83B88720E030E040E85FE36D81D0
:102610007E818F8198850E94B32588232CF481E0E8
:1026200090E09A8789873FC020E03FEF4FE757E46B
:102630006D817E818F8198850E940B2718164CF53D
:1026400020E030E040E251E469817A818B819C8115
:102650000E941027DC01CB01BC01CD010E942A267B
:10266000DC01CB019A8789870FC08AEF90E09C87B5
:102670008B878B859C850197F1F79C878B87898554
:102680009A8501979A87898789859A85892B69F721
:1026900014C06D817E818F8198850E942A26DC017D
:1026A000CB019A87898789859A859E878D878D85B5
:1026B0009E850197F1F79E878D87CE010F9663EC7B
:1026C0000E947B0A882309F086CF8A8D9B8D0E9409
:1026D0001C0F6B960FB6F894DEBF0FBECDBFDF9117
:1026E000CF910895EF92FF920F93CF93DF93CDB7E1
:1026F000DEB76F970FB6F894DEBF0FBECDBF988FD1
:102700008F8B7A8F698F4B8F2C8F0D8FFF8EEE8E74
:102710008D8D0E94BE0D81E58F878F89988D892FC1
:102720009927888B8F89898B898D9A8D892F9927F5
:102730008A8B898D8B8B8B8D082E000C990B892FA2
:10274000990F990B8C8B8B8D8D8B8C8D8E8B72C092
:1027500080E090E0A8E4B2E489839A83AB83BC83F1
:1027600020E030E44CE155E469817A818B819C81E1
:102770000E941027DC01CB018D839E83AF83B88735
:1027800020E030E040E85FE36D817E818F819885B5
:102790000E94B32588232CF481E090E09A878987F2
:1027A0003FC020E03FEF4FE757E46D817E818F818E
:1027B00098850E940B2718164CF520E030E040E287
:1027C00051E469817A818B819C810E941027DC0110
:1027D000CB01BC01CD010E942A26DC01CB019A87E6
:1027E00089870FC08AEF90E09C878B878B859C85BB
:1027F0000197F1F79C878B8789859A8501979A873E
:10280000898789859A85892B69F714C06D817E81B6
:102810008F8198850E942A26DC01CB019A878987BF
:1028200089859A859E878D878D859E850197F1F78D
:102830009E878D87CE010F9663EC0E947B0A8823CA
:1028400009F086CF8E8D9F8D0E941C0F6F960FB65C
:10285000F894DEBF0FBECDBFDF91CF910F91FF90F7
:10286000EF900895CF93DF93CDB7DEB766970FB69D
:10287000F894DEBF0FBECDBF8BE48F8772C080E0BF
:1028800090E0A8E4B2E489839A83AB83BC8320E020
:1028900030E44CE155E469817A818B819C810E940E
:1028A0001027DC01CB018D839E83AF83B88720E0A6
:1028B00030E040E85FE36D817E818F8198850E94E2
:1028C000B32588232CF481E090E09A8789873FC064
:1028D00020E03FEF4FE757E46D817E818F8198853F
:1028E0000E940B2718164CF520E030E040E251E43E
:1028F00069817A818B819C810E941027DC01CB0148
:10290000BC01CD010E942A26DC01CB019A87898770
:102910000FC08AEF90E09C878B878B859C85019701
:10292000F1F79C878B8789859A8501979A87898794
:1029300089859A85892B69F714C06D817E818F8185
:1029400098850E942A26DC01CB019A878987898590
:102950009A859E878D878D859E850197F1F79E8745
:102960008D87CE010F9663EC0E947B0A882309F0C5
:1029700086CF66960FB6F894DEBF0FBECDBFDF914F
:10298000CF910895CF93DF93CDB7DEB70E945A0E53
:1029900080911501DF91CF910895CF93DF93CDB74B
:1029A000DEB70E945A0E80910F0190911001DF91C5
:1029B000CF910895CF93DF93CDB7DEB70E945A0E23
:1029C0008091110190911201DF91CF910895CF93E1
:1029D000DF93CDB7DEB70E945A0E8091130190911C
:1029E0001401DF91CF910895CF93DF9300D0CDB73D
:1029F000DEB79A83898389819A819093DB018093E2
:102A0000DA010F900F90DF91CF9108950F931F93EC
:102A1000CF93DF9300D0CDB7DEB79A83898380E868
:102A200090E0FC01108281E890E029E0FC01208325
:102A300008E810E089819A81CC01A0E0B0E0BC01F7
:102A4000CD010E945926DC01CB019C01AD0160E85B
:102A500076E988E19BE40E94B825DC01CB0120E007
:102A600030E040E05FE3BC01CD010E944725DC017E
:102A7000CB01BC01CD010E942A26DC01CB01F8016B
:102A8000918380838FE690E022E0FC0120838FE534
:102A900090E02FE530E0F90120812068FC012083DF
:102AA0000F900F90DF91CF911F910F9108951F927A
:102AB0000F9200905F000F92112400905B000F9224
:102AC0002F933F934F935F936F937F938F939F9336
:102AD000AF93BF93EF93FF93CF93DF93CDB7DEB761
:102AE0002E97DEBFCDBF8091DA019091DB01892B5B
:102AF00031F08091DA019091DB01FC010995809120
:102B0000D5019091D601A091D701B091D80180391B
:102B10009F45A140B10508F483C00E946A1688232E
:102B200009F47EC00E94321484E390E024E330E094
:102B3000F90120812095FC01208380E090E0AAE744
:102B4000B4E489839A83AB83BC8320E030E44CE116
:102B500055E469817A818B819C810E941027DC0178
:102B6000CB018D839E83AF83B88720E030E040E8BF
:102B70005FE36D817E818F8198850E94B3258823D4
:102B80002CF481E090E09A8789873FC020E03FEFF6
:102B90004FE757E46D817E818F8198850E940B27D6
:102BA00018164CF520E030E040E251E469817A816A
:102BB0008B819C810E941027DC01CB01BC01CD01DF
:102BC0000E942A26DC01CB019A8789870FC08AEFF1
:102BD00090E09C878B878B859C850197F1F79C877C
:102BE0008B8789859A8501979A87898789859A85B0
:102BF000892B69F714C06D817E818F8198850E9431
:102C00002A26DC01CB019A87898789859A859E8748
:102C10008D878D859E850197F1F79E878D8784CF5F
:102C20008091D5019091D601A091D701B091D801A2
:102C30000196A11DB11D8093D5019093D601A0935B
:102C4000D701B093D8012E960FB6F894DEBF0FBE11
:102C5000CDBFDF91CF91FF91EF91BF91AF919F9148
:102C60008F917F916F915F914F913F912F910F9035
:102C700000925B000F9000925F000F901F901895DC
:102C8000CF93DF93CDB7DEB71092D5011092D60166
:102C90001092D7011092D801DF91CF910895CF9370
:102CA000DF93CDB7DEB781E08093D901DF91CF917B
:102CB0000895CF93DF93CDB7DEB78091D501909182
:102CC000D601A091D701B091D801BC01CD01DF910F
:102CD000CF910895CF93DF93CDB7DEB78091D9011F
:102CE000DF91CF9108951F920F9200905F000F9295
:102CF00011248F93CF93DF93CDB7DEB781E080931C
:102D0000DE01DF91CF918F910F9000925F000F90C5
:102D10001F901895CF93DF93CDB7DEB72E970FB6E0
:102D2000F894DEBF0FBECDBF8DE290E02DE230E023
:102D3000F90120812F77FC0120838EE290E02EE2C2
:102D400030E0F90120812068FC0120838AE690E0D0
:102D500020E4FC0120838DE390E02DE330E0F901D5
:102D600020812068FC01208380E090E0A8ECB2E4A0
:102D700089839A83AB83BC8320E030E44CE155E443
:102D800069817A818B819C810E941027DC01CB01B3
:102D90008D839E83AF83B88720E030E040E85FE317
:102DA0006D817E818F8198850E94B32588232CF4C4
:102DB00081E090E09A8789873FC020E03FEF4FE7AE
:102DC00057E46D817E818F8198850E940B271816AC
:102DD0004CF520E030E040E251E469817A818B815A
:102DE0009C810E941027DC01CB01BC01CD010E9417
:102DF0002A26DC01CB019A8789870FC08AEF90E0F1
:102E00009C878B878B859C850197F1F79C878B87A7
:102E100089859A8501979A87898789859A85892BDB
:102E200069F714C06D817E818F8198850E942A2662
:102E3000DC01CB019A87898789859A859E878D8752
:102E40008D859E850197F1F79E878D8778942E96C4
:102E50000FB6F894DEBF0FBECDBFDF91CF910895BE
:102E6000CF93DF93CDB7DEB72E970FB6F894DEBFC2
:102E70000FBECDBF72C080E090E0A0E2B1E48983D4
:102E80009A83AB83BC8320E030E44CE155E4698154
:102E90007A818B819C810E941027DC01CB018D837C
:102EA0009E83AF83B88720E030E040E85FE36D8128
:102EB0007E818F8198850E94B32588232CF481E040
:102EC00090E09A8789873FC020E03FEF4FE757E4C3
:102ED0006D817E818F8198850E940B2718164CF595
:102EE00020E030E040E251E469817A818B819C816D
:102EF0000E941027DC01CB01BC01CD010E942A26D3
:102F0000DC01CB019A8789870FC08AEF90E09C870C
:102F10008B878B859C850197F1F79C878B878985AB
:102F20009A8501979A87898789859A85892B69F778
:102F300014C06D817E818F8198850E942A26DC01D4
:102F4000CB019A87898789859A859E878D878D850C
:102F50009E850197F1F79E878D878091DE018823FA
:102F600009F489CF2E960FB6F894DEBF0FBECDBF01
:102F7000DF91CF910895CF93DF93CDB7DEB7AA97B6
:102F80000FB6F894DEBF0FBECDBF8BE69DE00E946A
:102F9000F41480E090E0A8ECB2E489839A83AB83D8
:102FA000BC8320E030E44CE155E469817A818B8177
:102FB0009C810E941027DC01CB018D839E83AF830F
:102FC000B88720E030E040E85FE36D817E818F814B
:102FD00098850E94B32588232CF481E090E09A879D
:102FE00089873FC020E03FEF4FE757E46D817E8146
:102FF0008F8198850E940B2718164CF520E030E051
:1030000040E251E469817A818B819C810E94102782
:10301000DC01CB01BC01CD010E942A26DC01CB01E1
:103020009A8789870FC08AEF90E09C878B878B8572
:103030009C850197F1F79C878B8789859A850197F5
:103040009A87898789859A85892B69F714C06D814C
:103050007E818F8198850E942A26DC01CB019A8788
:10306000898789859A859E878D878D859E8501971D
:10307000F1F79E878D8741E060E080E00E945B0B66
:1030800080E090E0A8ECB2E48F87988BA98BBA8B94
:1030900020E030E44CE155E46F85788989899A898C
:1030A0000E941027DC01CB018B8B9C8BAD8BBE8BE0
:1030B00020E030E040E85FE36B897C898D899E8960
:1030C0000E94B32588232CF481E090E0988F8F8BA9
:1030D0003FC020E03FEF4FE757E46B897C898D8943
:1030E0009E890E940B2718164CF520E030E040E244
:1030F00051E46F85788989899A890E941027DC01BB
:10310000CB01BC01CD010E942A26DC01CB01988FA6
:103110008F8B0FC08AEF90E09A8F898F898D9A8D5F
:103120000197F1F79A8F898F8F89988D0197988FE2
:103130008F8B8F89988D892B69F714C06B897C8957
:103140008D899E890E942A26DC01CB01988F8F8B66
:103150008F89988D9C8F8B8F8B8D9C8D0197F1F72C
:103160009C8F8B8F83E390E02FEFFC01208384E31F
:1031700090E0FC01108288EE93E00E94061581E049
:103180000E94AD0980E090E0AAEFB3E48D8F9E8F9E
:10319000AF8FB8A320E030E44CE155E46D8D7E8D17
:1031A0008F8D98A10E941027DC01CB0189A39AA3DF
:1031B000ABA3BCA320E030E040E85FE369A17AA1C3
:1031C0008BA19CA10E94B32588232CF481E090E080
:1031D0009EA38DA33FC020E03FEF4FE757E469A1D6
:1031E0007AA18BA19CA10E940B2718164CF520E018
:1031F00030E040E251E46D8D7E8D8F8D98A10E946C
:103200001027DC01CB01BC01CD010E942A26DC0184
:10321000CB019EA38DA30FC08AEF90E098A78FA348
:103220008FA198A50197F1F798A78FA38DA19EA1D3
:1032300001979EA38DA38DA19EA1892B69F714C030
:1032400069A17AA18BA19CA10E942A26DC01CB0155
:103250009EA38DA38DA19EA19AA789A789A59AA5B2
:103260000197F1F79AA789A70E948A160E94301742
:1032700084E390E02FEFFC0120830E9440160E941F
:103280004F16AA960FB6F894DEBF0FBECDBFDF91E2
:10329000CF910895CF93DF93CDB7DEB7F89481E057
:1032A000DF91CF910895CF93DF9300D0CDB7DEB7F4
:1032B0009A8389838FE590E029813A81F901208101
:1032C000FC0120830F900F90DF91CF910895CF9351
:1032D000DF9300D0CDB7DEB79A83898381EC90E08D
:1032E000FC01108284EC90E02981FC01208385ECB4
:1032F00090E029813A81232F3327FC01208381EC40
:1033000090E028E9FC0120830F900F90DF91CF918E
:103310000895CF93DF9300D0CDB7DEB79A8389832A
:1033200089EC90E0FC0110828CEC90E02981FC019A
:1033300020838DEC90E029813A81232F3327FC01F3
:10334000208389EC90E028E9FC0120830F900F9006
:10335000DF91CF9108959091270293959F71B0913D
:103360000502B917E1F3A92FB0E0A45BBD4F8C9320
:10337000F894909327029091C10090629093C100BD
:1033800018951F93CF93DF9300D01F92CDB7DEB770
:103390008B83809127028F5F182F1F718091050208
:1033A000811711F480E026C08B81912FA92FB0E006
:1033B000A45BBD4F8C93192F8B838FE590E0FC01AC
:1033C00080818A830E944A1989830CC01093270246
:1033D00081EC90E021EC30E0F90120812062FC01D9
:1033E000208319828981882389F7CE0102960E9461
:1033F000531981E00F900F900F90DF91CF911F91A3
:103400000895CF93DF9300D0CDB7DEB79A83898339
:1034100029813A81F9018191882311F09CDFFBCF4A
:103420000F900F90DF91CF910895CF93DF9300D04D
:103430001F92CDB7DEB79A8389836B834B81298135
:103440003A81F9014E0F4E1719F0819184DFFBCFBD
:103450000F900F900F90DF91CF910895CF93DF934E
:1034600000D0CDB7DEB79A83898329813A81F901EB
:103470008591882311F06FDFFBCF0F900F90DF91C4
:10348000CF910895CF93DF93CDB7DEB729970FB6CD
:10349000F894DEBF0FBECDBF998788878885998550
:1034A0004AE050E09E012F5F3F4FB9010E9436294C
:1034B000CE0101960E94011A29960FB6F894DEBF3C
:1034C0000FBECDBFDF91CF910895CF93DF93CDB7DE
:1034D000DEB764970FB6F894DEBF0FBECDBF9B8BEF
:1034E0008A8B6C8B8C89282F30E08A899B89A90173
:1034F0009E012F5F3F4FB9010E943629CE010196F0
:103500000E94011A64960FB6F894DEBF0FBECDBFBD
:10351000DF91CF910895CF93DF93CDB7DEB7299791
:103520000FB6F894DEBF0FBECDBF99878887888518
:1035300099854AE050E09E012F5F3F4FB9010E94FC
:10354000B029CE0101960E94011A29960FB6F8946F
:10355000DEBF0FBECDBFDF91CF910895CF93DF9334
:10356000CDB7DEB764970FB6F894DEBF0FBECDBF00
:103570009B8B8A8B6C8B8C89282F30E08A899B8966
:10358000A9019E012F5F3F4FB9010E94B029CE01D2
:1035900001960E94011A64960FB6F894DEBF0FBE22
:1035A000CDBFDF91CF910895CF93DF9300D0CDB7FA
:1035B000DEB78A838A8182958F70898389818A3078
:1035C00018F48981805D02C08981895A0E94AB19F3
:1035D0008A818F70898389818A3018F48981805D1E
:1035E00002C08981895A0E94AB190F900F90DF9118
:1035F000CF910895CF93DF93CDB7DEB760970FB625
:10360000F894DEBF0FBECDBF6D877E878F87988B06
:103610008D859E85AF85B8892AE030E0AE014F5F89
:103620005F4FBC01CD010E944C29CE0101960E9442
:10363000011A60960FB6F894DEBF0FBECDBFDF91C2
:10364000CF910895CF93DF93CDB7DEB766970FB6CE
:10365000F894DEBF0FBECDBF6A8B7B8B8C8B9D8BAE
:103660004E8B8E89282F30E08A899B89AC89BD8951
:10367000AE014F5F5F4FBC01CD010E944C29CE01CE
:1036800001960E94011A66960FB6F894DEBF0FBE2F
:10369000CDBFDF91CF910895CF93DF93CDB7DEB744
:1036A00060970FB6F894DEBF0FBECDBF6D877E87E3
:1036B0008F87988B8D859E85AF85B8892AE030E00D
:1036C000AE014F5F5F4FBC01CD010E948329CE0147
:1036D00001960E94011A60960FB6F894DEBF0FBEE5
:1036E000CDBFDF91CF910895CF93DF93CDB7DEB7F4
:1036F00066970FB6F894DEBF0FBECDBF6A8B7B8B8B
:103700008C8B9D8B4E8B8E89282F30E08A899B89EC
:10371000AC89BD89AE014F5F5F4FBC01CD010E94F6
:103720008329CE0101960E94011A66960FB6F8947D
:10373000DEBF0FBECDBFDF91CF9108950F931F93D2
:10374000CF93DF93CDB7DEB766970FB6F894DEBFA1
:103750000FBECDBF6B8B7C8B8D8B9E8B9E012D5FA7
:103760003F4F8B899C89AD89BE89890126E04FE056
:10377000BC01CD010E949927CE0103969A838983CB
:1037800005C089819A8101969A83898389819A816A
:10379000FC0180818032A9F389819A810E94011AFB
:1037A00066960FB6F894DEBF0FBECDBFDF91CF9106
:1037B0001F910F9108950F931F93CF93DF93CDB770
:1037C000DEB767970FB6F894DEBF0FBECDBF6B8B29
:1037D0007C8B8D8B9E8B4F8B9E012D5F3F4F8B89FA
:1037E0009C89AD89BE8989012F894FE0BC01CD013B
:1037F0000E949927CE0103969A83898305C0898107
:103800009A8101969A83898389819A81FC018081BA
:103810008032A9F389819A810E94011A67960FB6B6
:10382000F894DEBF0FBECDBFDF91CF911F910F91F6
:103830000895CF93DF93CDB7DEB7000090910502D6
:10384000809127029817D1F7DF91CF910895909139
:103850004B0293959F71B0914902B917E1F3A92FDB
:10386000B0E0A95FBD4F8C93F89490934B02909178
:10387000C90090629093C90018951F93CF93DF936E
:1038800000D01F92CDB7DEB78B8380914B028F5F44
:10389000182F1F7180914902811711F480E026C012
:1038A0008B81912FA92FB0E0A95FBD4F8C93192F69
:1038B0008B838FE590E0FC0180818A830E944A1906
:1038C00089830CC010934B0289EC90E029EC30E026
:1038D000F90120812062FC012083198289818823DB
:1038E00089F7CE0102960E94531981E00F900F9044
:1038F0000F90DF91CF911F910895CF93DF9300D068
:10390000CDB7DEB79A83898329813A81F901819104
:10391000882311F09CDFFBCF0F900F90DF91CF91A8
:103920000895CF93DF9300D01F92CDB7DEB79A836F
:1039300089836B834B8129813A81F9014E0F4E17A0
:1039400019F0819184DFFBCF0F900F900F90DF91E2
:10395000CF910895CF93DF9300D0CDB7DEB79A8390
:10396000898329813A81F9018591882311F06FDFDC
:10397000FBCF0F900F90DF91CF910895CF93DF93FE
:10398000CDB7DEB729970FB6F894DEBF0FBECDBF17
:1039900099878887888599854AE050E09E012F5F46
:1039A0003F4FB9010E943629CE0101960E947D1C2D
:1039B00029960FB6F894DEBF0FBECDBFDF91CF9131
:1039C0000895CF93DF93CDB7DEB764970FB6F89421
:1039D000DEBF0FBECDBF9B8B8A8B6C8B8C89282F53
:1039E00030E08A899B89A9019E012F5F3F4FB90171
:1039F0000E943629CE0101960E947D1C64960FB666
:103A0000F894DEBF0FBECDBFDF91CF910895CF9365
:103A1000DF93CDB7DEB729970FB6F894DEBF0FBEA0
:103A2000CDBF99878887888599854AE050E09E01B7
:103A30002F5F3F4FB9010E94B029CE0101960E942D
:103A40007D1C29960FB6F894DEBF0FBECDBFDF9167
:103A5000CF910895CF93DF93CDB7DEB764970FB6BC
:103A6000F894DEBF0FBECDBF9B8B8A8B6C8B8C898D
:103A7000282F30E08A899B89A9019E012F5F3F4F43
:103A8000B9010E94B029CE0101960E947D1C649666
:103A90000FB6F894DEBF0FBECDBFDF91CF91089572
:103AA000CF93DF9300D0CDB7DEB78A838A8182952A
:103AB0008F70898389818A3018F48981805D02C082
:103AC0008981895A0E94271C8A818F708983898104
:103AD0008A3018F48981805D02C08981895A0E94E8
:103AE000271C0F900F90DF91CF910895CF93DF9314
:103AF000CDB7DEB760970FB6F894DEBF0FBECDBF6F
:103B00006D877E878F87988B8D859E85AF85B889D9
:103B10002AE030E0AE014F5F5F4FBC01CD010E9453
:103B20004C29CE0101960E947D1C60960FB6F89438
:103B3000DEBF0FBECDBFDF91CF910895CF93DF934E
:103B4000CDB7DEB766970FB6F894DEBF0FBECDBF18
:103B50006A8B7B8B8C8B9D8B4E8B8E89282F30E0D4
:103B60008A899B89AC89BD89AE014F5F5F4FBC01DB
:103B7000CD010E944C29CE0101960E947D1C6696C3
:103B80000FB6F894DEBF0FBECDBFDF91CF91089581
:103B9000CF93DF93CDB7DEB760970FB6F894DEBF53
:103BA0000FBECDBF6D877E878F87988B8D859E8555
:103BB000AF85B8892AE030E0AE014F5F5F4FBC01AE
:103BC000CD010E948329CE0101960E947D1C609642
:103BD0000FB6F894DEBF0FBECDBFDF91CF91089531
:103BE000CF93DF93CDB7DEB766970FB6F894DEBFFD
:103BF0000FBECDBF6A8B7B8B8C8B9D8B4E8B8E8942
:103C0000282F30E08A899B89AC89BD89AE014F5F3E
:103C10005F4FBC01CD010E948329CE0101960E9415
:103C20007D1C66960FB6F894DEBF0FBECDBFDF9148
:103C3000CF9108950F931F93CF93DF93CDB7DEB746
:103C400066970FB6F894DEBF0FBECDBF6B8B7C8B33
:103C50008D8B9E8B9E012D5F3F4F8B899C89AD89FB
:103C6000BE89890126E04FE0BC01CD010E94992761
:103C7000CE0103969A83898305C089819A81019632
:103C80009A83898389819A81FC0180818032A9F39A
:103C900089819A810E947D1C66960FB6F894DEBFDA
:103CA0000FBECDBFDF91CF911F910F9108950F935C
:103CB0001F93CF93DF93CDB7DEB767970FB6F89416
:103CC000DEBF0FBECDBF6B8B7C8B8D8B9E8B4F8BE6
:103CD0009E012D5F3F4F8B899C89AD89BE898901EB
:103CE0002F894FE0BC01CD010E949927CE01039698
:103CF0009A83898305C089819A8101969A838983F1
:103D000089819A81FC0180818032A9F389819A811D
:103D10000E947D1C67960FB6F894DEBF0FBECDBF24
:103D2000DF91CF911F910F910895CF93DF93CDB77E
:103D3000DEB700009091490280914B029817D1F7AD
:103D4000DF91CF910895CF93DF931F92CDB7DEB768
:103D500080910602982F292F80914802281711F48C
:103D600080E00EC0892F8F5F8F71982FA92FB0E050
:103D7000AC51BE4F8C918983892F80930602898133
:103D80000F90DF91CF910895CF93DF9300D01F92D2
:103D9000CDB7DEB79A8389836B8329813A814B81C2
:103DA000F9014A9521F0CFDF81938111FACF10827A
:103DB0000F900F900F90DF91CF910895CF93DF93E5
:103DC00000D01F92CDB7DEB79A8389836B83298198
:103DD0003A819B81F9019A9551F0B5DF8823E9F387
:103DE0008D3011F08193F7CFAEDF8823E9F3108295
:103DF0000F900F900F90DF91CF910895CF93DF93A5
:103E000000D01F92CDB7DEB79A8389836B83298157
:103E10003A814B81F90197DF8132E8F381934A952A
:103E20004A9561F090DF8823E9F38D3021F08132EB
:103E300028F08193F5CF87DF8823E9F310820F9074
:103E40000F900F90DF91CF910895CF93DF93CDB76F
:103E5000DEB727970FB6F894DEBF0FBECDBF67E081
:103E6000CE0101960E94FE1ECE0101960E94EA2814
:103E700027960FB6F894DEBF0FBECDBFDF91CF916E
:103E80000895CF93DF93CDB7DEB72C970FB6F89494
:103E9000DEBF0FBECDBF6CE0CE0101960E94FE1EBC
:103EA000CE0101960E940829DC01CB01BC01CD01A5
:103EB0002C960FB6F894DEBF0FBECDBFDF91CF9129
:103EC0000895CF93DF93CDB7DEB7A0970FB6F894E0
:103ED000DEBF0FBECDBF60E2CE0101960E94FE1E86
:103EE000CE0101960E94E628DC01CB01BC01CD0188
:103EF000A0960FB6F894DEBF0FBECDBFDF91CF9175
:103F000008951F93CF93DF931F92CDB7DEB7109123
:103F1000060280914802181719F48FEF9FEF11C025
:103F200081E0810F182F1F71812FA82FB0E0AC51B5
:103F3000BE4F9C91182F9983109306028981882F78
:103F400090E00F90DF91CF911F9108951F93CF9331
:103F5000DF9300D0CDB7DEB79A8389831091060234
:103F600080914802181711F480E011C081E0810FA0
:103F7000182F1F71812F90E08C519E4FFC012081E2
:103F800089819A81FC0120831093060281E00F90C1
:103F90000F90DF91CF911F910895CF93DF93CDB70D
:103FA000DEB780910602882F90E001968F719927E5
:103FB0008C519E4FFC018081DF91CF910895CF936A
:103FC000DF931F92CDB7DEB780910402982F292F7F
:103FD00080914A02281711F480E00EC0892F8F5F6C
:103FE0008F71982FA92FB0E0A85DBD4F8C91898368
:103FF000892F8093040289810F90DF91CF910895DA
:10400000CF93DF9300D01F92CDB7DEB79A83898319
:104010006B8329813A814B81F9014A9521F0CFDFE9
:1040200081938111FACF10820F900F900F90DF9142
:10403000CF910895CF93DF9300D01F92CDB7DEB715
:104040009A8389836B8329813A814B81F9014A954F
:1040500051F0B5DF8823E9F38D3011F08193F7CF6C
:10406000AEDF8823E9F310820F900F900F90DF915D
:10407000CF910895CF93DF9300D01F92CDB7DEB7D5
:104080009A8389836B8329813A814B81F90197DF78
:104090008132E8F381934A954A9561F090DF882355
:1040A000E9F38D3021F0813228F08193F5CF87DF5D
:1040B0008823E9F310820F900F900F90DF91CF913A
:1040C0000895CF93DF93CDB7DEB727970FB6F89457
:1040D000DEBF0FBECDBF67E0CE0101960E943A2041
:1040E000CE0101960E94EA2827960FB6F894DEBF0B
:1040F0000FBECDBFDF91CF910895CF93DF93CDB7A2
:10410000DEB72C970FB6F894DEBF0FBECDBF6CE0C4
:10411000CE0101960E943A20CE0101960E94082904
:10412000DC01CB01BC01CD012C960FB6F894DEBFAB
:104130000FBECDBFDF91CF910895CF93DF93CDB761
:10414000DEB7A0970FB6F894DEBF0FBECDBF60E21A
:10415000CE0101960E943A20CE0101960E94E628E7
:10416000DC01CB01BC01CD01A0960FB6F894DEBFF7
:104170000FBECDBFDF91CF9108951F93CF93DF93F3
:104180001F92CDB7DEB71091040280914A02181732
:1041900019F48FEF9FEF11C081E0810F182F1F716D
:1041A000812FA82FB0E0A85DBD4F9C91182F998357
:1041B000109304028981882F90E00F90DF91CF91B6
:1041C0001F9108951F93CF93DF9300D0CDB7DEB733
:1041D0009A8389831091040280914A02181711F47E
:1041E00080E011C081E0810F182F1F71812F90E0B6
:1041F000885D9D4FFC01208189819A81FC0120838B
:104200001093040281E00F900F90DF91CF911F91E6
:104210000895CF93DF93CDB7DEB780910402882F46
:1042200090E001968F719927885D9D4FFC018081F8
:10423000DF91CF910895CF93DF9300D01F92CDB738
:10424000DEB789837B836A838A819B81FC018485B5
:104250009585019751F089818A3019F48DE00E948B
:10426000AB1989810E94AB1909C089818A3019F480
:104270008DE00E94271C89810E94271C80E090E02D
:104280000F900F900F90DF91CF910895CF93DF9310
:1042900000D000D0CDB7DEB79C838B838B819C810F
:1042A000FC0184859585019781F00E94811F9A8386
:1042B000898389819A819923C4F389810E94AB19EA
:1042C000882F90E09A83898310C00E94BD209A8332
:1042D000898389819A819923C4F389810E94271C4B
:1042E000882F90E09A83898300008981882F90E04D
:1042F0000F900F900F900F90DF91CF9108950F9333
:104300000FB7EF93FF93E0910502F0912702E39539
:10431000EF71EF1305C0F091C100FF7DF093C10074
:10432000E0930502F0E0E45BFD4FE081E093C6001E
:10433000FF91EF910FBF0F9118950F930FB79F93B8
:104340009091C600EF93FF93E0914802F09106022E
:10435000E395EF71FE1731F0E0934802F0E0EC5185
:10436000FE4F9083FF91EF919F910FBF0F91189592
:104370000F930FB7EF93FF93E0914902F0914B0237
:10438000E395EF71EF1305C0F091C900FF7DF09345
:10439000C900E0934902F0E0E95FFD4FE081E0935E
:1043A000CE00FF91EF910FBF0F9118950F930FB7AC
:1043B0009F939091CE00EF93FF93E0914A02F0918A
:1043C0000402E395EF71FE1731F0E0934A02F0E04A
:1043D000E85DFD4F9083FF91EF919F910FBF0F918B
:1043E0001895CF93DF9300D000D0CDB7DEB76983A7
:1043F0007A838B839C8380E00E94EE0C813029F4C9
:1044000083E50E94530F81E001C080E00F900F9080
:104410000F900F90DF91CF910895CF93DF93CDB799
:10442000DEB76C970FB6F894DEBF0FBECDBF80E04D
:1044300090E0A8E4B3E489839A83AB83BC8320E053
:1044400030E44CE155E469817A818B819C810E9442
:104450001027DC01CB018D839E83AF83B88720E0DA
:1044600030E040E85FE36D817E818F8198850E9416
:10447000B32588232CF481E090E09A8789873FC098
:1044800020E03FEF4FE757E46D817E818F81988573
:104490000E940B2718164CF520E030E040E251E472
:1044A00069817A818B819C810E941027DC01CB017C
:1044B000BC01CD010E942A26DC01CB019A878987A5
:1044C0000FC08AEF90E09C878B878B859C85019736
:1044D000F1F79C878B8789859A8501979A878987C9
:1044E00089859A85892B69F714C06D817E818F81BA
:1044F00098850E942A26DC01CB019A8789878985C5
:104500009A859E878D878D859E850197F1F79E8779
:104510008D8772C080E090E0A0E2B1E48F87988B35
:10452000A98BBA8B20E030E44CE155E46F857889A3
:1045300089899A890E941027DC01CB018B8B9C8B87
:10454000AD8BBE8B20E030E040E85FE36B897C8977
:104550008D899E890E94B32588232CF481E090E008
:10456000988F8F8B3FC020E03FEF4FE757E46B8978
:104570007C898D899E890E940B2718164CF520E0B6
:1045800030E040E251E46F85788989899A890E94F8
:104590001027DC01CB01BC01CD010E942A26DC01E1
:1045A000CB01988F8F8B0FC08AEF90E09A8F898F05
:1045B000898D9A8D0197F1F79A8F898F8F89988DC0
:1045C0000197988F8F8B8F89988D892B69F714C0ED
:1045D0006B897C898D899E890E942A26DC01CB010A
:1045E000988F8F8B8F89988D9C8F8B8F8B8D9C8DC7
:1045F0000197F1F79C8F8B8F8091DF01282F30E09E
:104600004BE0429FC001439F900D11248C589E4F58
:10461000FC012081318160E070E0CB01F901099556
:10462000813009F477CF8091DF018093E00181E050
:1046300080936A016C960FB6F894DEBF0FBECDBFB3
:10464000DF91CF910895CF93DF93CDB7DEB7A397D6
:104650000FB6F894DEBF0FBECDBF1E8E1D8E18A202
:104660001F8E1AA219A2CE014D960E94521180915E
:104670006A01882F90E08130910509F48FC083355D
:10468000910591F0892B09F059C18091DF018823B0
:1046900019F40E940D2252C18091DF01813019F47A
:1046A0000E940D224BC14AC180E090E0AAE7B4E429
:1046B00089839A83AB83BC8320E030E44CE155E4EA
:1046C00069817A818B819C810E941027DC01CB015A
:1046D0008D839E83AF83B88720E030E040E85FE3BE
:1046E0006D817E818F8198850E94B32588232CF46B
:1046F00081E090E09A8789873FC020E03FEF4FE755
:1047000057E46D817E818F8198850E940B27181652
:104710004CF520E030E040E251E469817A818B8100
:104720009C810E941027DC01CB01BC01CD010E94BD
:104730002A26DC01CB019A8789870FC08AEF90E097
:104740009C878B878B859C850197F1F79C878B874E
:1047500089859A8501979A87898789859A85892B82
:1047600069F714C06D817E818F8198850E942A2609
:10477000DC01CB019A87898789859A859E878D87F9
:104780008D859E850197F1F79E878D8781E08093C7
:104790006A018091DF018093E001D0C08091E00147
:1047A0008093DF01C6C08091DF01282F30E04BE00D
:1047B000429FC001439F900D11248C589E4FDC01F5
:1047C0004D915C918091DF01282F30E06BE0629F7A
:1047D000C001639F900D11248D589E4FDC01EC9118
:1047E0008091DF01282F30E06BE0629FC001639F62
:1047F000900D11248E589E4FDC017C918091DF0139
:10480000282F30E06BE0629FC001639F900D112460
:1048100085599E4F9A014E2F672F0E9494108093C6
:104820006C0280916C02813019F410926A0186C08A
:104830008091DF01882309F072C080E090E0AAEF48
:10484000B4E48F87988BA98BBA8B20E030E44CE1DD
:1048500055E46F85788989899A890E941027DC013F
:10486000CB018B8B9C8BAD8BBE8B20E030E040E886
:104870005FE36B897C898D899E890E94B32588239B
:104880002CF481E090E0988F8F8B3FC020E03FEFC9
:104890004FE757E46B897C898D899E890E940B279D
:1048A00018164CF520E030E040E251E46F8578893D
:1048B00089899A890E941027DC01CB01BC01CD01B6
:1048C0000E942A26DC01CB01988F8F8B0FC08AEFC4
:1048D00090E09A8F898F898D9A8D0197F1F79A8F41
:1048E000898F8F89988D0197988F8F8B8F89988D5D
:1048F000892B69F714C06B897C898D899E890E94F8
:104900002A26DC01CB01988F8F8B8F89988D9C8F05
:104910008B8F8B8D9C8D0197F1F79C8F8B8F809166
:10492000DF01813009F4FFCF8091DF018F5F809339
:10493000DF018091DF01823008F435CF98CECF932C
:10494000DF93CDB7DEB7A9970FB6F894DEBF0FBEE1
:10495000CDBF0E94BB1784E090E09A8389838CECE2
:1049600090E02981FC0120838DEC90E029813A813F
:10497000232F3327FC01208389EC90E028E9FC01F8
:104980002083789481E891E00E947D1CCE014196BD
:1049900069E10E94002085E991E00E947D1CCE0122
:1049A00041960E947D1C80E090E0AAE7B4E48B83EE
:1049B0009C83AD83BE8320E030E44CE155E46B8101
:1049C0007C818D819E810E941027DC01CB018F8329
:1049D0009887A987BA8720E030E040E85FE36F81DD
:1049E000788589859A850E94B32588232CF481E0F7
:1049F00090E09C878B873FC020E03FEF4FE757E474
:104A00006F81788589859A850E940B2718164CF549
:104A100020E030E040E251E46B817C818D819E8119
:104A20000E941027DC01CB01BC01CD010E942A2687
:104A3000DC01CB019C878B870FC08AEF90E09E87BB
:104A40008D878D859E850197F1F79E878D878B8554
:104A50009C8501979C878B878B859C85892B69F723
:104A600014C06F81788589859A850E942A26DC0189
:104A7000CB019C878B878B859C85988B8F878F85B7
:104A800098890197F1F7988B8F877CCF5058BB2777
:104A9000AA270E945E250C94D1260E94C32638F0D6
:104AA0000E94CA2620F039F49F3F19F426F40C9492
:104AB000C0260EF4E095E7FB0C94BA26E92F0E947D
:104AC000E22658F3BA17620773078407950720F0A8
:104AD00079F4A6F50C9404270EF4E0950B2EBA2F6A
:104AE000A02D0B01B90190010C01CA01A0011124F4
:104AF000FF27591B99F0593F50F4503E68F11A16A0
:104B0000F040A22F232F342F4427585FF3CF469530
:104B100037952795A795F0405395C9F77EF41F1652
:104B2000BA0B620B730B840BBAF09150A1F0FF0F1C
:104B3000BB1F661F771F881FC2F70EC0BA0F621F08
:104B4000731F841F48F4879577956795B795F795F8
:104B50009E3F08F0B0CF9395880F08F09927EE0F8D
:104B60009795879508950E94962608F481E0089508
:104B70000E94CC250C94D1260E94CA2658F00E948F
:104B8000C32640F029F45F3F29F00C94BA26511156
:104B90000C9405270C94C0260E94E22668F3992302
:104BA000B1F3552391F3951B550BBB27AA27621729
:104BB0007307840738F09F5F5F4F220F331F441F36
:104BC000AA1FA9F335D00E2E3AF0E0E832D091506A
:104BD0005040E695001CCAF72BD0FE2F29D0660F57
:104BE000771F881FBB1F261737074807AB07B0E89A
:104BF00009F0BB0B802DBF01FF2793585F4F3AF0A0
:104C00009E3F510578F00C94BA260C9405275F3F1F
:104C1000E4F3983ED4F3869577956795B795F79525
:104C20009F5FC9F7880F911D9695879597F908950D
:104C3000E1E0660F771F881FBB1F621773078407A9
:104C4000BA0720F0621B730B840BBA0BEE1F88F7B8
:104C5000E09508950E94EA2688F09F5798F0B92FB2
:104C60009927B751B0F0E1F0660F771F881F991FA1
:104C70001AF0BA95C9F714C0B13091F00E94042718
:104C8000B1E008950C940427672F782F8827B85F28
:104C900039F0B93FCCF3869577956795B395D9F7F9
:104CA0003EF490958095709561957F4F8F4F9F4F03
:104CB0000895E89409C097FB3EF49095809570950F
:104CC00061957F4F8F4F9F4F9923A9F0F92F96E958
:104CD000BB279395F695879577956795B795F111CD
:104CE000F8CFFAF4BB0F11F460FF1BC06F5F7F4F6A
:104CF0008F4F9F4F16C0882311F096E911C077237C
:104D000021F09EE8872F762F05C0662371F096E884
:104D1000862F70E060E02AF09A95660F771F881F53
:104D2000DAF7880F9695879597F90895990F0008F7
:104D3000550FAA0BE0E8FEEF16161706E807F9076D
:104D4000C0F012161306E407F50798F0621B730B08
:104D5000840B950B39F40A2661F0232B242B252B89
:104D600021F408950A2609F4A140A6958FEF811D2C
:104D7000811D089597F99F6780E870E060E00895CD
:104D80009FEF80EC089500240A9416161706180663
:104D90000906089500240A9412161306140605063F
:104DA0000895092E0394000C11F4882352F0BB0FD0
:104DB00040F4BF2B11F460FF04C06F5F7F4F8F4F33
:104DC0009F4F089557FD9058440F551F59F05F3F6E
:104DD00071F04795880F97FB991F61F09F3F79F01D
:104DE00087950895121613061406551FF2CF46959F
:104DF000F1DF08C0161617061806991FF1CF869521
:104E00007105610508940895E894BB276627772704
:104E1000CB0197F908950E94962608F48FEF089524
:104E20000E9423270C94D1260E94C32638F00E94AA
:104E3000CA2620F0952311F00C94BA260C94C026B3
:104E400011240C9405270E94E22670F3959FC1F36C
:104E5000950F50E0551F629FF001729FBB27F00D28
:104E6000B11D639FAA27F00DB11DAA1F649F66277D
:104E7000B00DA11D661F829F2227B00DA11D621FCC
:104E8000739FB00DA11D621F839FA00D611D221F86
:104E9000749F3327A00D611D231F849F600D211D6A
:104EA000822F762F6A2F11249F5750409AF0F1F0ED
:104EB00088234AF0EE0FFF1FBB1F661F771F881F56
:104EC00091505040A9F79E3F510580F00C94BA26AE
:104ED0000C9405275F3FE4F3983ED4F386957795CD
:104EE0006795B795F795E7959F5FC1F7FE2B880FFC
:104EF000911D9695879597F908950F931F93CF93DA
:104F0000DF93869F8001879F100D969F100D1124BF
:104F1000C8010E94B927EC01009729F0A80160E0C0
:104F200070E00E942F29CE01DF91CF911F910F9148
:104F30000895EF920F931F93CF93DF93E80147FDFE
:104F400002C034E001C034E1E42F440FFF0BF7FF4F
:104F500003C0F195E195F109E32E022F2E2FAE014A
:104F60000E94D529CE01DF91CF911F910F91EF9033
:104F70000895CF93DF938230910510F482E090E0A2
:104F8000E0916F02F091700220E030E0C0E0D0E0EC
:104F9000309711F14081518148175907C0F04817E7
:104FA000590761F482819381209719F09B838A834A
:104FB0002BC09093700280936F0226C0211531059B
:104FC00019F04217530718F49A01BE01DF01EF01EF
:104FD0000280F381E02DDCCF2115310509F1281B7A
:104FE000390B2430310590F412968D919C911397D2
:104FF0006115710521F0FB019383828304C09093B6
:10500000700280936F02FD01329644C0FD01E20FF1
:10501000F31F81939193225031092D933C933AC011
:1050200020916D0230916E02232B41F420910201F8
:105030003091030130936E0220936D0220910001A4
:10504000309101012115310541F42DB73EB7409152
:10505000040150910501241B350BE0916D02F09184
:105060006E02E217F307A0F42E1B3F0B2817390737
:1050700078F0AC014E5F5F4F2417350748F04E0FB4
:105080005F1F50936E0240936D028193919302C013
:10509000E0E0F0E0CF01DF91CF9108950F931F93EF
:1050A000CF93DF93009709F48CC0FC0132971382F1
:1050B000128200916F02109170020115110581F4A6
:1050C00020813181820F931F20916D0230916E02F9
:1050D0002817390779F5F0936E02E0936D0271C0DD
:1050E000D80140E050E0AE17BF0750F412962D9162
:1050F0003C911397AD012115310509F1D901F3CF89
:105100009D01DA013383228360817181860F971FAD
:105110008217930769F4EC0128813981260F371F24
:105120002E5F3F4F318320838A819B8193838283CB
:10513000452B29F4F0937002E0936F0242C013965E
:10514000FC93EE931297ED01499159919E01240F22
:10515000351FE217F30771F480819181840F951F49
:10516000029611969C938E938281938113969C93C1
:105170008E931297E0E0F0E0D80112968D919C9109
:105180001397009719F0F8018C01F6CF8D919C913F
:1051900098012E5F3F4F820F931F20916D02309137
:1051A0006E022817390769F4309729F410927002BB
:1051B00010926F0202C01382128210936E0200934B
:1051C0006D02DF91CF911F910F9108956627772788
:1051D0000C94632BFC0188279927E89421912032B5
:1051E000E9F3293010F02E30C8F32B3241F02D3284
:1051F00039F4689404C00E947B29820F911D21918B
:1052000020532A30C0F31EF4909581959F4F089546
:105210001F93FC0199278827BC01E8941191103253
:10522000E9F3193010F01E30C8F31B3251F01D3273
:1052300049F4689406C00E946629610F711D811DA2
:10524000911D119110531A30B0F33EF49095809552
:10525000709561957F4F8F4F9F4F1F910895DC018F
:1052600001C06D9341505040E0F70895453251051B
:1052700020F4423010F00C944129FB011082CB0144
:105280000895BB274A3031F4992322F4BDE290956A
:1052900081959F4F0C94BC292532310520F4223092
:1052A00010F00C945729FA011082CA010895BB2707
:1052B0002A3051F4992342F4BDE29095809570957F
:1052C00061957F4F8F4F9F4F0C948F29592F482FF7
:1052D000372F262F660F771F881F991F660F771F9E
:1052E000881F991F620F731F841F951F660F771FFA
:1052F000881F991F08957AE0979F902D879F802D92
:10530000910D112408952532310520F4223010F03A
:105310000C948E29FA011082CA010895BB27FA0164
:10532000A62F6217710581059105330B30FB66F0DE
:10533000AA27660F771F881F991FAA1FA21710F0B0
:10534000A21B63953850A9F7A05DAA3308F0A95DA8
:10535000A19336F7B111B1931082CA010C94CB2DF1
:105360004532510520F4423010F00C94BB29FB016A
:105370001082CB010895BB27FB015527AA27880F70
:10538000991FAA1FA41710F0A41B83955051B9F7B9
:10539000A05DAA3308F0A95DA193009779F7B11138
:1053A000B1931192CB010C94CB2D4F925F926F92DF
:1053B0007F929F92AF92BF92CF92DF92EF92FF9235
:1053C0000F931F93CF93DF93CDB7DEB729970FB617
:1053D000F894DEBF0FBECDBF6A01122FB02E2BE3B3
:1053E000201720F0FF24F394F00E02C0BCE3FB2E44
:1053F0000F2D27E0AE014F5F5F4F0E94D22CAC0112
:105400008981982F9970913031F0E1FC06C0E0FE5F
:1054100006C090E205C09DE203C09BE201C090E09F
:10542000EE2DE07183FF3CC0911102C083E001C00A
:1054300084E0811718F4212F281B01C020E0E1111E
:105440000BC0F601822F30E2882319F0319381508E
:10545000FBCFC20ED11C20E0992329F0D6019C93EA
:10546000F60131966F01C6010396E2FE0AC03EE4E2
:10547000D6013C9341E411964C93119712963C93BC
:1054800006C03EE6F601308341E641833283FC01EB
:10549000322F40E2332309F442C041933150FACF16
:1054A00082FF44C0911102C083E001C084E08117F3
:1054B00018F4212F281B01C020E0E1110BC0F601D8
:1054C000822F30E2882319F031938150FBCFC20E36
:1054D000D11C20E0992329F0D6019C93F601319646
:1054E0006F01C6010396E2FE0BC039E4D6013C937E
:1054F0003EE411963C93119736E412963C9307C014
:1055000039E6F60130833EE6318336E63283FC012C
:10551000322F40E2332319F041933150FBCFFC018D
:10552000E20FF11D10828EEF9FEFB7C0F1E09111F5
:1055300001C0F0E06F2F70E01416150624F49A01F4
:105540002F5F3F4F02C021E030E0260F371FBB2006
:1055500029F06B2D70E06F5F7F4F02C060E070E05C
:10556000260F371F612F70E0261737071CF4121B18
:10557000212F01C020E03E2D387159F4D601322F81
:1055800060E2332319F06D933150FBCFC20ED11C72
:1055900020E0FF2331F0D6019C93B6016F5F7F4F6F
:1055A0006B01E1110BC0F601922F30E3992319F042
:1055B00031939150FBCFC20ED11C20E09F2D940F50
:1055C0003A81782F7071A72E84FF03C0313309F41C
:1055D0009150191624F4993018F098E001C091E028
:1055E000E42F852F57FF02C0E0E080E06E2F782F78
:1055F000E0E0F0E0AEE29A2E3A01691A71082A0161
:10560000461A570A0B2D10E01195019511096F3FAD
:105610008FEF780729F4D6019C92C60101966C01A0
:105620004617570784F0661677066CF47F01E40C82
:10563000F51CA1E0B0E0AC0FBD1FEA0EFB1ED701C8
:105640001196BC9002C090E3B92E61507109319659
:10565000C60101967C016017710724F0D601BC9247
:105660006C01D5CF6417750741F4363320F4353318
:1056700021F4A11002C081E3B82EF601B082F70137
:10568000822F90E2882319F091938150FBCFF7018C
:10569000E20FF11D108280E090E029960FB6F89499
:1056A000DEBF0FBECDBFDF91CF911F910F91FF9055
:1056B000EF90DF90CF90BF90AF909F907F906F90D2
:1056C0005F904F9008956F927F928F929F92AF92CA
:1056D000BF92CF92DF92EF92FF920F931F93CF93DF
:1056E000DF93EC017B016115710519F0DB018D93EE
:1056F0009C938E010F5F1F4F7880872D90E00E9452
:10570000AA2D892B11F0E801F4CFBDE27B1205C070
:105710000F5F1F4F7980C1E008C0EBE27E1204C02A
:105720008E010E5F1F4F7980C0E06801F1E0CF1A53
:10573000D10843E050E06CE970E0C6010E94B32D4F
:10574000892BF1F4680122E0C20ED11C45E050E043
:1057500067E970E0C6010E94B32D892B21F468012E
:1057600087E0C80ED11CE114F10419F0D701CD92E5
:10577000DC92C111FFC060E070E080E89FE703C1E8
:1057800043E050E064E970E0C6010E94B32D892B2C
:1057900051F4E114F10409F4F2C00E5F1F4FF70158
:1057A00011830083ECC0680160E070E0CB0100E091
:1057B00010E0F601D0EDD70DDA3058F52C2F22602D
:1057C000622E2C2F2870C2FF05C0211128C00F5F48
:1057D0001F4F25C0222311F001501109A5E0B0E0B0
:1057E0009B01AC010E94DE2D4B015C01880C991CD1
:1057F000AA1CBB1CC501B4016D0F711D811D911D3B
:105800006839A9E97A078A07A9E19A0740F0C660D2
:1058100005C0DE3F51F4C3FD44C0C8606C2EBFEF2D
:10582000CB1ADB0A7080C62DC4CF2D2F2F7D2531DA
:10583000C1F540814D3211F4C06106C04B3221F0F8
:10584000319621E030E006C03296D60111964C9197
:1058500022E030E0A0EDA40FAA3018F0E21BF30B19
:1058600020C040E050E04038BCE05B075CF49A01A7
:10587000220F331F220F331F420F531F440F551F98
:105880004A0F511D3196DF0111972C91A0EDA20F07
:10589000AA3048F3C4FF03C0519541955109040F44
:1058A000151FC1FF07C0E114F10421F03197D701A2
:1058B000ED93FC930E945926C370C33019F06B011D
:1058C0007C0106C06B017C01F7FAF094F7F8F094C4
:1058D00020E030E0A901C701B6010E94B32588236A
:1058E00009F445C017FF06C0119501951109C3EBD6
:1058F000D0E002C0CBECD0E05E01B8E1AB1AB10859
:105900004601BE2DAF2D90E2E92EF12C0E151F059C
:1059100084F0FE012591359145915491B4018B2F6E
:105920009A2F0E9410274B01B82FA92F0E191F097B
:10593000EDCF2497F594E794CA15DB0539F7640198
:10594000EB2EFA2E8E2D880F8F2D881F8F3F49F05A
:1059500020E030E0A901C701B6010E94B325811102
:1059600006C082E290E09093720280937102C701B8
:10597000B60109C060E070E080E89FEF04C060E01D
:1059800070E080EC9FE7DF91CF911F910F91FF9026
:10599000EF90DF90CF90BF90AF909F908F907F90CF
:1059A0006F900895283008F027E03327DA01990F27
:1059B000311D87FD916000966105710539F43260F3
:1059C0002E5F3D9330E32A95E1F708959F3F30F035
:1059D00080387105610509F03C5F3C5F3D93913073
:1059E00008F08068911DDF93CF931F930F93FF9270
:1059F000EF92192F987F9695E92F96959695E90F36
:105A0000FF27E75DFE4F99273327EE24FF24A701E8
:105A1000E70105900894079428F4360FE71EF81E56
:105A2000491F511D660F771F881F991F0694A1F704
:105A30000590079428F4E70EF81E491F561FC11D54
:105A4000770F881F991F661F0694A1F7059007948A
:105A500028F4F80E491F561FC71FD11D880F991F24
:105A6000661F771F0694A1F70590079420F4490F4D
:105A7000561FC71FD81F990F661F771F881F0694D0
:105A8000A9F784911095177041F0D695C795579551
:105A90004795F794E7941A95C1F7EFECF0E0689416
:105AA0001590159135916591959105907FE27395CB
:105AB000E118F10A430B560BC90BD009C0F7E10CF2
:105AC000F11E431F561FC91FD01D7EF4703311F401
:105AD0008A95E6CFE894015030F0080F0AF40027C9
