:100000000C944A000C9469000C9469000C946900EB
:100010000C9469000C9469000C9469000C946900BC
:100020000C94BA150C9469000C9469000C94690046
:100030000C9479140C9469000C9469000C94690078
:100040000C9469000C9469000C94EF060C94690000
:100050000C9469000C94B1190C9469000C9421194A
:100060000C9469000C9469000C9469000C9469006C
:100070000C9469000C9469000C9469000C9469005C
:100080000C94061B0C9469000C94C41A0C9469001F
:100090000C94690011241FBECFEFD0E1DEBFCDBFAD
:1000A00011E0A0E0B1E0EEE0F8E400E00BBF02C038
:1000B00007900D92AE32B107D9F722E0AEE2B1E07F
:1000C00001C01D92A338B207E1F70E94E71E0C940D
:1000D00005240C940000CF93DF9300D01F92CDB77E
:1000E000DEB789836A834B8389810E94861B8A815C
:1000F0000E94861B8B810E94861B88E50E94861BBE
:100100000F900F900F90DF91CF910895CF93DF93D1
:1001100000D0CDB7DEB789836A834A81698187E4DD
:100120000E946B000E94D41B0E94D41B0F900F9062
:10013000DF91CF910895CF93DF9300D0CDB7DEB795
:1001400089836A834A81698183E50E946B000F90ED
:100150000F90DF91CF910895CF93DF93CDB7DEB7A6
:1001600080E50E94861B80E00E94861B80E00E9442
:10017000861B88E50E94861B0E94D41B813081F774
:10018000DF91CF9108950F931F93CF93DF9300D00A
:10019000CDB7DEB79A8389838DE290E02DE230E01F
:1001A000F90120812863FC01208384E290E024E2AD
:1001B00030E0F90120812068FC01208384E990E08F
:1001C000FC011182108286E490E0FC01108288E933
:1001D00090E0FC01118210828AE990E0FC0111821A
:1001E00010828CE990E0FC011182108280E990E09D
:1001F0002EEBFC01208381E990E02AE1FC012083C1
:1002000084E490E02BE6FC01208306E910E089817C
:100210009A81CC01A0E0B0E0BC01CD010E94912107
:10022000DC01CB0120E030E040E051E4BC01CD0135
:100230000E944822DC01CB019C01AD0160E876E917
:1002400088E19BE40E94E920DC01CB0120E030E062
:1002500040E05FE3BC01CD010E947820DC01CB01CE
:10026000BC01CD010E946221DC01CB01F801918328
:1002700080830F900F90DF91CF911F910F91089580
:10028000CF92DF92EF92FF92CF93DF9300D000D016
:10029000CDB7DEB79C838B8386E990E0FC0180813B
:1002A0009181CC01A0E0B0E0BC01CD010E94912180
:1002B000DC01CB0120E030E04FE753E4BC01CD018D
:1002C0000E94E920DC01CB016C017D018B819C81C6
:1002D000092E000CAA0BBB0BBC01CD010E9493217F
:1002E000DC01CB019C01AD01C701B6010E9448228F
:1002F000DC01CB0120E030E040E05FE3BC01CD0158
:100300000E947820DC01CB01BC01CD010E9462215A
:10031000DC01CB019A83898389E990E029813A81C4
:10032000232F3327FC01208388E990E02981FC01F9
:1003300020830F900F900F900F90DF91CF91FF903F
:10034000EF90DF90CF900895CF92DF92EF92FF92DF
:10035000CF93DF9300D000D0CDB7DEB79C838B83E3
:1003600086E990E0FC0180819181CC01A0E0B0E0C1
:10037000BC01CD010E949121DC01CB0120E030E0E5
:100380004FE753E4BC01CD010E94E920DC01CB0121
:100390006C017D018B819C81092E000CAA0BBB0B8B
:1003A000BC01CD010E949321DC01CB019C01AD0178
:1003B000C701B6010E944822DC01CB0120E030E0F9
:1003C00040E05FE3BC01CD010E947820DC01CB015D
:1003D000BC01CD010E946221DC01CB019A8389839B
:1003E0008BE990E029813A81232F3327FC01208378
:1003F0008AE990E02981FC0120830F900F900F90F3
:100400000F90DF91CF91FF90EF90DF90CF90089504
:10041000CF92DF92EF92FF92CF93DF9300D000D084
:10042000CDB7DEB79C838B8386E990E0FC018081A9
:100430009181CC01A0E0B0E0BC01CD010E949121EE
:10044000DC01CB0120E030E04FE753E4BC01CD01FB
:100450000E94E920DC01CB016C017D018B819C8134
:10046000092E000CAA0BBB0BBC01CD010E949321ED
:10047000DC01CB019C01AD01C701B6010E944822FD
:10048000DC01CB0120E030E040E05FE3BC01CD01C6
:100490000E947820DC01CB01BC01CD010E946221C9
:1004A000DC01CB019A8389838DE990E029813A812F
:1004B000232F3327FC0120838CE990E02981FC0164
:1004C00020830F900F900F900F90DF91CF91FF90AE
:1004D000EF90DF90CF900895CF93DF9300D000D0BE
:1004E000CDB7DEB769837A838B839C8320E03FEFAF
:1004F0004FE757E469817A818B819C810E94482271
:10050000DC01CB0120E030E044E353E4BC01CD0149
:100510000E94E920DC01CB0120E030E040E057E41C
:10052000BC01CD010E947720DC01CB01BC01CD01D3
:100530000E945B21DC01CB010F900F900F900F9078
:10054000DF91CF910895CF93DF9300D000D0CDB746
:10055000DEB769837A838B839C8320E030E0A90136
:1005600069817A818B819C810E944322882374F067
:1005700020E030E044E353E469817A818B819C81FF
:100580000E94E420181614F081E001C080E00F9072
:100590000F900F900F90DF91CF910895CF93DF933D
:1005A00000D000D0CDB7DEB769837A838B839C837C
:1005B00089819A81AB81BC81BC01CD010E94A302DB
:1005C000882351F089819A81AB81BC81BC01CD0126
:1005D0000E946C020E9440010F900F900F900F90AC
:1005E000DF91CF910895CF93DF9300D000D0CDB7A6
:1005F000DEB769837A838B839C8389819A81AB81FF
:10060000BC81BC01CD010E94A302882351F08981E5
:100610009A81AB81BC81BC01CD010E946C020E9419
:10062000A4010F900F900F900F90DF91CF9108953C
:10063000CF93DF9300D000D0CDB7DEB769837A8344
:100640008B839C8389819A81AB81BC81BC01CD0164
:100650000E94A302882351F089819A81AB81BC81D9
:10066000BC01CD010E946C020E9408020F900F9005
:100670000F900F90DF91CF9108950F931F93CF9319
:10068000DF9300D000D0CDB7DEB769837A838B8348
:100690009C8389819A81AB81BC81BC01CD010E9480
:1006A000A302882301F107E410E020E030E04FE7E7
:1006B00053E469817A818B819C810E944822DC010C
:1006C000CB0120E030E044E353E4BC01CD010E94C3
:1006D000E920DC01CB01BC01CD010E945B21DC01E2
:1006E000CB01F80180830F900F900F900F90DF9156
:1006F000CF911F910F910895CF93DF93CDB7DEB7C0
:100700002E970FB6F894DEBF0FBECDBF8AE290E001
:100710002AE230E0F9012081237FFC01208388EC6C
:1007200090E0FC01108289EC90E028E1FC0120833C
:100730008AEC90E026E0FC0120838DEC90E0FC0147
:1007400010828CEC90E025E0FC01208380E090E0BA
:10075000A8ECB2E489839A83AB83BC8320E030E4C5
:100760004CE155E469817A818B819C810E94482209
:10077000DC01CB018D839E83AF83B88720E030E01E
:1007800040E85FE36D817E818F8198850E94E4203F
:1007900088232CF481E090E09A8789873FC020E08D
:1007A0003FEF4FE757E46D817E818F8198850E94EE
:1007B000432218164CF520E030E040E251E4698114
:1007C0007A818B819C810E944822DC01CB01BC0193
:1007D000CD010E946221DC01CB019A8789870FC07D
:1007E0008AEF90E09C878B878B859C850197F1F73A
:1007F0009C878B8789859A8501979A8789878985C0
:100800009A85892B69F714C06D817E818F819885C7
:100810000E946221DC01CB019A87898789859A85AC
:100820009E878D878D859E850197F1F79E878D87A1
:100830002E960FB6F894DEBF0FBECDBFDF91CF91DD
:100840000895CF93DF931F92CDB7DEB78983000061
:1008500088EC90E0FC018081882F90E080729927DD
:10086000892BB1F38EEC90E02981FC0120830F905D
:10087000DF91CF910895CF93DF93CDB7DEB700001E
:1008800088EC90E0FC0180818823D4F78EEC90E026
:10089000FC018081DF91CF910895CF93DF93CDB795
:1008A000DEB727970FB6F894DEBF0FBECDBF27E0A7
:1008B000CE010196FC01322F11923A95E9F70E9480
:1008C0003B0489830E943B048A830E943B048B8300
:1008D0000E943B048C830E943B048D830E943B0456
:1008E0008E8327960FB6F894DEBF0FBECDBFDF9183
:1008F000CF910895CF93DF93CDB7DEB7000088EC9A
:1009000090E0FC018081882F90E080749927892BEA
:10091000B1F389EC90E029EC30E0F9012081277FE8
:10092000FC01208388EC90E028EC30E0F901208184
:100930002064FC012083DF91CF910895CF93DF9352
:10094000CDB7DEB789EC90E029EC30E0F9012081E9
:100950002860FC012083DF91CF910895CF93DF932E
:10096000CDB7DEB789EC90E029EC30E0F9012081C9
:100970002F7EFC012083DF91CF910895CF93DF93E9
:10098000CDB7DEB789EC90E029EC30E0F9012081A9
:100990002061FC012083DF91CF910895CF93DF93F5
:1009A000CDB7DEB76A970FB6F894DEBF0FBECDBFE6
:1009B0009E8B8D8B788F6F8B498F2A8F8D899E8927
:1009C000CC01A0E0B0E0BC01CD010E949121DC018E
:1009D000CB0120E030E046E953E4BC01CD010E94A8
:1009E000E920DC01CB0120E030EC4FE754E4BC010E
:1009F000CD010E944822DC01CB01BC01CD010E9447
:100A00006221DC01CB019E8B8D8B8D899E89892F84
:100A1000992789838D898A83898D882F90E0982FE3
:100A20008827990F990F9C018F89988D822B932B82
:100A3000988F8F8B8F89988D892F99278B838F899A
:100A40008C838A8D882F90E09C01285D3F4F8B819D
:100A5000882F90E0280F391F8C81882F90E0280F75
:100A6000391F8981882F90E0280F391F8A81882FAC
:100A700090E0820F931F809590959E838D830E94B6
:100A8000AE048FEF0E9421048FEF0E9421048A8D13
:100A90000E94210487E00E94210483E00E94210437
:100AA0008EE10E9421048A810E94210489810E9492
:100AB00021048C810E9421048B810E9421048D815C
:100AC0000E9421040E947A040E94BE0480E090E00B
:100AD000A8E4B2E48F839887A987BA8720E030E43E
:100AE0004CE155E46F81788589859A850E9448227A
:100AF000DC01CB018B879C87AD87BE8720E030E08F
:100B000040E85FE36B857C858D859E850E94E420AF
:100B100088232CF481E090E0988B8F873FC020E001
:100B20003FEF4FE757E46B857C858D859E850E945E
:100B3000432218164CF520E030E040E251E46F818A
:100B4000788589859A850E944822DC01CB01BC0109
:100B5000CD010E946221DC01CB01988B8F870FC0F1
:100B60008AEF90E09A8B898B89899A890197F1F7AE
:100B70009A8B898B8F8598890197988B8F878F8522
:100B80009889892B69F714C06B857C858D859E8536
:100B90000E946221DC01CB01988B8F878F85988919
:100BA0009C8B8B8B8B899C890197F1F79C8B8B8B12
:100BB0000E949E046A960FB6F894DEBF0FBECDBFAA
:100BC000DF91CF910895CF93DF93CDB7DEB76097D4
:100BD0000FB6F894DEBF0FBECDBF8CEE9FEF9A83A9
:100BE00089830E94AE048FEF0E9421048FEF0E9440
:100BF000210481E00E94210487E00E94210483E017
:100C00000E94210486E00E94210480E00E942104C9
:100C100080E00E9421048FEF0E94210483E00E9463
:100C2000210489810E9421040E947A040E94BE044A
:100C300080E090E0A8E4B2E48B839C83AD83BE8324
:100C400020E030E44CE155E46B817C818D819E8114
:100C50000E944822DC01CB018F839887A987BA873D
:100C600020E030E040E85FE36F81788589859A85F0
:100C70000E94E42088232CF481E090E09C878B87FD
:100C80003FC020E03FEF4FE757E46F8178858985CB
:100C90009A850E94432218164CF520E030E040E28D
:100CA00051E46B817C818D819E810E944822DC0110
:100CB000CB01BC01CD010E946221DC01CB019C87EC
:100CC0008B870FC08AEF90E09E878D878D859E85EC
:100CD0000197F1F79E878D878B859C8501979C876F
:100CE0008B878B859C85892B69F714C06F817885EC
:100CF00089859A850E946221DC01CB019C878B87C4
:100D00008B859C85988B8F878F8598890197F1F7C4
:100D1000988B8F870E949E0460960FB6F894DEBF72
:100D20000FBECDBFDF91CF910895CF93DF93CDB7A5
:100D3000DEB728970FB6F894DEBF0FBECDBF9E83F7
:100D40008D8378876F831A8219821C821B828F8120
:100D500098859A8389838D819E81982F8827990F02
:100D6000990F29813A81822B932B9A8389838981D8
:100D70009A818996809590959C838B830E94AE047E
:100D80008FEF0E9421048FEF0E94210481E00E94D6
:100D9000210485E00E94210483E00E94210480E276
:100DA0000E94210489810E94210489819A81892FCE
:100DB00099270E9421048B810E9421040E947A04B9
:100DC0000E94BE040E944D040E949E0428960FB605
:100DD000F894DEBF0FBECDBFDF91CF9108951F9273
:100DE0000F9200905F000F92112400905B000F9211
:100DF0002F933F934F935F938F939F93EF93FF9323
:100E0000CF93DF9300D000D0CDB7DEB78DEE90E06A
:100E1000FC0180818B831982A4C08DEE90E0298132
:100E20002295207FFC0120838EEE90E0FC018081E2
:100E3000829586958770882F90E081709927892BFD
:100E400009F470C08FEE90E020E8FC0120838EEE64
:100E500090E02EEE30E0F90120812F7DFC0120830F
:100E600082EF90E0FC018081829586958770282F23
:100E700083EF90E0FC018081882F90E0880F991F1C
:100E8000880F991F880F991F822B8C831A8226C086
:100E90008C81882F90E081509048880F991F825D47
:100EA0009E4FFC01208131818C81882F90E0019739
:100EB0008E5B9E4FFC018081482F50E08A81882FF5
:100EC00090E0840F951F820F931F2AEF30E0F90105
:100ED0002081FC0120838A818F5F8A838A81883008
:100EE000B8F28C81882F90E001978E5B9E4FFC01B9
:100EF00020812F5FFC012083253041F48C81882FD5
:100F000090E001978E5B9E4FFC0110828C81882FB0
:100F100090E001978A5A9E4FFC0120812F5FFC01CF
:100F2000208323C08EEE90E0FC018081829586951F
:100F300086958370882F90E081709927892B71F0B6
:100F40008FEE90E0FC0110828EEE90E02EEE30E00D
:100F5000F90120812F7BFC01208307C089818F5FED
:100F6000898389818F3008F458CF8DEE90E02B81F2
:100F7000FC0120830F900F900F900F90DF91CF9185
:100F8000FF91EF919F918F915F914F913F912F91A1
:100F90000F9000925B000F9000925F000F901F90E7
:100FA0001895CF93DF9300D0CDB7DEB788ED90E0F2
:100FB00021E0FC01208319823EC08DEE90E0298162
:100FC0002295207FFC0120838EEE90E0FC011082B0
:100FD0008FEE90E0FC01108283EF90E0FC01108224
:100FE00082EF90E0FC01108281EF90E0FC01108222
:100FF00080EF90E0FC01108287EF90E0FC0110820E
:1010000086EF90E0FC01108285EF90E0FC011082F9
:1010100084EF90E0FC0110821A8207C08AEF90E012
:10102000FC0110828A818F5F8A838A818830B0F3C5
:1010300089818F5F898389818F3008F4BECF88EDE5
:1010400090E022E0FC01208382EE90E021E0FC01B0
:10105000208383EE90E028E0FC01208384EE90E082
:101060002EE5FC01208385EE90E0FC0110828BEDE3
:1010700090E020EBFC0120838FED90E02FE7FC0156
:1010800020838EED90E02FEFFC01208378940F9069
:101090000F90DF91CF910895CF93DF9300D000D0D0
:1010A000CDB7DEB79C838B838DEE90E0FC01808111
:1010B0008A83000089ED90E0FC01808182958F7029
:1010C000882F90E081709927892BA1F789ED90E016
:1010D000FC018081869586958695882F90E08170A9
:1010E0009927892B39F7198249C08DEE90E0298123
:1010F0002295207FFC0120838FEE90E0FC0180810F
:101100008295869586958370882321F089818F5FEB
:10111000898334C08FEE90E02FE0FC01208383EFC1
:1011200090E02B813C81332736952795369527957E
:1011300036952795FC01208382EF90E02B81229544
:10114000220F207EFC01208386EF90E020EEFC0140
:10115000208387EF90E02FEFFC0120838FEE90E05B
:101160002FEE30E0F90120812068FC0120838DEE14
:1011700090E02A81FC01208381E00AC089818F30C0
:1011800008F4B3CF8DEE90E02A81FC01208380E04B
:101190000F900F900F900F90DF91CF9108950F93C4
:1011A0001F93CF93DF9300D0CDB7DEB78A830E9421
:1011B000D107198230C08981882F90E001960E9462
:1011C0004C088981882F90E0880F991F8C01025D5F
:1011D0001E4F61E070E085E090E00E94B522F801CA
:1011E000918380838981882F90E02981222F30E0AC
:1011F0004981442F50E060E04A5A5E4FFA01608313
:10120000245B3E4FF90160838E5B9E4FFC0160833F
:1012100089818F5F898399818A81981760F20F9005
:101220000F90DF91CF911F910F910895CF93DF938E
:101230001F92CDB7DEB789838981882F90E001970F
:101240008A5A9E4FFC0180810F90DF91CF910895C3
:10125000CF93DF9300D000D0CDB7DEB79B838A83D6
:101260006C8384E390E02FEFFC01208300008C81ED
:10127000882F90E001978A5A9E4FFC018081882335
:10128000B1F319822CC08981882F90E02A813B819B
:10129000820F931F2C81222F30E021503048220FE3
:1012A000331F225D3E4FF901408151812C81222F55
:1012B00030E021503109245B3E4FF9012081622F3B
:1012C00070E02981222F30E0260F371F240F351FB1
:1012D000F9012081FC01208389818F5F89838981C5
:1012E000883088F28C81882F90E00197845B9E4F34
:1012F000FC0120812F5FFC012083253041F48C818B
:10130000882F90E00197845B9E4FFC0110828C81B6
:10131000882F90E001979C012A5A3E4FF9012081C5
:1013200021508A5A9E4FFC01208380E00F900F903D
:101330000F900F90DF91CF910895CF93DF9300D05E
:1013400000D000D0CDB7DEB79D838C836E830000C4
:1013500089ED90E0FC01808182958F70882F90E06C
:1013600081709927892BA1F789ED90E0FC0180819C
:10137000869586958695882F90E081709927892B90
:1013800039F78DEE90E0FC0180818B831A8215C0C5
:101390008DEE90E02A812295207FFC0120838FEE44
:1013A00090E0FC01808182958695869583708823E4
:1013B00009F406C08A818F5F8A838A818F3040F367
:1013C0008A818F3011F48FEF39C082EF90E02E8147
:1013D0002295220F207EFC01208383EF90E02E8156
:1013E000269526952695FC0120838FEE90E028E037
:1013F000FC012083198210C08AEF90E02981222FFE
:1014000030E04C815D81240F351FF9012081FC0102
:10141000208389818F5F89838981883068F38FEE8B
:1014200090E02FEE30E0F90120812064FC01208360
:101430008DEE90E02B81FC01208380E026960FB694
:10144000F894DEBF0FBECDBFDF91CF910895CF934B
:10145000DF93CDB7DEB7DF91CF910895CF93DF93C0
:1014600000D000D000D0CDB7DEB79A8389837C83CB
:101470006B835E834D838D819E8129813A81FC013E
:101480003183208389819A812D813E81FC013383C0
:10149000228389819A812B813C81FC0131832083C5
:1014A0008B819C8129813A81FC013383228326969A
:1014B0000FB6F894DEBF0FBECDBFDF91CF91089578
:1014C000CF93DF9300D000D0CDB7DEB79A83898366
:1014D0007C836B838B819C81FC01428153812B81B6
:1014E0003C8189819A81B9010E942E0A0F900F9048
:1014F0000F900F90DF91CF910895CF93DF93CDB7E9
:10150000DEB72B970FB6F894DEBF0FBECDBF89872D
:101510006A874B8780910D0190910E019C838B838C
:101520008B819C8105979A83898315C089819A81D3
:10153000FC0190818985981711F481E0BCC08981F4
:101540009A81FC01878190859E838D838D819E8108
:1015500005979A83898389819A8105968B5091405A
:1015600029F789858695869586958F5F8F838985EE
:10157000877088878A85813009F055C08F81882FD0
:1015800090E09C0121503109C901880F991F820FF9
:10159000931F8196AC018F81882F90E09C01215090
:1015A0003109C901880F991F820F931F8196FC0191
:1015B0008081682F8885282F30E081E090E002C08C
:1015C000880F991F2A95E2F7862BFA0180838F8175
:1015D000882F90E09C0121503109C901880F991F83
:1015E000820F931F8296AC018F81882F90E09C011F
:1015F00021503109C901880F991F820F931F8296CC
:10160000FC018081682F8885282F30E081E090E000
:1016100002C0880F991F2A95E2F780958623FA0168
:10162000808380E048C08F81882F90E09C0121500A
:101630003109C901880F991F820F931F8196AC0150
:101640008F81882F90E09C0121503109C901880FBA
:10165000991F820F931F8196FC018081682F8885D6
:10166000282F30E081E090E002C0880F991F2A9572
:10167000E2F780958623FA01808389E090E00E945A
:10168000D1229A83898389819A81892B11F481E0FF
:1016900012C089819A812985FC01208389819A81E0
:1016A0002B85FC01218389819A8105966BE071E08D
:1016B0000E94600A80E02B960FB6F894DEBF0FBE42
:1016C000CDBFDF91CF910895CF93DF9300D000D0AD
:1016D000CDB7DEB78B836C838B8186958695869597
:1016E0008F5F89838B8187708B838981882F90E0BE
:1016F0009C0121503109C901880F991F820F931F46
:101700008296FC0180819181A281B3818A838C8140
:10171000882331F18981882F90E09C012150310983
:10172000C901880F991F820F931F8296AC018A818D
:10173000282F30E08B81682F70E081E090E002C0BC
:10174000880F991F6A95E2F7822B932B092E000CC4
:10175000AA0BBB0BFA0180839183A283B38327C0BA
:101760008981882F90E09C0121503109C901880F9F
:10177000991F820F931F8296AC018A81282F30E037
:101780008B81682F70E081E090E002C0880F991F84
:101790006A95E2F78095909582239323092E000C99
:1017A000AA0BBB0BFA0180839183A283B38380E0F1
:1017B0000F900F900F900F90DF91CF910895CF93DE
:1017C000DF9300D01F92CDB7DEB78B838B818695D8
:1017D000869586958F5F89838B8187708B838981BE
:1017E000882F90E09C0121503109C901880F991F71
:1017F000820F931F8096FC0180818A838A81882FC3
:1018000090E02B81222F30E002C0959587952A9594
:10181000E2F781700F900F900F90DF91CF910895B4
:10182000CF93DF93CDB7DEB729970FB6F894DEBF1D
:101830000FBECDBF898780910D0190910E019D83D0
:101840008C838C819D8105979A83898355C089817A
:101850009A81FC0190818985981709F041C01B820B
:101860001FC08B81882F90E029813A81820F931FBE
:101870000296FC0140818B81882F90E0019629819E
:101880003A81820F931F0296FC018081481729F04C
:1018900089819A81FC01848137C08B818F5F8B8322
:1018A0008B818823F1F289819A81FC01918181E009
:1018B0008927882329F089819A81FC01828108C0C7
:1018C00089819A81FC01928181E0992309F080E06D
:1018D000888789819A812885FC012483888514C0A2
:1018E00089819A81FC01878190859F838E838E8177
:1018F0009F8105979A83898389819A8105968B5068
:10190000914009F0A4CF81E029960FB6F894DEBF8C
:101910000FBECDBFDF91CF9108950F931F93CF934B
:10192000DF9300D000D000D0CDB7DEB780910D019D
:1019300090910E019C838B838B819C8105979A8368
:1019400089831EC0009162011091630189819A818F
:10195000FC0180810E94DF0B282F89819A81800FF2
:10196000911F0296FC01208389819A81FC01878165
:1019700090859E838D838D819E8105979A8389832F
:1019800089819A8105968B509140E1F680916201A0
:101990009091630101969093630180936201029795
:1019A00021F4109263011092620126960FB6F8940A
:1019B000DEBF0FBECDBFDF91CF911F910F91089574
:1019C000CF93DF93CDB7DEB767970FB6F894DEBF3E
:1019D0000FBECDBF8F8B809164019F89981709F44A
:1019E00082C086E58F878F89888B72C080E090E007
:1019F000A8E4B2E489839A83AB83BC8320E030E41B
:101A00004CE155E469817A818B819C810E94482256
:101A1000DC01CB018D839E83AF83B88720E030E06B
:101A200040E85FE36D817E818F8198850E94E4208C
:101A300088232CF481E090E09A8789873FC020E0DA
:101A40003FEF4FE757E46D817E818F8198850E943B
:101A5000432218164CF520E030E040E251E4698161
:101A60007A818B819C810E944822DC01CB01BC01E0
:101A7000CD010E946221DC01CB019A8789870FC0CA
:101A80008AEF90E09C878B878B859C850197F1F787
:101A90009C878B8789859A8501979A87898789850D
:101AA0009A85892B69F714C06D817E818F81988515
:101AB0000E946221DC01CB019A87898789859A85FA
:101AC0009E878D878D859E850197F1F79E878D87EF
:101AD000CE010F9663EC0E949D09882309F086CF02
:101AE0008F898093640167960FB6F894DEBF0FBEAE
:101AF000CDBFDF91CF910895CF93DF93CDB7DEB700
:101B000066970FB6F894DEBF0FBECDBF80E58F8716
:101B100072C080E090E0A8E4B2E489839A83AB834A
:101B2000BC8320E030E44CE155E469817A818B810B
:101B30009C810E944822DC01CB018D839E83AF8370
:101B4000B88720E030E040E85FE36D817E818F81DF
:101B500098850E94E42088232CF481E090E09A8705
:101B600089873FC020E03FEF4FE757E46D817E81DA
:101B70008F8198850E94432218164CF520E030E0B2
:101B800040E251E469817A818B819C810E944822E4
:101B9000DC01CB01BC01CD010E946221DC01CB0143
:101BA0009A8789870FC08AEF90E09C878B878B8507
:101BB0009C850197F1F79C878B8789859A8501978A
:101BC0009A87898789859A85892B69F714C06D81E1
:101BD0007E818F8198850E946221DC01CB019A87EA
:101BE000898789859A859E878D878D859E850197B2
:101BF000F1F79E878D87CE010F9663EC0E949D09B9
:101C0000882309F086CFCE010F9661E00E94280953
:101C10008F85809315018889882F90E0382F22279F
:101C20008989882F90E0822B932B909310018093C9
:101C30000F018A89882F90E0382F22278B89882FDF
:101C400090E0822B932B90931201809311018C8949
:101C5000882F90E0382F22278D89882F90E0822BC3
:101C6000932B909314018093130166960FB6F8940A
:101C7000DEBF0FBECDBFDF91CF910895CF93DF932D
:101C800000D000D000D0CDB7DEB79E838D830E94F8
:101C9000A015DC01CB0189839A83AB83BC830E94AE
:101CA0007C0D8D819E81892B71F089819A81AB8118
:101CB000BC812D813E81BC01CD01F90109958130A6
:101CC00011F481E009C0809115018D3441F38091B8
:101CD0001501823521F380E026960FB6F894DEBF19
:101CE0000FBECDBFDF91CF910895CF93DF93CDB7D6
:101CF000DEB767970FB6F894DEBF0FBECDBF8F8BF0
:101D00008F898F8772C080E090E0A8E4B2E4898375
:101D10009A83AB83BC8320E030E44CE155E46981D5
:101D20007A818B819C810E944822DC01CB018D83CA
:101D30009E83AF83B88720E030E040E85FE36D81A9
:101D40007E818F8198850E94E42088232CF481E095
:101D500090E09A8789873FC020E03FEF4FE757E444
:101D60006D817E818F8198850E94432218164CF5E3
:101D700020E030E040E251E469817A818B819C81EE
:101D80000E944822DC01CB01BC01CD010E946221EE
:101D9000DC01CB019A8789870FC08AEF90E09C878E
:101DA0008B878B859C850197F1F79C878B8789852D
:101DB0009A8501979A87898789859A85892B69F7FA
:101DC00014C06D817E818F8198850E946221DC0123
:101DD000CB019A87898789859A859E878D878D858E
:101DE0009E850197F1F79E878D87CE010F9663EC54
:101DF0000E949D09882309F086CF0E947C0D809166
:101E000015018D3409F47CCF80911501823509F4D8
:101E100077CF67960FB6F894DEBF0FBECDBFDF91C8
:101E2000CF910895CF93DF93CDB7DEB76B970FB601
:101E3000F894DEBF0FBECDBF988F8F8B698F5B8FFD
:101E40004A8F898D0E94E00C84E48F878F89988D5A
:101E5000892F990F990B888B8F89898B72C080E0AD
:101E600090E0A8E4B2E489839A83AB83BC8320E04A
:101E700030E44CE155E469817A818B819C810E9438
:101E80004822DC01CB018D839E83AF83B88720E09D
:101E900030E040E85FE36D817E818F8198850E940C
:101EA000E42088232CF481E090E09A8789873FC062
:101EB00020E03FEF4FE757E46D817E818F81988569
:101EC0000E94432218164CF520E030E040E251E435
:101ED00069817A818B819C810E944822DC01CB013F
:101EE000BC01CD010E946221DC01CB019A87898768
:101EF0000FC08AEF90E09C878B878B859C8501972C
:101F0000F1F79C878B8789859A8501979A878987BE
:101F100089859A85892B69F714C06D817E818F81AF
:101F200098850E946221DC01CB019A878987898587
:101F30009A859E878D878D859E850197F1F79E876F
:101F40008D87CE010F9663EC0E949D09882309F0CE
:101F500086CF8A8D9B8D0E943E0E6B960FB6F894AD
:101F6000DEBF0FBECDBFDF91CF910895CF93DF933A
:101F7000CDB7DEB76C970FB6F894DEBF0FBECDBFFE
:101F8000988F8F8B698F4A8F3C8F2B8F898D0E9402
:101F9000E00C87E48F878F89988DFC018081918187
:101FA000892F990F990B888B8F89988DFC018081DF
:101FB0009181898B8F89988DFC0182819381892FF2
:101FC000990F990B8A8B8F89988DFC01828193815F
:101FD0008B8B1C8A8A8D8D8B72C080E090E0A8E488
:101FE000B2E489839A83AB83BC8320E030E44CE184
:101FF00055E469817A818B819C810E944822DC01B1
:10200000CB018D839E83AF83B88720E030E040E82A
:102010005FE36D817E818F8198850E94E420882313
:102020002CF481E090E09A8789873FC020E03FEF61
:102030004FE757E46D817E818F8198850E9443220E
:1020400018164CF520E030E040E251E469817A81D5
:102050008B819C810E944822DC01CB01BC01CD0117
:102060000E946221DC01CB019A8789870FC08AEF29
:1020700090E09C878B878B859C850197F1F79C87E7
:102080008B8789859A8501979A87898789859A851B
:10209000892B69F714C06D817E818F8198850E949C
:1020A0006221DC01CB019A87898789859A859E8781
:1020B0008D878D859E850197F1F79E878D87CE014F
:1020C0000F9663EC0E949D09882309F086CF8B8DC3
:1020D0009C8D0E943E0E6C960FB6F894DEBF0FBE2C
:1020E000CDBFDF91CF910895CF93DF93CDB7DEB70A
:1020F00068970FB6F894DEBF0FBECDBF988F8F8B59
:1021000089E48F878F89988DFC0180819181892F47
:10211000990F990B888B8F89988DFC018081918113
:10212000898B8F89988DFC0182819381892F990FEA
:10213000990B8A8B8F89988DFC01828193818B8B7F
:102140008F89988DFC0184819581892F990F990B36
:102150008C8B8F89988DFC01848195818D8B8F89E3
:10216000988DFC01808191819093100180930F01E3
:102170008F89988DFC0182819381909312018093C5
:1021800011018F89988DFC018481958190931401B0
:102190008093130172C080E090E0A8E4B2E48983E8
:1021A0009A83AB83BC8320E030E44CE155E4698141
:1021B0007A818B819C810E944822DC01CB018D8336
:1021C0009E83AF83B88720E030E040E85FE36D8115
:1021D0007E818F8198850E94E42088232CF481E001
:1021E00090E09A8789873FC020E03FEF4FE757E4B0
:1021F0006D817E818F8198850E94432218164CF54F
:1022000020E030E040E251E469817A818B819C8159
:102210000E944822DC01CB01BC01CD010E94622159
:10222000DC01CB019A8789870FC08AEF90E09C87F9
:102230008B878B859C850197F1F79C878B87898598
:102240009A8501979A87898789859A85892B69F765
:1022500014C06D817E818F8198850E946221DC018E
:10226000CB019A87898789859A859E878D878D85F9
:102270009E850197F1F79E878D87CE010F9663ECBF
:102280000E949D09882309F086CF68960FB6F894BE
:10229000DEBF0FBECDBFDF91CF910895CF93DF9307
:1022A000CDB7DEB76B970FB6F894DEBF0FBECDBFCC
:1022B000988F8F8B698F5B8F4A8F898D0E94E00C7E
:1022C00084E58F878F89988D892F9927888B8F89AF
:1022D000898B72C080E090E0A8E4B2E489839A839D
:1022E000AB83BC8320E030E44CE155E469817A8122
:1022F0008B819C810E944822DC01CB018D839E83CF
:10230000AF83B88720E030E040E85FE36D817E81F5
:102310008F8198850E94E42088232CF481E090E04E
:102320009A8789873FC020E03FEF4FE757E46D81F0
:102330007E818F8198850E94432218164CF520E0FB
:1023400030E040E251E469817A818B819C810E9476
:102350004822DC01CB01BC01CD010E946221DC01DD
:10236000CB019A8789870FC08AEF90E09C878B8783
:102370008B859C850197F1F79C878B8789859A854A
:1023800001979A87898789859A85892B69F714C06F
:102390006D817E818F8198850E946221DC01CB0155
:1023A0009A87898789859A859E878D878D859E8561
:1023B0000197F1F79E878D87CE010F9663EC0E94FF
:1023C0009D09882309F086CF8A8D9B8D0E943E0E41
:1023D0006B960FB6F894DEBF0FBECDBFDF91CF91E5
:1023E0000895CF93DF93CDB7DEB76B970FB6F89410
:1023F000DEBF0FBECDBF988F8F8B698F5B8F4A8FEB
:10240000898D0E94E00C81E48F878F89988D892FB8
:102410009927888B8F89898B72C080E090E0A8E42F
:10242000B2E489839A83AB83BC8320E030E44CE13F
:1024300055E469817A818B819C810E944822DC016C
:10244000CB018D839E83AF83B88720E030E040E8E6
:102450005FE36D817E818F8198850E94E4208823CF
:102460002CF481E090E09A8789873FC020E03FEF1D
:102470004FE757E46D817E818F8198850E944322CA
:1024800018164CF520E030E040E251E469817A8191
:102490008B819C810E944822DC01CB01BC01CD01D3
:1024A0000E946221DC01CB019A8789870FC08AEFE5
:1024B00090E09C878B878B859C850197F1F79C87A3
:1024C0008B8789859A8501979A87898789859A85D7
:1024D000892B69F714C06D817E818F8198850E9458
:1024E0006221DC01CB019A87898789859A859E873D
:1024F0008D878D859E850197F1F79E878D87CE010B
:102500000F9663EC0E949D09882309F086CF8A8D7F
:102510009B8D0E943E0E6B960FB6F894DEBF0FBEE9
:10252000CDBFDF91CF910895EF92FF920F93CF939C
:10253000DF93CDB7DEB76F970FB6F894DEBF0FBE4F
:10254000CDBF988F8F8B7A8F698F4B8F2C8F0D8F8C
:10255000FF8EEE8E8D8D0E94E00C81E58F878F8936
:10256000988D892F9927888B8F89898B898D9A8D52
:10257000892F99278A8B898D8B8B8B8D082E000C48
:10258000990B892F990F990B8C8B8B8D8D8B8C8D43
:102590008E8B72C080E090E0A8E4B2E489839A83D5
:1025A000AB83BC8320E030E44CE155E469817A815F
:1025B0008B819C810E944822DC01CB018D839E830C
:1025C000AF83B88720E030E040E85FE36D817E8133
:1025D0008F8198850E94E42088232CF481E090E08C
:1025E0009A8789873FC020E03FEF4FE757E46D812E
:1025F0007E818F8198850E94432218164CF520E039
:1026000030E040E251E469817A818B819C810E94B3
:102610004822DC01CB01BC01CD010E946221DC011A
:10262000CB019A8789870FC08AEF90E09C878B87C0
:102630008B859C850197F1F79C878B8789859A8587
:1026400001979A87898789859A85892B69F714C0AC
:102650006D817E818F8198850E946221DC01CB0192
:102660009A87898789859A859E878D878D859E859E
:102670000197F1F79E878D87CE010F9663EC0E943C
:102680009D09882309F086CF8E8D9F8D0E943E0E76
:102690006F960FB6F894DEBF0FBECDBFDF91CF911E
:1026A0000F91FF90EF900895CF93DF93CDB7DEB7F2
:1026B00066970FB6F894DEBF0FBECDBF8BE48F8751
:1026C00072C080E090E0A8E4B2E489839A83AB838F
:1026D000BC8320E030E44CE155E469817A818B8150
:1026E0009C810E944822DC01CB018D839E83AF83B5
:1026F000B88720E030E040E85FE36D817E818F8124
:1027000098850E94E42088232CF481E090E09A8749
:1027100089873FC020E03FEF4FE757E46D817E811E
:102720008F8198850E94432218164CF520E030E0F6
:1027300040E251E469817A818B819C810E94482228
:10274000DC01CB01BC01CD010E946221DC01CB0187
:102750009A8789870FC08AEF90E09C878B878B854B
:102760009C850197F1F79C878B8789859A850197CE
:102770009A87898789859A85892B69F714C06D8125
:102780007E818F8198850E946221DC01CB019A872E
:10279000898789859A859E878D878D859E850197F6
:1027A000F1F79E878D87CE010F9663EC0E949D09FD
:1027B000882309F086CF66960FB6F894DEBF0FBE69
:1027C000CDBFDF91CF910895CF93DF93CDB7DEB723
:1027D0000E947C0D80911501DF91CF910895CF93D8
:1027E000DF93CDB7DEB70E947C0D80910F019091F1
:1027F0001001DF91CF910895CF93DF93CDB7DEB76E
:102800000E947C0D8091110190911201DF91CF9176
:102810000895CF93DF93CDB7DEB70E947C0D8091F2
:10282000130190911401DF91CF910895CF93DF931D
:1028300000D0CDB7DEB79A83898389819A8190933E
:102840006B0180936A010F900F90DF91CF910895F3
:102850000F931F93CF93DF9300D0CDB7DEB79A834A
:10286000898380E890E0FC01108281E890E029E013
:10287000FC01208308E810E089819A81CC01A0E066
:10288000B0E0BC01CD010E949121DC01CB019C0193
:10289000AD0160E876E988E19BE40E94E920DC0173
:1028A000CB0120E030E040E05FE3BC01CD010E94BD
:1028B0007820DC01CB01BC01CD010E946221DC014A
:1028C000CB01F801918380838FE690E022E0FC0148
:1028D00020838FE590E02FE530E0F901208120682A
:1028E000FC0120830F900F90DF91CF911F910F91EA
:1028F00008951F920F9200905F000F921124009094
:102900005B000F922F933F934F935F936F937F934F
:102910008F939F93AF93BF93EF93FF93CF93DF93E7
:10292000CDB7DEB76297DEBFCDBF80916A019091CF
:102930006B01892B31F080916A0190916B01FC0150
:1029400009958091650190916601A0916701B09110
:10295000680180399F45A140B10508F484C00E94F8
:10296000B115882309F47FC00E94541384E390E0DA
:1029700024E330E0F901308121E02327FC012083AA
:1029800080E090E0AAE7B4E489839A83AB83BC83B8
:1029900020E030E44CE155E469817A818B819C81AF
:1029A0000E944822DC01CB018D839E83AF83B887D0
:1029B00020E030E040E85FE36D817E818F81988583
:1029C0000E94E42088232CF481E090E09A87898794
:1029D0003FC020E03FEF4FE757E46D817E818F815C
:1029E00098850E94432218164CF520E030E040E222
:1029F00051E469817A818B819C810E944822DC01AB
:102A0000CB01BC01CD010E946221DC01CB019A8780
:102A100089870FC08AEF90E09C878B878B859C8588
:102A20000197F1F79C878B8789859A8501979A870B
:102A3000898789859A85892B69F714C06D817E8184
:102A40008F8198850E946221DC01CB019A8789875A
:102A500089859A859E878D878D859E850197F1F75B
:102A60009E878D8783CF8091650190916601A091AB
:102A70006701B091680128EE33E040E050E0BC010E
:102A8000CD010E945520DC01CB01892B8A2B8B2B99
:102A900071F480916F01882351F484E390E024E382
:102AA00030E0F901308121E02327FC01208380916F
:102AB000650190916601A0916701B091680101964E
:102AC000A11DB11D8093650190936601A0936701DC
:102AD000B093680162960FB6F894DEBF0FBECDBF0B
:102AE000DF91CF91FF91EF91BF91AF919F918F9126
:102AF0007F916F915F914F913F912F910F90009235
:102B00005B000F9000925F000F901F901895CF937D
:102B1000DF93CDB7DEB71092650110926601109277
:102B2000670110926801DF91CF910895CF93DF93F1
:102B3000CDB7DEB781E080936901DF91CF91089531
:102B4000CF93DF93CDB7DEB7809165019091660199
:102B5000A0916701B0916801BC01CD01DF91CF91D7
:102B60000895CF93DF93CDB7DEB780916901DF91F0
:102B7000CF9108951F920F9200905F000F92112441
:102B80008F93CF93DF93CDB7DEB781E080936E0153
:102B9000DF91CF918F910F9000925F000F901F9067
:102BA0001895CF93DF93CDB7DEB72E970FB6F89475
:102BB000DEBF0FBECDBF8DE290E02DE230E0F90127
:102BC00020812F77FC0120838EE290E02EE230E01E
:102BD000F90120812068FC0120838AE690E020E44E
:102BE000FC0120838DE390E02DE330E0F9012081AA
:102BF0002068FC01208380E090E0A8ECB2E48983A7
:102C00009A83AB83BC8320E030E44CE155E46981D6
:102C10007A818B819C810E944822DC01CB018D83CB
:102C20009E83AF83B88720E030E040E85FE36D81AA
:102C30007E818F8198850E94E42088232CF481E096
:102C400090E09A8789873FC020E03FEF4FE757E445
:102C50006D817E818F8198850E94432218164CF5E4
:102C600020E030E040E251E469817A818B819C81EF
:102C70000E944822DC01CB01BC01CD010E946221EF
:102C8000DC01CB019A8789870FC08AEF90E09C878F
:102C90008B878B859C850197F1F79C878B8789852E
:102CA0009A8501979A87898789859A85892B69F7FB
:102CB00014C06D817E818F8198850E946221DC0124
:102CC000CB019A87898789859A859E878D878D858F
:102CD0009E850197F1F79E878D8778942E960FB683
:102CE000F894DEBF0FBECDBFDF91CF910895CF9393
:102CF000DF93CDB7DEB72E970FB6F894DEBF0FBEC9
:102D0000CDBF72C080E090E0A0E2B1E489839A83F5
:102D1000AB83BC8320E030E44CE155E469817A81E7
:102D20008B819C810E944822DC01CB018D839E8394
:102D3000AF83B88720E030E040E85FE36D817E81BB
:102D40008F8198850E94E42088232CF481E090E014
:102D50009A8789873FC020E03FEF4FE757E46D81B6
:102D60007E818F8198850E94432218164CF520E0C1
:102D700030E040E251E469817A818B819C810E943C
:102D80004822DC01CB01BC01CD010E946221DC01A3
:102D9000CB019A8789870FC08AEF90E09C878B8749
:102DA0008B859C850197F1F79C878B8789859A8510
:102DB00001979A87898789859A85892B69F714C035
:102DC0006D817E818F8198850E946221DC01CB011B
:102DD0009A87898789859A859E878D878D859E8527
:102DE0000197F1F79E878D8780916E01882309F402
:102DF00089CF2E960FB6F894DEBF0FBECDBFDF9100
:102E0000CF910895CF93DF93CDB7DEB7AA970FB6D2
:102E1000F894DEBF0FBECDBF8DE89CE00E94161473
:102E200080E090E0A8ECB2E489839A83AB83BC8312
:102E300020E030E44CE155E469817A818B819C810A
:102E40000E944822DC01CB018D839E83AF83B8872B
:102E500020E030E040E85FE36D817E818F819885DE
:102E60000E94E42088232CF481E090E09A878987EF
:102E70003FC020E03FEF4FE757E46D817E818F81B7
:102E800098850E94432218164CF520E030E040E27D
:102E900051E469817A818B819C810E944822DC0106
:102EA000CB01BC01CD010E946221DC01CB019A87DC
:102EB00089870FC08AEF90E09C878B878B859C85E4
:102EC0000197F1F79C878B8789859A8501979A8767
:102ED000898789859A85892B69F714C06D817E81E0
:102EE0008F8198850E946221DC01CB019A878987B6
:102EF00089859A859E878D878D859E850197F1F7B7
:102F00009E878D8741E060E080E00E947D0A80E03E
:102F100090E0A8ECB2E48F87988BA98BBA8B20E065
:102F200030E44CE155E46F85788989899A890E945B
:102F30004822DC01CB018B8B9C8BAD8BBE8B20E0C0
:102F400030E040E85FE36B897C898D899E890E942F
:102F5000E42088232CF481E090E0988F8F8B3FC091
:102F600020E03FEF4FE757E46B897C898D899E898C
:102F70000E94432218164CF520E030E040E251E474
:102F80006F85788989899A890E944822DC01CB0162
:102F9000BC01CD010E946221DC01CB01988F8F8B97
:102FA0000FC08AEF90E09A8F898F898D9A8D019753
:102FB000F1F79A8F898F8F89988D0197988F8F8BD2
:102FC0008F89988D892B69F714C06B897C898D89CD
:102FD0009E890E946221DC01CB01988F8F8B8F89A3
:102FE000988D9C8F8B8F8B8D9C8D0197F1F79C8F8B
:102FF0008B8F83E390E021E0FC01208384E390E069
:10300000FC01108288EE93E00E94281481E00E9467
:10301000CF0840E060E875E280E090E00E94441A4A
:1030200082E390E00E94C30080E090E0AAEFB3E466
:103030008D8F9E8FAF8FB8A320E030E44CE155E434
:103040006D8D7E8D8F8D98A10E944822DC01CB0171
:1030500089A39AA3ABA3BCA320E030E040E85FE3E0
:1030600069A17AA18BA19CA10E94E42088232CF461
:1030700081E090E09EA38DA33FC020E03FEF4FE7AB
:1030800057E469A17AA18BA19CA10E944322181642
:103090004CF520E030E040E251E46D8D7E8D8F8D67
:1030A00098A10E944822DC01CB01BC01CD010E9405
:1030B0006221DC01CB019EA38DA30FC08AEF90E0BB
:1030C00098A78FA38FA198A50197F1F798A78FA331
:1030D0008DA19EA101979EA38DA38DA19EA1892B59
:1030E00069F714C069A17AA18BA19CA10E946221F9
:1030F000DC01CB019EA38DA38DA19EA19AA789A7D8
:1031000089A59AA50197F1F79AA789A70E94D115D9
:1031100081E080936F0184E390E021E0FC01208353
:1031200084E390E0FC0110820E9487150E949615AE
:10313000AA960FB6F894DEBF0FBECDBFDF91CF9138
:103140000895CF93DF93CDB7DEB727970FB6F894E6
:10315000DEBF0FBECDBF6B837C838D839E834F8389
:1031600080EC90E0FC01108281EC90E028E1FC0111
:10317000208382EC90E026E0FC0120838F81813067
:1031800091F481EC90E021EC30E0F9012081206C99
:10319000FC0120838FE590E02FE530E0F9012081EC
:1031A0002068FC0120836B817C818D819E810E943F
:1031B0009121DC01CB0120E030E040E851E4BC018A
:1031C000CD010E944822DC01CB019C01AD0160E8E9
:1031D00076E988E19BE40E94E920DC01CB0120E054
:1031E00030E040E85FE3BC01CD010E947720DC01C4
:1031F000CB0120E030E040E05FE3BC01CD010E9464
:103200007820DC01CB01BC01CD010E946221DC01F0
:10321000CB019A83898385EC90E029813A81232F21
:103220003327FC01208384EC90E02981FC0120837A
:1032300027960FB6F894DEBF0FBECDBFDF91CF91BA
:1032400008951F920F9200905F000F92112400903A
:103250005B000F922F933F938F939F93EF93FF9376
:10326000CF93DF93CDB7DEB78091B1018823D1F042
:103270008091B10181508093B10186EC90E0209162
:10328000B201222F30E020593E4FF9012081FC018C
:1032900020838091B2018F5F8093B201803411F45A
:1032A0001092B201DF91CF91FF91EF919F918F9199
:1032B0003F912F910F9000925B000F9000925F0062
:1032C0000F901F901895CF93DF931F92CDB7DEB765
:1032D000898381EC90E0FC018081829586958695BA
:1032E0008370882F90E081709927892B99F10000D5
:1032F0008091B1018034E1F3F8948091B101882389
:1033000051F480EC90E0FC018081882F90E0807285
:103310009927892BC1F48091B001882F90E08059C2
:103320009E4F2981FC0120838091B0018F5F8093A3
:10333000B001803411F41092B0018091B1018F5F1F
:103340008093B10105C086EC90E02981FC012083C7
:10335000789403C089810E94521B0F90DF91CF9116
:1033600008951F920F9200905F000F921124009019
:103370005B000F922F933F938F939F93EF93FF9355
:10338000CF93DF931F92CDB7DEB780EC90E0FC01C6
:10339000808189838981882F90E08C719927892B7E
:1033A000D1F48091F301882F90E026EC30E0F90110
:1033B00020818D549E4FFC0120838091F3018F5F0B
:1033C0008093F301803411F41092F3018091F401A1
:1033D0008F5F8093F4010F90DF91CF91FF91EF9178
:1033E0009F918F913F912F910F9000925B000F90D2
:1033F00000925F000F901F901895CF93DF931F925C
:10340000CDB7DEB781EC90E0FC018081881F882772
:10341000881F882F90E081709927892BE9F00000A0
:103420008091F4018823E1F38091F501882F90E0E9
:103430008D549E4FFC01808189838091F5018F5FBF
:103440008093F501803411F41092F5018091F4011C
:1034500081508093F40113C0000080EC90E0FC01E7
:103460008081881F8827881F882F90E08170992786
:10347000892B99F386EC90E0FC0180818983898116
:103480000F90DF91CF910895CF93DF93CDB7DEB743
:1034900027970FB6F894DEBF0FBECDBF6B837C833A
:1034A0008D839E834F8388EC90E0FC01108289EC31
:1034B00090E028E1FC0120838AEC90E026E0FC010A
:1034C00020838F81813091F489EC90E029EC30E009
:1034D000F9012081206CFC0120838FE590E02FE52D
:1034E00030E0F90120812068FC0120836B817C8120
:1034F0008D819E810E949121DC01CB0120E030E092
:1035000040E851E4BC01CD010E944822DC01CB011E
:103510009C01AD0160E876E988E19BE40E94E92026
:10352000DC01CB0120E030E040E85FE3BC01CD01ED
:103530000E947720DC01CB0120E030E040E05FE337
:10354000BC01CD010E947820DC01CB01BC01CD0182
:103550000E946221DC01CB019A8389838DEC90E08B
:1035600029813A81232F3327FC0120838CEC90E0C2
:103570002981FC01208327960FB6F894DEBF0FBE89
:10358000CDBFDF91CF9108951F920F9200905F0001
:103590000F92112400905B000F922F933F938F9313
:1035A0009F93EF93FF93CF93DF93CDB7DEB78091D7
:1035B00037028823D1F080913702815080933702FF
:1035C0008EEC90E020913802222F30E02A503E4FBE
:1035D000F9012081FC012083809138028F5F809364
:1035E0003802803411F410923802DF91CF91FF91AC
:1035F000EF919F918F913F912F910F9000925B00DF
:103600000F9000925F000F901F9018951F920F92DD
:1036100000905F000F92112400905B000F922F9397
:103620003F938F939F93EF93FF93CF93DF931F92DB
:10363000CDB7DEB788EC90E0FC0180818983898179
:10364000882F90E08C719927892BD1F48091790291
:10365000882F90E02EEC30E0F9012081875C9D4FAF
:10366000FC012083809179028F5F809379028034FE
:1036700011F41092790280917A028F5F80937A021E
:103680000F90DF91CF91FF91EF919F918F913F919B
:103690002F910F9000925B000F9000925F000F90AF
:1036A0001F901895CF93DF931F92CDB7DEB7898314
:1036B000000080EC90E0FC018081882F90E0807217
:1036C0009927892BB1F386EC90E02981FC012083B6
:1036D0000F90DF91CF910895CF93DF931F92CDB7D5
:1036E000DEB78983000088EC90E0FC018081882FA0
:1036F00090E080729927892BB1F38EEC90E02981BC
:10370000FC0120830F90DF91CF910895CF93DF9339
:103710001F92CDB7DEB7898389EC90E0FC018081F0
:103720008295869586958370882F90E08170992781
:10373000892B99F10000809137028034E1F3F894ED
:1037400080913702882351F488EC90E0FC0180815D
:10375000882F90E080729927892BC1F480913602DE
:10376000882F90E08A509E4F2981FC012083809110
:1037700036028F5F80933602803411F41092360245
:10378000809137028F5F8093370205C08EEC90E006
:103790002981FC012083789403C089810E946C1BDD
:1037A0000F90DF91CF910895CF93DF931F92CDB704
:1037B000DEB789EC90E0FC018081881F8827881F94
:1037C000882F90E081709927892BE9F00000809183
:1037D0007A028823E1F380917B02882F90E0875C56
:1037E0009D4FFC018081898380917B028F5F809354
:1037F0007B02803411F410927B0280917A02815016
:1038000080937A0213C0000088EC90E0FC01808174
:10381000881F8827881F882F90E081709927892B1F
:1038200099F38EEC90E0FC018081898389810F906F
:10383000DF91CF910895CF93DF9300D0CDB7DEB75E
:103840009A8389830BC089819A819C012F5F3F4FA6
:103850003A832983FC0180810E946C1B89819A81B3
:10386000FC018081882379F70F900F90DF91CF9131
:103870000895CF93DF9300D000D0CDB7DEB7698332
:103880007A838B839C8380E00E94100C813029F422
:1038900083E50E94750E81E001C080E00F900F90DB
:1038A0000F900F90DF91CF910895CF93DF93CDB715
:1038B000DEB76C970FB6F894DEBF0FBECDBF80E0C9
:1038C00090E0A8E4B3E489839A83AB83BC8320E0CF
:1038D00030E44CE155E469817A818B819C810E94BE
:1038E0004822DC01CB018D839E83AF83B88720E023
:1038F00030E040E85FE36D817E818F8198850E9492
:10390000E42088232CF481E090E09A8789873FC0E7
:1039100020E03FEF4FE757E46D817E818F819885EE
:103920000E94432218164CF520E030E040E251E4BA
:1039300069817A818B819C810E944822DC01CB01C4
:10394000BC01CD010E946221DC01CB019A878987ED
:103950000FC08AEF90E09C878B878B859C850197B1
:10396000F1F79C878B8789859A8501979A87898744
:1039700089859A85892B69F714C06D817E818F8135
:1039800098850E946221DC01CB019A87898789850D
:103990009A859E878D878D859E850197F1F79E87F5
:1039A0008D8772C080E090E0A0E2B1E48F87988BB1
:1039B000A98BBA8B20E030E44CE155E46F8578891F
:1039C00089899A890E944822DC01CB018B8B9C8BD0
:1039D000AD8BBE8B20E030E040E85FE36B897C89F3
:1039E0008D899E890E94E42088232CF481E090E058
:1039F000988F8F8B3FC020E03FEF4FE757E46B89F4
:103A00007C898D899E890E94432218164CF520E0FE
:103A100030E040E251E46F85788989899A890E9473
:103A20004822DC01CB01BC01CD010E946221DC01F6
:103A3000CB01988F8F8B0FC08AEF90E09A8F898F80
:103A4000898D9A8D0197F1F79A8F898F8F89988D3B
:103A50000197988F8F8B8F89988D892B69F714C068
:103A60006B897C898D899E890E946221DC01CB0152
:103A7000988F8F8B8F89988D9C8F8B8F8B8D9C8D42
:103A80000197F1F79C8F8B8F80917C02282F30E07B
:103A90004BE0429FC001439F900D1124805E9E4FDA
:103AA000FC012081318160E070E0CB01F9010995D2
:103AB000813009F477CF80917C0280937D0281E090
:103AC000809316016C960FB6F894DEBF0FBECDBF83
:103AD000DF91CF910895CF93DF93CDB7DEB7A39752
:103AE0000FB6F894DEBF0FBECDBF1E8E1D8E18A27E
:103AF0001F8E1AA219A2CE014D960E9474108091B9
:103B00001601882F90E08130910509F48FC083352C
:103B1000910591F0892B09F059C180917C0288238D
:103B200019F40E94551C52C180917C02813019F415
:103B30000E94551C4BC14AC180E090E0AAE7B4E462
:103B400089839A83AB83BC8320E030E44CE155E465
:103B500069817A818B819C810E944822DC01CB01A2
:103B60008D839E83AF83B88720E030E040E85FE339
:103B70006D817E818F8198850E94E42088232CF4BA
:103B800081E090E09A8789873FC020E03FEF4FE7D0
:103B900057E46D817E818F8198850E94432218169B
:103BA0004CF520E030E040E251E469817A818B817C
:103BB0009C810E944822DC01CB01BC01CD010E9406
:103BC0006221DC01CB019A8789870FC08AEF90E0E0
:103BD0009C878B878B859C850197F1F79C878B87CA
:103BE00089859A8501979A87898789859A85892BFE
:103BF00069F714C06D817E818F8198850E94622152
:103C0000DC01CB019A87898789859A859E878D8774
:103C10008D859E850197F1F79E878D8781E0809342
:103C2000160180917C0280937D02D0C080917D023C
:103C300080937C02C6C080917C02282F30E04BE04C
:103C4000429FC001439F900D1124805E9E4FDC0176
:103C50004D915C9180917C02282F30E06BE0629F57
:103C6000C001639F900D1124815E9E4FDC01EC9199
:103C700080917C02282F30E06BE0629FC001639F3F
:103C8000900D1124825E9E4FDC017C9180917C021C
:103C9000282F30E06BE0629FC001639F900D1124DC
:103CA000895E9E4F9A014E2F672F0E94B60F809318
:103CB0007E0280917E02813019F41092160186C036
:103CC00080917C02882309F072C080E090E0AAEF26
:103CD000B4E48F87988BA98BBA8B20E030E44CE159
:103CE00055E46F85788989899A890E944822DC0188
:103CF000CB018B8B9C8BAD8BBE8B20E030E040E802
:103D00005FE36B897C898D899E890E94E4208823EA
:103D10002CF481E090E0988F8F8B3FC020E03FEF44
:103D20004FE757E46B897C898D899E890E944322E5
:103D300018164CF520E030E040E251E46F857889B8
:103D400089899A890E944822DC01CB01BC01CD01FE
:103D50000E946221DC01CB01988F8F8B0FC08AEF0C
:103D600090E09A8F898F898D9A8D0197F1F79A8FBC
:103D7000898F8F89988D0197988F8F8B8F89988DD8
:103D8000892B69F714C06B897C898D899E890E9473
:103D90006221DC01CB01988F8F8B8F89988D9C8F4E
:103DA0008B8F8B8D9C8D0197F1F79C8F8B8F8091E2
:103DB0007C02813009F4FFCF80917C028F5F809379
:103DC0007C0280917C02823008F435CF98CECF936C
:103DD000DF93CDB7DEB7AA970FB6F894DEBF0FBE5C
:103DE000CDBF0E94021780E090E8ABE3B5E4898381
:103DF0009A83AB83BC8320E030E44CE155E46981D5
:103E00007A818B819C810E944822DC01CB018D83C9
:103E10009E83AF83B88720E030E040E85FE36D81A8
:103E20007E818F8198850E94E42088232CF481E094
:103E300090E09A8789873FC020E03FEF4FE757E443
:103E40006D817E818F8198850E94432218164CF5E2
:103E500020E030E040E251E469817A818B819C81ED
:103E60000E944822DC01CB01BC01CD010E946221ED
:103E7000DC01CB019A8789870FC08AEF90E09C878D
:103E80008B878B859C850197F1F79C878B8789852C
:103E90009A8501979A87898789859A85892B69F7F9
:103EA00014C06D817E818F8198850E946221DC0122
:103EB000CB019A87898789859A859E878D878D858D
:103EC0009E850197F1F79E878D8760E070E0CB01BA
:103ED0000E943D0380E090E0AAE7B4E48F87988BCE
:103EE000A98BBA8B20E030E44CE155E46F857889EA
:103EF00089899A890E944822DC01CB018B8B9C8B9B
:103F0000AD8BBE8B20E030E040E85FE36B897C89BD
:103F10008D899E890E94E42088232CF481E090E022
:103F2000988F8F8B3FC020E03FEF4FE757E46B89BE
:103F30007C898D899E890E94432218164CF520E0C9
:103F400030E040E251E46F85788989899A890E943E
:103F50004822DC01CB01BC01CD010E946221DC01C1
:103F6000CB01988F8F8B0FC08AEF90E09A8F898F4B
:103F7000898D9A8D0197F1F79A8F898F8F89988D06
:103F80000197988F8F8B8F89988D892B69F714C033
:103F90006B897C898D899E890E946221DC01CB011D
:103FA000988F8F8B8F89988D9C8F8B8F8B8D9C8D0D
:103FB0000197F1F79C8F8B8F60E070E084E393E4CE
:103FC0000E943D0380E090E0AAE7B4E48D8F9E8FCD
:103FD000AF8FB8A320E030E44CE155E46D8D7E8DC9
:103FE0008F8D98A10E944822DC01CB0189A39AA35E
:103FF000ABA3BCA320E030E040E85FE369A17AA175
:104000008BA19CA10E94E42088232CF481E090E005
:104010009EA38DA33FC020E03FEF4FE757E469A187
:104020007AA18BA19CA10E94432218164CF520E096
:1040300030E040E251E46D8D7E8D8F8D98A10E941D
:104040004822DC01CB01BC01CD010E946221DC01D0
:10405000CB019EA38DA30FC08AEF90E098A78FA3FA
:104060008FA198A50197F1F798A78FA38DA19EA185
:1040700001979EA38DA38DA19EA1892B69F714C0E2
:1040800069A17AA18BA19CA10E946221DC01CB01D4
:104090009EA38DA38DA19EA19AA789A789A59AA564
:1040A0000197F1F79AA789A710CFA1E21A2EAA1BB0
:1040B000BB1BFD010DC0AA1FBB1FEE1FFF1FA217D8
:1040C000B307E407F50720F0A21BB30BE40BF50BD5
:1040D000661F771F881F991F1A9469F7609570955E
:1040E000809590959B01AC01BD01CF01089550587A
:1040F000BB27AA270E948F200C9409220E94FB2133
:1041000038F00E94022220F039F49F3F19F426F47F
:104110000C94F8210EF4E095E7FB0C94F221E92FC2
:104120000E941A2258F3BA1762077307840795078B
:1041300020F079F4A6F50C943C220EF4E0950B2EB9
:10414000BA2FA02D0B01B90190010C01CA01A001E9
:104150001124FF27591B99F0593F50F4503E68F144
:104160001A16F040A22F232F342F4427585FF3CF85
:10417000469537952795A795F0405395C9F77EF456
:104180001F16BA0B620B730B840BBAF09150A1F09F
:10419000FF0FBB1F661F771F881FC2F70EC0BA0F25
:1041A000621F731F841F48F4879577956795B795AD
:1041B000F7959E3F08F0B0CF9395880F08F09927A8
:1041C000EE0F9795879508950E94CE2108F481E01F
:1041D00008950E94FD200C9409220E94022258F0AA
:1041E0000E94FB2140F029F45F3F29F00C94F2215A
:1041F00051110C943D220C94F8210E941A2268F36C
:104200009923B1F3552391F3951B550BBB27AA278F
:1042100062177307840738F09F5F5F4F220F331FC9
:10422000441FAA1FA9F335D00E2E3AF0E0E832D091
:1042300091505040E695001CCAF72BD0FE2F29D094
:10424000660F771F881FBB1F261737074807AB0766
:10425000B0E809F0BB0B802DBF01FF2793585F4FDB
:104260003AF09E3F510578F00C94F2210C943D22D7
:104270005F3FE4F3983ED4F3869577956795B795BD
:10428000F7959F5FC9F7880F911D9695879597F9C8
:104290000895E1E0660F771F881FBB1F6217730741
:1042A0008407BA0720F0621B730B840BBA0BEE1F56
:1042B00088F7E09508950E9462216894B1110C94EA
:1042C0003D2208950E94222288F09F5798F0B92F2E
:1042D0009927B751B0F0E1F0660F771F881F991F3B
:1042E0001AF0BA95C9F714C0B13091F00E943C227F
:1042F000B1E008950C943C22672F782F8827B85F8F
:1043000039F0B93FCCF3869577956795B395D9F792
:104310003EF490958095709561957F4F8F4F9F4F9C
:104320000895E89409C097FB3EF4909580957095A8
:1043300061957F4F8F4F9F4F9923A9F0F92F96E9F1
:10434000BB279395F695879577956795B795F11166
:10435000F8CFFAF4BB0F11F460FF1BC06F5F7F4F03
:104360008F4F9F4F16C0882311F096E911C0772315
:1043700021F09EE8872F762F05C0662371F096E81E
:10438000862F70E060E02AF09A95660F771F881FED
:10439000DAF7880F9695879597F90895990F000891
:1043A000550FAA0BE0E8FEEF16161706E807F90707
:1043B000C0F012161306E407F50798F0621B730BA2
:1043C000840B950B39F40A2661F0232B242B252B23
:1043D00021F408950A2609F4A140A6958FEF811DC6
:1043E000811D089597F99F6780E870E060E0089567
:1043F0009FEF80EC089500240A94161617061806FD
:104400000906089500240A941216130614060506D8
:104410000895092E0394000C11F4882352F0BB0F69
:1044200040F4BF2B11F460FF04C06F5F7F4F8F4FCC
:104430009F4F089557FD9058440F551F59F05F3F07
:1044400071F04795880F97FB991F61F09F3F79F0B6
:1044500087950895121613061406551FF2CF469538
:10446000F1DF08C0161617061806991FF1CF8695BA
:104470007105610508940895E894BB27662777279E
:10448000CB0197F908950E94CE2108F48FEF08958B
:104490000E945B220C9409220E94FB2138F00E94AA
:1044A000022220F0952311F00C94F2210C94F821B3
:1044B00011240C943D220E941A2270F3959FC1F39F
:1044C000950F50E0551F629FF001729FBB27F00DC2
:1044D000B11D639FAA27F00DB11DAA1F649F662717
:1044E000B00DA11D661F829F2227B00DA11D621F66
:1044F000739FB00DA11D621F839FA00D611D221F20
:10450000749F3327A00D611D231F849F600D211D03
:10451000822F762F6A2F11249F5750409AF0F1F086
:1045200088234AF0EE0FFF1FBB1F661F771F881FEF
:1045300091505040A9F79E3F510580F00C94F22114
:104540000C943D225F3FE4F3983ED4F38695779533
:104550006795B795F795E7959F5FC1F7FE2B880F95
:10456000911D9695879597F908950F931F93CF9373
:10457000DF93869F8001879F100D969F100D112459
:10458000C8010E94D122EC01009729F0A80160E047
:1045900070E00E94FE23CE01DF91CF911F910F9119
:1045A0000895CF93DF938230910510F482E090E07C
:1045B000E0918102F091820220E030E0C0E0D0E0A2
:1045C000309711F14081518148175907C0F04817C1
:1045D000590761F482819381209719F09B838A8324
:1045E0002BC0909382028093810226C02115310551
:1045F00019F04217530718F49A01BE01DF01EF01C9
:104600000280F381E02DDCCF2115310509F1281B53
:10461000390B2430310590F412968D919C911397AB
:104620006115710521F0FB019383828304C090938F
:10463000820280938102FD01329644C0FD01E20FA7
:10464000F31F81939193225031092D933C933AC0EB
:1046500020917F0230918002232B41F420910201AE
:10466000309103013093800220937F02209100015A
:10467000309101012115310541F42DB73EB740912C
:10468000040150910501241B350BE0917F02F0914C
:104690008002E217F307A0F42E1B3F0B28173907FF
:1046A00078F0AC014E5F5F4F2417350748F04E0F8E
:1046B0005F1F5093800240937F028193919302C0C9
:1046C000E0E0F0E0CF01DF91CF9108950F931F93C9
:1046D000CF93DF93009709F48CC0FC0132971382CB
:1046E000128200918102109182020115110581F45C
:1046F00020813181820F931F20917F0230918002AF
:104700002817390779F5F0938002E0937F0271C092
:10471000D80140E050E0AE17BF0750F412962D913B
:104720003C911397AD012115310509F1D901F3CF62
:104730009D01DA013383228360817181860F971F87
:104740008217930769F4EC0128813981260F371FFE
:104750002E5F3F4F318320838A819B8193838283A5
:10476000452B29F4F0938202E093810242C0139614
:10477000FC93EE931297ED01499159919E01240FFC
:10478000351FE217F30771F480819181840F951F23
:10479000029611969C938E938281938113969C939B
:1047A0008E931297E0E0F0E0D80112968D919C91E3
:1047B0001397009719F0F8018C01F6CF8D919C9119
:1047C00098012E5F3F4F820F931F20917F023091FF
:1047D00080022817390769F4309729F41092820271
:1047E0001092810202C01382128210938002009301
:1047F0007F02DF91CF911F910F910895DC0101C0DD
:0E4800006D9341505040E0F70895F894FFCFBB
:10480E0000008302200030313233340B010B0100E3
:10481E0000000000004901C20100000000000A0172
:0E482E00391C000000000000000AFF391C00C9
:00000001FF
